{
  "_format": "hh-sol-artifact-1",
  "contractName": "NftFactory",
  "sourceName": "contracts/NftFactory.sol",
  "abi": [
    {
      "inputs": [],
      "stateMutability": "nonpayable",
      "type": "constructor"
    },
    {
      "inputs": [
        {
          "internalType": "address",
          "name": "sender",
          "type": "address"
        },
        {
          "internalType": "uint256",
          "name": "tokenId",
          "type": "uint256"
        },
        {
          "internalType": "address",
          "name": "owner",
          "type": "address"
        }
      ],
      "name": "ERC721IncorrectOwner",
      "type": "error"
    },
    {
      "inputs": [
        {
          "internalType": "address",
          "name": "operator",
          "type": "address"
        },
        {
          "internalType": "uint256",
          "name": "tokenId",
          "type": "uint256"
        }
      ],
      "name": "ERC721InsufficientApproval",
      "type": "error"
    },
    {
      "inputs": [
        {
          "internalType": "address",
          "name": "approver",
          "type": "address"
        }
      ],
      "name": "ERC721InvalidApprover",
      "type": "error"
    },
    {
      "inputs": [
        {
          "internalType": "address",
          "name": "operator",
          "type": "address"
        }
      ],
      "name": "ERC721InvalidOperator",
      "type": "error"
    },
    {
      "inputs": [
        {
          "internalType": "address",
          "name": "owner",
          "type": "address"
        }
      ],
      "name": "ERC721InvalidOwner",
      "type": "error"
    },
    {
      "inputs": [
        {
          "internalType": "address",
          "name": "receiver",
          "type": "address"
        }
      ],
      "name": "ERC721InvalidReceiver",
      "type": "error"
    },
    {
      "inputs": [
        {
          "internalType": "address",
          "name": "sender",
          "type": "address"
        }
      ],
      "name": "ERC721InvalidSender",
      "type": "error"
    },
    {
      "inputs": [
        {
          "internalType": "uint256",
          "name": "tokenId",
          "type": "uint256"
        }
      ],
      "name": "ERC721NonexistentToken",
      "type": "error"
    },
    {
      "anonymous": false,
      "inputs": [
        {
          "indexed": true,
          "internalType": "address",
          "name": "owner",
          "type": "address"
        },
        {
          "indexed": true,
          "internalType": "address",
          "name": "approved",
          "type": "address"
        },
        {
          "indexed": true,
          "internalType": "uint256",
          "name": "tokenId",
          "type": "uint256"
        }
      ],
      "name": "Approval",
      "type": "event"
    },
    {
      "anonymous": false,
      "inputs": [
        {
          "indexed": true,
          "internalType": "address",
          "name": "owner",
          "type": "address"
        },
        {
          "indexed": true,
          "internalType": "address",
          "name": "operator",
          "type": "address"
        },
        {
          "indexed": false,
          "internalType": "bool",
          "name": "approved",
          "type": "bool"
        }
      ],
      "name": "ApprovalForAll",
      "type": "event"
    },
    {
      "anonymous": false,
      "inputs": [
        {
          "indexed": true,
          "internalType": "address",
          "name": "from",
          "type": "address"
        },
        {
          "indexed": true,
          "internalType": "address",
          "name": "to",
          "type": "address"
        },
        {
          "indexed": true,
          "internalType": "uint256",
          "name": "tokenId",
          "type": "uint256"
        }
      ],
      "name": "Transfer",
      "type": "event"
    },
    {
      "inputs": [
        {
          "internalType": "address",
          "name": "to",
          "type": "address"
        },
        {
          "internalType": "uint256",
          "name": "tokenId",
          "type": "uint256"
        }
      ],
      "name": "approve",
      "outputs": [],
      "stateMutability": "nonpayable",
      "type": "function"
    },
    {
      "inputs": [
        {
          "internalType": "address",
          "name": "owner",
          "type": "address"
        }
      ],
      "name": "balanceOf",
      "outputs": [
        {
          "internalType": "uint256",
          "name": "",
          "type": "uint256"
        }
      ],
      "stateMutability": "view",
      "type": "function"
    },
    {
      "inputs": [
        {
          "internalType": "uint256",
          "name": "tokenId",
          "type": "uint256"
        }
      ],
      "name": "getApproved",
      "outputs": [
        {
          "internalType": "address",
          "name": "",
          "type": "address"
        }
      ],
      "stateMutability": "view",
      "type": "function"
    },
    {
      "inputs": [
        {
          "internalType": "address",
          "name": "owner",
          "type": "address"
        },
        {
          "internalType": "address",
          "name": "operator",
          "type": "address"
        }
      ],
      "name": "isApprovedForAll",
      "outputs": [
        {
          "internalType": "bool",
          "name": "",
          "type": "bool"
        }
      ],
      "stateMutability": "view",
      "type": "function"
    },
    {
      "inputs": [],
      "name": "mint",
      "outputs": [],
      "stateMutability": "nonpayable",
      "type": "function"
    },
    {
      "inputs": [],
      "name": "name",
      "outputs": [
        {
          "internalType": "string",
          "name": "",
          "type": "string"
        }
      ],
      "stateMutability": "view",
      "type": "function"
    },
    {
      "inputs": [
        {
          "internalType": "uint256",
          "name": "tokenId",
          "type": "uint256"
        }
      ],
      "name": "ownerOf",
      "outputs": [
        {
          "internalType": "address",
          "name": "",
          "type": "address"
        }
      ],
      "stateMutability": "view",
      "type": "function"
    },
    {
      "inputs": [
        {
          "internalType": "address",
          "name": "from",
          "type": "address"
        },
        {
          "internalType": "address",
          "name": "to",
          "type": "address"
        },
        {
          "internalType": "uint256",
          "name": "tokenId",
          "type": "uint256"
        }
      ],
      "name": "safeTransferFrom",
      "outputs": [],
      "stateMutability": "nonpayable",
      "type": "function"
    },
    {
      "inputs": [
        {
          "internalType": "address",
          "name": "from",
          "type": "address"
        },
        {
          "internalType": "address",
          "name": "to",
          "type": "address"
        },
        {
          "internalType": "uint256",
          "name": "tokenId",
          "type": "uint256"
        },
        {
          "internalType": "bytes",
          "name": "data",
          "type": "bytes"
        }
      ],
      "name": "safeTransferFrom",
      "outputs": [],
      "stateMutability": "nonpayable",
      "type": "function"
    },
    {
      "inputs": [
        {
          "internalType": "address",
          "name": "operator",
          "type": "address"
        },
        {
          "internalType": "bool",
          "name": "approved",
          "type": "bool"
        }
      ],
      "name": "setApprovalForAll",
      "outputs": [],
      "stateMutability": "nonpayable",
      "type": "function"
    },
    {
      "inputs": [
        {
          "internalType": "bytes4",
          "name": "interfaceId",
          "type": "bytes4"
        }
      ],
      "name": "supportsInterface",
      "outputs": [
        {
          "internalType": "bool",
          "name": "",
          "type": "bool"
        }
      ],
      "stateMutability": "view",
      "type": "function"
    },
    {
      "inputs": [],
      "name": "symbol",
      "outputs": [
        {
          "internalType": "string",
          "name": "",
          "type": "string"
        }
      ],
      "stateMutability": "view",
      "type": "function"
    },
    {
      "inputs": [
        {
          "internalType": "uint256",
          "name": "tokenId",
          "type": "uint256"
        }
      ],
      "name": "tokenURI",
      "outputs": [
        {
          "internalType": "string",
          "name": "",
          "type": "string"
        }
      ],
      "stateMutability": "view",
      "type": "function"
    },
    {
      "inputs": [
        {
          "internalType": "address",
          "name": "from",
          "type": "address"
        },
        {
          "internalType": "address",
          "name": "to",
          "type": "address"
        },
        {
          "internalType": "uint256",
          "name": "tokenId",
          "type": "uint256"
        }
      ],
      "name": "transferFrom",
      "outputs": [],
      "stateMutability": "nonpayable",
      "type": "function"
    }
  ],
  "bytecode": "0x608060405234801561001057600080fd5b506040518060400160405280600581526020017f4d794e46540000000000000000000000000000000000000000000000000000008152506040518060400160405280600481526020017f4d4e465400000000000000000000000000000000000000000000000000000000815250816000908161008c91906102f4565b50806001908161009c91906102f4565b5050506103c6565b600081519050919050565b7f4e487b7100000000000000000000000000000000000000000000000000000000600052604160045260246000fd5b7f4e487b7100000000000000000000000000000000000000000000000000000000600052602260045260246000fd5b6000600282049050600182168061012557607f821691505b602082108103610138576101376100de565b5b50919050565b60008190508160005260206000209050919050565b60006020601f8301049050919050565b600082821b905092915050565b6000600883026101a07fffffffffffffffffffffffffffffffffffffffffffffffffffffffffffffffff82610163565b6101aa8683610163565b95508019841693508086168417925050509392505050565b6000819050919050565b6000819050919050565b60006101f16101ec6101e7846101c2565b6101cc565b6101c2565b9050919050565b6000819050919050565b61020b836101d6565b61021f610217826101f8565b848454610170565b825550505050565b600090565b610234610227565b61023f818484610202565b505050565b5b818110156102635761025860008261022c565b600181019050610245565b5050565b601f8211156102a8576102798161013e565b61028284610153565b81016020851015610291578190505b6102a561029d85610153565b830182610244565b50505b505050565b600082821c905092915050565b60006102cb600019846008026102ad565b1980831691505092915050565b60006102e483836102ba565b9150826002028217905092915050565b6102fd826100a4565b67ffffffffffffffff811115610316576103156100af565b5b610320825461010d565b61032b828285610267565b600060209050601f83116001811461035e576000841561034c578287015190505b61035685826102d8565b8655506103be565b601f19841661036c8661013e565b60005b828110156103945784890151825560018201915060208501945060208101905061036f565b868310156103b157848901516103ad601f8916826102ba565b8355505b6001600288020188555050505b505050505050565b611e39806103d56000396000f3fe608060405234801561001057600080fd5b50600436106100ea5760003560e01c80636352211e1161008c578063a22cb46511610066578063a22cb46514610249578063b88d4fde14610265578063c87b56dd14610281578063e985e9c5146102b1576100ea565b80636352211e146101cb57806370a08231146101fb57806395d89b411461022b576100ea565b8063095ea7b3116100c8578063095ea7b31461016d5780631249c58b1461018957806323b872dd1461019357806342842e0e146101af576100ea565b806301ffc9a7146100ef57806306fdde031461011f578063081812fc1461013d575b600080fd5b6101096004803603810190610104919061160c565b6102e1565b6040516101169190611654565b60405180910390f35b6101276103c3565b60405161013491906116ff565b60405180910390f35b61015760048036038101906101529190611757565b610455565b60405161016491906117c5565b60405180910390f35b6101876004803603810190610182919061180c565b610471565b005b610191610487565b005b6101ad60048036038101906101a8919061184c565b6104ad565b005b6101c960048036038101906101c4919061184c565b6105af565b005b6101e560048036038101906101e09190611757565b6105cf565b6040516101f291906117c5565b60405180910390f35b6102156004803603810190610210919061189f565b6105e1565b60405161022291906118db565b60405180910390f35b61023361069b565b60405161024091906116ff565b60405180910390f35b610263600480360381019061025e9190611922565b61072d565b005b61027f600480360381019061027a9190611a97565b610743565b005b61029b60048036038101906102969190611757565b610768565b6040516102a891906116ff565b60405180910390f35b6102cb60048036038101906102c69190611b1a565b6107d1565b6040516102d89190611654565b60405180910390f35b60007f80ac58cd000000000000000000000000000000000000000000000000000000007bffffffffffffffffffffffffffffffffffffffffffffffffffffffff1916827bffffffffffffffffffffffffffffffffffffffffffffffffffffffff191614806103ac57507f5b5e139f000000000000000000000000000000000000000000000000000000007bffffffffffffffffffffffffffffffffffffffffffffffffffffffff1916827bffffffffffffffffffffffffffffffffffffffffffffffffffffffff1916145b806103bc57506103bb82610865565b5b9050919050565b6060600080546103d290611b89565b80601f01602080910402602001604051908101604052809291908181526020018280546103fe90611b89565b801561044b5780601f106104205761010080835404028352916020019161044b565b820191906000526020600020905b81548152906001019060200180831161042e57829003601f168201915b5050505050905090565b6000610460826108cf565b5061046a82610957565b9050919050565b610483828261047e610994565b61099c565b5050565b610493336006546109ae565b600660008154809291906104a690611be9565b9190505550565b600073ffffffffffffffffffffffffffffffffffffffff168273ffffffffffffffffffffffffffffffffffffffff160361051f5760006040517f64a0ae9200000000000000000000000000000000000000000000000000000000815260040161051691906117c5565b60405180910390fd5b6000610533838361052e610994565b610aa7565b90508373ffffffffffffffffffffffffffffffffffffffff168173ffffffffffffffffffffffffffffffffffffffff16146105a9578382826040517f64283d7b0000000000000000000000000000000000000000000000000000000081526004016105a093929190611c31565b60405180910390fd5b50505050565b6105ca83838360405180602001604052806000815250610743565b505050565b60006105da826108cf565b9050919050565b60008073ffffffffffffffffffffffffffffffffffffffff168273ffffffffffffffffffffffffffffffffffffffff16036106545760006040517f89c62b6400000000000000000000000000000000000000000000000000000000815260040161064b91906117c5565b60405180910390fd5b600360008373ffffffffffffffffffffffffffffffffffffffff1673ffffffffffffffffffffffffffffffffffffffff168152602001908152602001600020549050919050565b6060600180546106aa90611b89565b80601f01602080910402602001604051908101604052809291908181526020018280546106d690611b89565b80156107235780601f106106f857610100808354040283529160200191610723565b820191906000526020600020905b81548152906001019060200180831161070657829003601f168201915b5050505050905090565b61073f610738610994565b8383610cc1565b5050565b61074e8484846104ad565b610762610759610994565b85858585610e30565b50505050565b6060610773826108cf565b50600061077e610fe1565b9050600081511161079e57604051806020016040528060008152506107c9565b806107a884610ff8565b6040516020016107b9929190611ca4565b6040516020818303038152906040525b915050919050565b6000600560008473ffffffffffffffffffffffffffffffffffffffff1673ffffffffffffffffffffffffffffffffffffffff16815260200190815260200160002060008373ffffffffffffffffffffffffffffffffffffffff1673ffffffffffffffffffffffffffffffffffffffff16815260200190815260200160002060009054906101000a900460ff16905092915050565b60007f01ffc9a7000000000000000000000000000000000000000000000000000000007bffffffffffffffffffffffffffffffffffffffffffffffffffffffff1916827bffffffffffffffffffffffffffffffffffffffffffffffffffffffff1916149050919050565b6000806108db836110c6565b9050600073ffffffffffffffffffffffffffffffffffffffff168173ffffffffffffffffffffffffffffffffffffffff160361094e57826040517f7e27328900000000000000000000000000000000000000000000000000000000815260040161094591906118db565b60405180910390fd5b80915050919050565b60006004600083815260200190815260200160002060009054906101000a900473ffffffffffffffffffffffffffffffffffffffff169050919050565b600033905090565b6109a98383836001611103565b505050565b600073ffffffffffffffffffffffffffffffffffffffff168273ffffffffffffffffffffffffffffffffffffffff1603610a205760006040517f64a0ae92000000000000000000000000000000000000000000000000000000008152600401610a1791906117c5565b60405180910390fd5b6000610a2e83836000610aa7565b9050600073ffffffffffffffffffffffffffffffffffffffff168173ffffffffffffffffffffffffffffffffffffffff1614610aa25760006040517f73c6ac6e000000000000000000000000000000000000000000000000000000008152600401610a9991906117c5565b60405180910390fd5b505050565b600080610ab3846110c6565b9050600073ffffffffffffffffffffffffffffffffffffffff168373ffffffffffffffffffffffffffffffffffffffff1614610af557610af48184866112c8565b5b600073ffffffffffffffffffffffffffffffffffffffff168173ffffffffffffffffffffffffffffffffffffffff1614610b8657610b37600085600080611103565b6001600360008373ffffffffffffffffffffffffffffffffffffffff1673ffffffffffffffffffffffffffffffffffffffff168152602001908152602001600020600082825403925050819055505b600073ffffffffffffffffffffffffffffffffffffffff168573ffffffffffffffffffffffffffffffffffffffff1614610c09576001600360008773ffffffffffffffffffffffffffffffffffffffff1673ffffffffffffffffffffffffffffffffffffffff168152602001908152602001600020600082825401925050819055505b846002600086815260200190815260200160002060006101000a81548173ffffffffffffffffffffffffffffffffffffffff021916908373ffffffffffffffffffffffffffffffffffffffff160217905550838573ffffffffffffffffffffffffffffffffffffffff168273ffffffffffffffffffffffffffffffffffffffff167fddf252ad1be2c89b69c2b068fc378daa952ba7f163c4a11628f55a4df523b3ef60405160405180910390a4809150509392505050565b600073ffffffffffffffffffffffffffffffffffffffff168273ffffffffffffffffffffffffffffffffffffffff1603610d3257816040517f5b08ba18000000000000000000000000000000000000000000000000000000008152600401610d2991906117c5565b60405180910390fd5b80600560008573ffffffffffffffffffffffffffffffffffffffff1673ffffffffffffffffffffffffffffffffffffffff16815260200190815260200160002060008473ffffffffffffffffffffffffffffffffffffffff1673ffffffffffffffffffffffffffffffffffffffff16815260200190815260200160002060006101000a81548160ff0219169083151502179055508173ffffffffffffffffffffffffffffffffffffffff168373ffffffffffffffffffffffffffffffffffffffff167f17307eab39ab6107e8899845ad3d59bd9653f200f220920489ca2b5937696c3183604051610e239190611654565b60405180910390a3505050565b60008373ffffffffffffffffffffffffffffffffffffffff163b1115610fda578273ffffffffffffffffffffffffffffffffffffffff1663150b7a02868685856040518563ffffffff1660e01b8152600401610e8f9493929190611d1d565b6020604051808303816000875af1925050508015610ecb57506040513d601f19601f82011682018060405250810190610ec89190611d7e565b60015b610f4f573d8060008114610efb576040519150601f19603f3d011682016040523d82523d6000602084013e610f00565b606091505b506000815103610f4757836040517f64a0ae92000000000000000000000000000000000000000000000000000000008152600401610f3e91906117c5565b60405180910390fd5b805181602001fd5b63150b7a0260e01b7bffffffffffffffffffffffffffffffffffffffffffffffffffffffff1916817bffffffffffffffffffffffffffffffffffffffffffffffffffffffff191614610fd857836040517f64a0ae92000000000000000000000000000000000000000000000000000000008152600401610fcf91906117c5565b60405180910390fd5b505b5050505050565b606060405180602001604052806000815250905090565b6060600060016110078461138c565b01905060008167ffffffffffffffff8111156110265761102561196c565b5b6040519080825280601f01601f1916602001820160405280156110585781602001600182028036833780820191505090505b509050600082602001820190505b6001156110bb578080600190039150507f3031323334353637383961626364656600000000000000000000000000000000600a86061a8153600a85816110af576110ae611dab565b5b04945060008503611066575b819350505050919050565b60006002600083815260200190815260200160002060009054906101000a900473ffffffffffffffffffffffffffffffffffffffff169050919050565b808061113c5750600073ffffffffffffffffffffffffffffffffffffffff168273ffffffffffffffffffffffffffffffffffffffff1614155b1561127057600061114c846108cf565b9050600073ffffffffffffffffffffffffffffffffffffffff168373ffffffffffffffffffffffffffffffffffffffff16141580156111b757508273ffffffffffffffffffffffffffffffffffffffff168173ffffffffffffffffffffffffffffffffffffffff1614155b80156111ca57506111c881846107d1565b155b1561120c57826040517fa9fbf51f00000000000000000000000000000000000000000000000000000000815260040161120391906117c5565b60405180910390fd5b811561126e57838573ffffffffffffffffffffffffffffffffffffffff168273ffffffffffffffffffffffffffffffffffffffff167f8c5be1e5ebec7d5bd14f71427d1e84f3dd0314c0f7b2291e5b200ac8c7c3b92560405160405180910390a45b505b836004600085815260200190815260200160002060006101000a81548173ffffffffffffffffffffffffffffffffffffffff021916908373ffffffffffffffffffffffffffffffffffffffff16021790555050505050565b6112d38383836114df565b61138757600073ffffffffffffffffffffffffffffffffffffffff168373ffffffffffffffffffffffffffffffffffffffff160361134857806040517f7e27328900000000000000000000000000000000000000000000000000000000815260040161133f91906118db565b60405180910390fd5b81816040517f177e802f00000000000000000000000000000000000000000000000000000000815260040161137e929190611dda565b60405180910390fd5b505050565b600080600090507a184f03e93ff9f4daa797ed6e38ed64bf6a1f01000000000000000083106113ea577a184f03e93ff9f4daa797ed6e38ed64bf6a1f01000000000000000083816113e0576113df611dab565b5b0492506040810190505b6d04ee2d6d415b85acef81000000008310611427576d04ee2d6d415b85acef8100000000838161141d5761141c611dab565b5b0492506020810190505b662386f26fc10000831061145657662386f26fc10000838161144c5761144b611dab565b5b0492506010810190505b6305f5e100831061147f576305f5e100838161147557611474611dab565b5b0492506008810190505b61271083106114a457612710838161149a57611499611dab565b5b0492506004810190505b606483106114c757606483816114bd576114bc611dab565b5b0492506002810190505b600a83106114d6576001810190505b80915050919050565b60008073ffffffffffffffffffffffffffffffffffffffff168373ffffffffffffffffffffffffffffffffffffffff161415801561159757508273ffffffffffffffffffffffffffffffffffffffff168473ffffffffffffffffffffffffffffffffffffffff161480611558575061155784846107d1565b5b8061159657508273ffffffffffffffffffffffffffffffffffffffff1661157e83610957565b73ffffffffffffffffffffffffffffffffffffffff16145b5b90509392505050565b6000604051905090565b600080fd5b600080fd5b60007fffffffff0000000000000000000000000000000000000000000000000000000082169050919050565b6115e9816115b4565b81146115f457600080fd5b50565b600081359050611606816115e0565b92915050565b600060208284031215611622576116216115aa565b5b6000611630848285016115f7565b91505092915050565b60008115159050919050565b61164e81611639565b82525050565b60006020820190506116696000830184611645565b92915050565b600081519050919050565b600082825260208201905092915050565b60005b838110156116a957808201518184015260208101905061168e565b60008484015250505050565b6000601f19601f8301169050919050565b60006116d18261166f565b6116db818561167a565b93506116eb81856020860161168b565b6116f4816116b5565b840191505092915050565b6000602082019050818103600083015261171981846116c6565b905092915050565b6000819050919050565b61173481611721565b811461173f57600080fd5b50565b6000813590506117518161172b565b92915050565b60006020828403121561176d5761176c6115aa565b5b600061177b84828501611742565b91505092915050565b600073ffffffffffffffffffffffffffffffffffffffff82169050919050565b60006117af82611784565b9050919050565b6117bf816117a4565b82525050565b60006020820190506117da60008301846117b6565b92915050565b6117e9816117a4565b81146117f457600080fd5b50565b600081359050611806816117e0565b92915050565b60008060408385031215611823576118226115aa565b5b6000611831858286016117f7565b925050602061184285828601611742565b9150509250929050565b600080600060608486031215611865576118646115aa565b5b6000611873868287016117f7565b9350506020611884868287016117f7565b925050604061189586828701611742565b9150509250925092565b6000602082840312156118b5576118b46115aa565b5b60006118c3848285016117f7565b91505092915050565b6118d581611721565b82525050565b60006020820190506118f060008301846118cc565b92915050565b6118ff81611639565b811461190a57600080fd5b50565b60008135905061191c816118f6565b92915050565b60008060408385031215611939576119386115aa565b5b6000611947858286016117f7565b92505060206119588582860161190d565b9150509250929050565b600080fd5b600080fd5b7f4e487b7100000000000000000000000000000000000000000000000000000000600052604160045260246000fd5b6119a4826116b5565b810181811067ffffffffffffffff821117156119c3576119c261196c565b5b80604052505050565b60006119d66115a0565b90506119e2828261199b565b919050565b600067ffffffffffffffff821115611a0257611a0161196c565b5b611a0b826116b5565b9050602081019050919050565b82818337600083830152505050565b6000611a3a611a35846119e7565b6119cc565b905082815260208101848484011115611a5657611a55611967565b5b611a61848285611a18565b509392505050565b600082601f830112611a7e57611a7d611962565b5b8135611a8e848260208601611a27565b91505092915050565b60008060008060808587031215611ab157611ab06115aa565b5b6000611abf878288016117f7565b9450506020611ad0878288016117f7565b9350506040611ae187828801611742565b925050606085013567ffffffffffffffff811115611b0257611b016115af565b5b611b0e87828801611a69565b91505092959194509250565b60008060408385031215611b3157611b306115aa565b5b6000611b3f858286016117f7565b9250506020611b50858286016117f7565b9150509250929050565b7f4e487b7100000000000000000000000000000000000000000000000000000000600052602260045260246000fd5b60006002820490506001821680611ba157607f821691505b602082108103611bb457611bb3611b5a565b5b50919050565b7f4e487b7100000000000000000000000000000000000000000000000000000000600052601160045260246000fd5b6000611bf482611721565b91507fffffffffffffffffffffffffffffffffffffffffffffffffffffffffffffffff8203611c2657611c25611bba565b5b600182019050919050565b6000606082019050611c4660008301866117b6565b611c5360208301856118cc565b611c6060408301846117b6565b949350505050565b600081905092915050565b6000611c7e8261166f565b611c888185611c68565b9350611c9881856020860161168b565b80840191505092915050565b6000611cb08285611c73565b9150611cbc8284611c73565b91508190509392505050565b600081519050919050565b600082825260208201905092915050565b6000611cef82611cc8565b611cf98185611cd3565b9350611d0981856020860161168b565b611d12816116b5565b840191505092915050565b6000608082019050611d3260008301876117b6565b611d3f60208301866117b6565b611d4c60408301856118cc565b8181036060830152611d5e8184611ce4565b905095945050505050565b600081519050611d78816115e0565b92915050565b600060208284031215611d9457611d936115aa565b5b6000611da284828501611d69565b91505092915050565b7f4e487b7100000000000000000000000000000000000000000000000000000000600052601260045260246000fd5b6000604082019050611def60008301856117b6565b611dfc60208301846118cc565b939250505056fea2646970667358221220b9fb8dfaea6167f8af85d1ed101f6e0670766be6fd7ac17a083736a8265e4ec864736f6c634300081c0033",
  "linkReferences": {},
  "deployedLinkReferences": {}
}