{
  "_format": "hh-sol-artifact-1",
  "contractName": "Ticketing",
  "sourceName": "contracts/Ticketing.sol",
  "abi": [
    {
      "inputs": [],
      "stateMutability": "nonpayable",
      "type": "constructor"
    },
    {
      "inputs": [
        {
          "internalType": "address",
          "name": "club",
          "type": "address"
        },
        {
          "internalType": "string",
          "name": "eventName",
          "type": "string"
        },
        {
          "internalType": "string",
          "name": "eventDescription",
          "type": "string"
        },
        {
          "internalType": "uint256",
          "name": "eventDate",
          "type": "uint256"
        },
        {
          "internalType": "uint256",
          "name": "price",
          "type": "uint256"
        },
        {
          "internalType": "address",
          "name": "nftContract",
          "type": "address"
        },
        {
          "internalType": "string",
          "name": "nftURI",
          "type": "string"
        }
      ],
      "name": "addTicketForSale",
      "outputs": [],
      "stateMutability": "nonpayable",
      "type": "function"
    },
    {
      "inputs": [
        {
          "internalType": "uint256",
          "name": "",
          "type": "uint256"
        }
      ],
      "name": "allTickets",
      "outputs": [
        {
          "internalType": "uint256",
          "name": "id",
          "type": "uint256"
        },
        {
          "internalType": "string",
          "name": "eventName",
          "type": "string"
        },
        {
          "internalType": "string",
          "name": "eventDescription",
          "type": "string"
        },
        {
          "internalType": "uint256",
          "name": "eventDate",
          "type": "uint256"
        },
        {
          "internalType": "uint256",
          "name": "price",
          "type": "uint256"
        },
        {
          "internalType": "address",
          "name": "owner",
          "type": "address"
        },
        {
          "internalType": "address",
          "name": "club",
          "type": "address"
        },
        {
          "internalType": "string",
          "name": "nftURI",
          "type": "string"
        }
      ],
      "stateMutability": "view",
      "type": "function"
    },
    {
      "inputs": [
        {
          "internalType": "address",
          "name": "",
          "type": "address"
        }
      ],
      "name": "attendedEvents",
      "outputs": [
        {
          "internalType": "uint256",
          "name": "",
          "type": "uint256"
        }
      ],
      "stateMutability": "view",
      "type": "function"
    },
    {
      "inputs": [
        {
          "internalType": "address",
          "name": "club",
          "type": "address"
        },
        {
          "internalType": "uint256",
          "name": "ticketId",
          "type": "uint256"
        }
      ],
      "name": "buyTicket",
      "outputs": [],
      "stateMutability": "payable",
      "type": "function"
    },
    {
      "inputs": [],
      "name": "getAllTickets",
      "outputs": [
        {
          "components": [
            {
              "internalType": "uint256",
              "name": "id",
              "type": "uint256"
            },
            {
              "internalType": "string",
              "name": "eventName",
              "type": "string"
            },
            {
              "internalType": "string",
              "name": "eventDescription",
              "type": "string"
            },
            {
              "internalType": "uint256",
              "name": "eventDate",
              "type": "uint256"
            },
            {
              "internalType": "uint256",
              "name": "price",
              "type": "uint256"
            },
            {
              "internalType": "address",
              "name": "owner",
              "type": "address"
            },
            {
              "internalType": "address",
              "name": "club",
              "type": "address"
            },
            {
              "internalType": "string",
              "name": "nftURI",
              "type": "string"
            }
          ],
          "internalType": "struct Ticketing.Ticket[]",
          "name": "",
          "type": "tuple[]"
        }
      ],
      "stateMutability": "view",
      "type": "function"
    },
    {
      "inputs": [
        {
          "internalType": "address",
          "name": "club",
          "type": "address"
        }
      ],
      "name": "getTicketsForClub",
      "outputs": [
        {
          "components": [
            {
              "internalType": "uint256",
              "name": "id",
              "type": "uint256"
            },
            {
              "internalType": "string",
              "name": "eventName",
              "type": "string"
            },
            {
              "internalType": "string",
              "name": "eventDescription",
              "type": "string"
            },
            {
              "internalType": "uint256",
              "name": "eventDate",
              "type": "uint256"
            },
            {
              "internalType": "uint256",
              "name": "price",
              "type": "uint256"
            },
            {
              "internalType": "address",
              "name": "owner",
              "type": "address"
            },
            {
              "internalType": "address",
              "name": "club",
              "type": "address"
            },
            {
              "internalType": "string",
              "name": "nftURI",
              "type": "string"
            }
          ],
          "internalType": "struct Ticketing.Ticket[]",
          "name": "",
          "type": "tuple[]"
        }
      ],
      "stateMutability": "view",
      "type": "function"
    },
    {
      "inputs": [
        {
          "internalType": "uint256",
          "name": "",
          "type": "uint256"
        }
      ],
      "name": "milestoneNftURIs",
      "outputs": [
        {
          "internalType": "string",
          "name": "",
          "type": "string"
        }
      ],
      "stateMutability": "view",
      "type": "function"
    },
    {
      "inputs": [
        {
          "internalType": "address",
          "name": "",
          "type": "address"
        },
        {
          "internalType": "uint256",
          "name": "",
          "type": "uint256"
        }
      ],
      "name": "ticketsInSale",
      "outputs": [
        {
          "internalType": "uint256",
          "name": "id",
          "type": "uint256"
        },
        {
          "internalType": "string",
          "name": "eventName",
          "type": "string"
        },
        {
          "internalType": "string",
          "name": "eventDescription",
          "type": "string"
        },
        {
          "internalType": "uint256",
          "name": "eventDate",
          "type": "uint256"
        },
        {
          "internalType": "uint256",
          "name": "price",
          "type": "uint256"
        },
        {
          "internalType": "address",
          "name": "owner",
          "type": "address"
        },
        {
          "internalType": "address",
          "name": "club",
          "type": "address"
        },
        {
          "internalType": "string",
          "name": "nftURI",
          "type": "string"
        }
      ],
      "stateMutability": "view",
      "type": "function"
    }
  ],
  "bytecode": "0x6080604052731234567890123456789012345678901234567890600360006101000a81548173ffffffffffffffffffffffffffffffffffffffff021916908373ffffffffffffffffffffffffffffffffffffffff16021790555034801561006557600080fd5b506000600281905550600360009054906101000a900473ffffffffffffffffffffffffffffffffffffffff166000806101000a81548173ffffffffffffffffffffffffffffffffffffffff021916908373ffffffffffffffffffffffffffffffffffffffff16021790555060405180606001604052806023815260200161346d60239139600160006001815260200190815260200160002090816101099190610761565b5060405180606001604052806023815260200161344a6023913960016000600a815260200190815260200160002090816101439190610761565b506040518060600160405280602381526020016134b3602391396001600060328152602001908152602001600020908161017d9190610761565b5060405180606001604052806023815260200161349060239139600160006064815260200190815260200160002090816101b79190610761565b506000604051806101000160405280600081526020016040518060400160405280600d81526020017f496e697469616c204576656e740000000000000000000000000000000000000081525081526020016040518060600160405280602e815260200161341c602e9139815260200162015180426102359190610862565b8152602001655af3107a40008152602001600073ffffffffffffffffffffffffffffffffffffffff168152602001600073ffffffffffffffffffffffffffffffffffffffff168152602001604051806020016040528060008152508152509050600460008073ffffffffffffffffffffffffffffffffffffffff1673ffffffffffffffffffffffffffffffffffffffff16815260200190815260200160002081908060018154018082558091505060019003906000526020600020906008020160009091909190915060008201518160000155602082015181600101908161031d9190610761565b5060408201518160020190816103339190610761565b50606082015181600301556080820151816004015560a08201518160050160006101000a81548173ffffffffffffffffffffffffffffffffffffffff021916908373ffffffffffffffffffffffffffffffffffffffff16021790555060c08201518160060160006101000a81548173ffffffffffffffffffffffffffffffffffffffff021916908373ffffffffffffffffffffffffffffffffffffffff16021790555060e08201518160070190816103eb9190610761565b50505080600660008081526020019081526020016000206000820151816000015560208201518160010190816104219190610761565b5060408201518160020190816104379190610761565b50606082015181600301556080820151816004015560a08201518160050160006101000a81548173ffffffffffffffffffffffffffffffffffffffff021916908373ffffffffffffffffffffffffffffffffffffffff16021790555060c08201518160060160006101000a81548173ffffffffffffffffffffffffffffffffffffffff021916908373ffffffffffffffffffffffffffffffffffffffff16021790555060e08201518160070190816104ef9190610761565b509050506002600081548092919061050690610896565b9190505550506108de565b600081519050919050565b7f4e487b7100000000000000000000000000000000000000000000000000000000600052604160045260246000fd5b7f4e487b7100000000000000000000000000000000000000000000000000000000600052602260045260246000fd5b6000600282049050600182168061059257607f821691505b6020821081036105a5576105a461054b565b5b50919050565b60008190508160005260206000209050919050565b60006020601f8301049050919050565b600082821b905092915050565b60006008830261060d7fffffffffffffffffffffffffffffffffffffffffffffffffffffffffffffffff826105d0565b61061786836105d0565b95508019841693508086168417925050509392505050565b6000819050919050565b6000819050919050565b600061065e6106596106548461062f565b610639565b61062f565b9050919050565b6000819050919050565b61067883610643565b61068c61068482610665565b8484546105dd565b825550505050565b600090565b6106a1610694565b6106ac81848461066f565b505050565b5b818110156106d0576106c5600082610699565b6001810190506106b2565b5050565b601f821115610715576106e6816105ab565b6106ef846105c0565b810160208510156106fe578190505b61071261070a856105c0565b8301826106b1565b50505b505050565b600082821c905092915050565b60006107386000198460080261071a565b1980831691505092915050565b60006107518383610727565b9150826002028217905092915050565b61076a82610511565b67ffffffffffffffff8111156107835761078261051c565b5b61078d825461057a565b6107988282856106d4565b600060209050601f8311600181146107cb57600084156107b9578287015190505b6107c38582610745565b86555061082b565b601f1984166107d9866105ab565b60005b82811015610801578489015182556001820191506020850194506020810190506107dc565b8683101561081e578489015161081a601f891682610727565b8355505b6001600288020188555050505b505050505050565b7f4e487b7100000000000000000000000000000000000000000000000000000000600052601160045260246000fd5b600061086d8261062f565b91506108788361062f565b92508282019050808211156108905761088f610833565b5b92915050565b60006108a18261062f565b91507fffffffffffffffffffffffffffffffffffffffffffffffffffffffffffffffff82036108d3576108d2610833565b5b600182019050919050565b612b2f806108ed6000396000f3fe60806040526004361061007b5760003560e01c806366a5ef2f1161004e57806366a5ef2f1461014e57806382d3200d1461016a578063cba0f287146101a7578063d0a753af146101eb5761007b565b806303e96fe31461008057806307263c12146100ab5780630a572415146100e85780635d27743614610111575b600080fd5b34801561008c57600080fd5b5061009561022f565b6040516100a29190611d41565b60405180910390f35b3480156100b757600080fd5b506100d260048036038101906100cd9190611da3565b61056a565b6040516100df9190611e1a565b60405180910390f35b3480156100f457600080fd5b5061010f600480360381019061010a9190611f9d565b61060a565b005b34801561011d57600080fd5b5061013860048036038101906101339190612093565b610a66565b6040516101459190611d41565b60405180910390f35b610168600480360381019061016391906120c0565b610d85565b005b34801561017657600080fd5b50610191600480360381019061018c9190612093565b611160565b60405161019e919061210f565b60405180910390f35b3480156101b357600080fd5b506101ce60048036038101906101c991906120c0565b611178565b6040516101e2989796959493929190612139565b60405180910390f35b3480156101f757600080fd5b50610212600480360381019061020d9190611da3565b6113b5565b604051610226989796959493929190612139565b60405180910390f35b6060600060025467ffffffffffffffff81111561024f5761024e611e72565b5b60405190808252806020026020018201604052801561028857816020015b610275611a09565b81526020019060019003908161026d5790505b50905060005b600254811015610562576006600082815260200190815260200160002060405180610100016040529081600082015481526020016001820180546102d1906121fb565b80601f01602080910402602001604051908101604052809291908181526020018280546102fd906121fb565b801561034a5780601f1061031f5761010080835404028352916020019161034a565b820191906000526020600020905b81548152906001019060200180831161032d57829003601f168201915b50505050508152602001600282018054610363906121fb565b80601f016020809104026020016040519081016040528092919081815260200182805461038f906121fb565b80156103dc5780601f106103b1576101008083540402835291602001916103dc565b820191906000526020600020905b8154815290600101906020018083116103bf57829003601f168201915b5050505050815260200160038201548152602001600482015481526020016005820160009054906101000a900473ffffffffffffffffffffffffffffffffffffffff1673ffffffffffffffffffffffffffffffffffffffff1673ffffffffffffffffffffffffffffffffffffffff1681526020016006820160009054906101000a900473ffffffffffffffffffffffffffffffffffffffff1673ffffffffffffffffffffffffffffffffffffffff1673ffffffffffffffffffffffffffffffffffffffff1681526020016007820180546104b5906121fb565b80601f01602080910402602001604051908101604052809291908181526020018280546104e1906121fb565b801561052e5780601f106105035761010080835404028352916020019161052e565b820191906000526020600020905b81548152906001019060200180831161051157829003601f168201915b50505050508152505082828151811061054a5761054961222c565b5b6020026020010181905250808060010191505061028e565b508091505090565b60016020528060005260406000206000915090508054610589906121fb565b80601f01602080910402602001604051908101604052809291908181526020018280546105b5906121fb565b80156106025780601f106105d757610100808354040283529160200191610602565b820191906000526020600020905b8154815290600101906020018083116105e557829003601f168201915b505050505081565b600073ffffffffffffffffffffffffffffffffffffffff168773ffffffffffffffffffffffffffffffffffffffff1603610679576040517f08c379a0000000000000000000000000000000000000000000000000000000008152600401610670906122a7565b60405180910390fd5b60008651116106bd576040517f08c379a00000000000000000000000000000000000000000000000000000000081526004016106b490612313565b60405180910390fd5b4284116106ff576040517f08c379a00000000000000000000000000000000000000000000000000000000081526004016106f69061237f565b60405180910390fd5b600073ffffffffffffffffffffffffffffffffffffffff168273ffffffffffffffffffffffffffffffffffffffff1614610778576000815111610777576040517f08c379a000000000000000000000000000000000000000000000000000000000815260040161076e906123eb565b60405180910390fd5b5b600060405180610100016040528060025481526020018881526020018781526020018681526020018581526020013373ffffffffffffffffffffffffffffffffffffffff1681526020018973ffffffffffffffffffffffffffffffffffffffff168152602001838152509050600460008973ffffffffffffffffffffffffffffffffffffffff1673ffffffffffffffffffffffffffffffffffffffff16815260200190815260200160002081908060018154018082558091505060019003906000526020600020906008020160009091909190915060008201518160000155602082015181600101908161086c91906125b7565b50604082015181600201908161088291906125b7565b50606082015181600301556080820151816004015560a08201518160050160006101000a81548173ffffffffffffffffffffffffffffffffffffffff021916908373ffffffffffffffffffffffffffffffffffffffff16021790555060c08201518160060160006101000a81548173ffffffffffffffffffffffffffffffffffffffff021916908373ffffffffffffffffffffffffffffffffffffffff16021790555060e082015181600701908161093a91906125b7565b5050508060066000600254815260200190815260200160002060008201518160000155602082015181600101908161097291906125b7565b50604082015181600201908161098891906125b7565b50606082015181600301556080820151816004015560a08201518160050160006101000a81548173ffffffffffffffffffffffffffffffffffffffff021916908373ffffffffffffffffffffffffffffffffffffffff16021790555060c08201518160060160006101000a81548173ffffffffffffffffffffffffffffffffffffffff021916908373ffffffffffffffffffffffffffffffffffffffff16021790555060e0820151816007019081610a4091906125b7565b5090505060026000815480929190610a57906126b8565b91905055505050505050505050565b6060600460008373ffffffffffffffffffffffffffffffffffffffff1673ffffffffffffffffffffffffffffffffffffffff168152602001908152602001600020805480602002602001604051908101604052809291908181526020016000905b82821015610d7a57838290600052602060002090600802016040518061010001604052908160008201548152602001600182018054610b05906121fb565b80601f0160208091040260200160405190810160405280929190818152602001828054610b31906121fb565b8015610b7e5780601f10610b5357610100808354040283529160200191610b7e565b820191906000526020600020905b815481529060010190602001808311610b6157829003601f168201915b50505050508152602001600282018054610b97906121fb565b80601f0160208091040260200160405190810160405280929190818152602001828054610bc3906121fb565b8015610c105780601f10610be557610100808354040283529160200191610c10565b820191906000526020600020905b815481529060010190602001808311610bf357829003601f168201915b5050505050815260200160038201548152602001600482015481526020016005820160009054906101000a900473ffffffffffffffffffffffffffffffffffffffff1673ffffffffffffffffffffffffffffffffffffffff1673ffffffffffffffffffffffffffffffffffffffff1681526020016006820160009054906101000a900473ffffffffffffffffffffffffffffffffffffffff1673ffffffffffffffffffffffffffffffffffffffff1673ffffffffffffffffffffffffffffffffffffffff168152602001600782018054610ce9906121fb565b80601f0160208091040260200160405190810160405280929190818152602001828054610d15906121fb565b8015610d625780601f10610d3757610100808354040283529160200191610d62565b820191906000526020600020905b815481529060010190602001808311610d4557829003601f168201915b50505050508152505081526020019060010190610ac7565b505050509050919050565b6000600460008473ffffffffffffffffffffffffffffffffffffffff1673ffffffffffffffffffffffffffffffffffffffff168152602001908152602001600020905080805490508210610e0e576040517f08c379a0000000000000000000000000000000000000000000000000000000008152600401610e059061274c565b60405180910390fd5b6000818381548110610e2357610e2261222c565b5b906000526020600020906008020190508060040154341015610e7a576040517f08c379a0000000000000000000000000000000000000000000000000000000008152600401610e71906127b8565b60405180910390fd5b42816003015411610ec0576040517f08c379a0000000000000000000000000000000000000000000000000000000008152600401610eb790612824565b60405180910390fd5b338160050160006101000a81548173ffffffffffffffffffffffffffffffffffffffff021916908373ffffffffffffffffffffffffffffffffffffffff160217905550600560003373ffffffffffffffffffffffffffffffffffffffff1673ffffffffffffffffffffffffffffffffffffffff1681526020019081526020016000206000815480929190610f53906126b8565b91905055506000816007018054610f69906121fb565b905011156110025760008054906101000a900473ffffffffffffffffffffffffffffffffffffffff1673ffffffffffffffffffffffffffffffffffffffff1663eacabe1433836007016040518363ffffffff1660e01b8152600401610fcf9291906128c8565b600060405180830381600087803b158015610fe957600080fd5b505af1158015610ffd573d6000803e3d6000fd5b505050505b8373ffffffffffffffffffffffffffffffffffffffff166108fc349081150290604051600060405180830381858888f19350505050158015611048573d6000803e3d6000fd5b5061105384846115d5565b600060016000600560003373ffffffffffffffffffffffffffffffffffffffff1673ffffffffffffffffffffffffffffffffffffffff16815260200190815260200160002054815260200190815260200160002080546110b2906121fb565b9050111561115a5760008054906101000a900473ffffffffffffffffffffffffffffffffffffffff1673ffffffffffffffffffffffffffffffffffffffff1663eacabe1433600160008781526020019081526020016000206040518363ffffffff1660e01b81526004016111279291906128c8565b600060405180830381600087803b15801561114157600080fd5b505af1158015611155573d6000803e3d6000fd5b505050505b50505050565b60056020528060005260406000206000915090505481565b6004602052816000526040600020818154811061119457600080fd5b9060005260206000209060080201600091509150508060000154908060010180546111be906121fb565b80601f01602080910402602001604051908101604052809291908181526020018280546111ea906121fb565b80156112375780601f1061120c57610100808354040283529160200191611237565b820191906000526020600020905b81548152906001019060200180831161121a57829003601f168201915b50505050509080600201805461124c906121fb565b80601f0160208091040260200160405190810160405280929190818152602001828054611278906121fb565b80156112c55780601f1061129a576101008083540402835291602001916112c5565b820191906000526020600020905b8154815290600101906020018083116112a857829003601f168201915b5050505050908060030154908060040154908060050160009054906101000a900473ffffffffffffffffffffffffffffffffffffffff16908060060160009054906101000a900473ffffffffffffffffffffffffffffffffffffffff1690806007018054611332906121fb565b80601f016020809104026020016040519081016040528092919081815260200182805461135e906121fb565b80156113ab5780601f10611380576101008083540402835291602001916113ab565b820191906000526020600020905b81548152906001019060200180831161138e57829003601f168201915b5050505050905088565b60066020528060005260406000206000915090508060000154908060010180546113de906121fb565b80601f016020809104026020016040519081016040528092919081815260200182805461140a906121fb565b80156114575780601f1061142c57610100808354040283529160200191611457565b820191906000526020600020905b81548152906001019060200180831161143a57829003601f168201915b50505050509080600201805461146c906121fb565b80601f0160208091040260200160405190810160405280929190818152602001828054611498906121fb565b80156114e55780601f106114ba576101008083540402835291602001916114e5565b820191906000526020600020905b8154815290600101906020018083116114c857829003601f168201915b5050505050908060030154908060040154908060050160009054906101000a900473ffffffffffffffffffffffffffffffffffffffff16908060060160009054906101000a900473ffffffffffffffffffffffffffffffffffffffff1690806007018054611552906121fb565b80601f016020809104026020016040519081016040528092919081815260200182805461157e906121fb565b80156115cb5780601f106115a0576101008083540402835291602001916115cb565b820191906000526020600020905b8154815290600101906020018083116115ae57829003601f168201915b5050505050905088565b6000600460008473ffffffffffffffffffffffffffffffffffffffff1673ffffffffffffffffffffffffffffffffffffffff168152602001908152602001600020905060007fffffffffffffffffffffffffffffffffffffffffffffffffffffffffffffffff905060005b828054905081101561168c57838382815481106116605761165f61222c565b5b9060005260206000209060080201600001540361167f5780915061168c565b8080600101915050611640565b507fffffffffffffffffffffffffffffffffffffffffffffffffffffffffffffffff81036116ef576040517f08c379a00000000000000000000000000000000000000000000000000000000081526004016116e690612944565b60405180910390fd5b60008190505b600183805490506117069190612964565b811015611896578260018261171b9190612998565b8154811061172c5761172b61222c565b5b906000526020600020906008020183828154811061174d5761174c61222c565b5b9060005260206000209060080201600082015481600001556001820181600101908161177991906129e2565b506002820181600201908161178e91906129e2565b5060038201548160030155600482015481600401556005820160009054906101000a900473ffffffffffffffffffffffffffffffffffffffff168160050160006101000a81548173ffffffffffffffffffffffffffffffffffffffff021916908373ffffffffffffffffffffffffffffffffffffffff1602179055506006820160009054906101000a900473ffffffffffffffffffffffffffffffffffffffff168160060160006101000a81548173ffffffffffffffffffffffffffffffffffffffff021916908373ffffffffffffffffffffffffffffffffffffffff1602179055506007820181600701908161188591906129e2565b5090505080806001019150506116f5565b50818054806118a8576118a7612aca565b5b60019003818190600052602060002090600802016000808201600090556001820160006118d59190611a7a565b6002820160006118e59190611a7a565b600382016000905560048201600090556005820160006101000a81549073ffffffffffffffffffffffffffffffffffffffff02191690556006820160006101000a81549073ffffffffffffffffffffffffffffffffffffffff02191690556007820160006119539190611a7a565b50509055600660008481526020019081526020016000206000808201600090556001820160006119839190611a7a565b6002820160006119939190611a7a565b600382016000905560048201600090556005820160006101000a81549073ffffffffffffffffffffffffffffffffffffffff02191690556006820160006101000a81549073ffffffffffffffffffffffffffffffffffffffff0219169055600782016000611a019190611a7a565b505050505050565b6040518061010001604052806000815260200160608152602001606081526020016000815260200160008152602001600073ffffffffffffffffffffffffffffffffffffffff168152602001600073ffffffffffffffffffffffffffffffffffffffff168152602001606081525090565b508054611a86906121fb565b6000825580601f10611a985750611ab7565b601f016020900490600052602060002090810190611ab69190611aba565b5b50565b5b80821115611ad3576000816000905550600101611abb565b5090565b600081519050919050565b600082825260208201905092915050565b6000819050602082019050919050565b6000819050919050565b611b1681611b03565b82525050565b600081519050919050565b600082825260208201905092915050565b60005b83811015611b56578082015181840152602081019050611b3b565b60008484015250505050565b6000601f19601f8301169050919050565b6000611b7e82611b1c565b611b888185611b27565b9350611b98818560208601611b38565b611ba181611b62565b840191505092915050565b600073ffffffffffffffffffffffffffffffffffffffff82169050919050565b6000611bd782611bac565b9050919050565b611be781611bcc565b82525050565b600061010083016000830151611c066000860182611b0d565b5060208301518482036020860152611c1e8282611b73565b91505060408301518482036040860152611c388282611b73565b9150506060830151611c4d6060860182611b0d565b506080830151611c606080860182611b0d565b5060a0830151611c7360a0860182611bde565b5060c0830151611c8660c0860182611bde565b5060e083015184820360e0860152611c9e8282611b73565b9150508091505092915050565b6000611cb78383611bed565b905092915050565b6000602082019050919050565b6000611cd782611ad7565b611ce18185611ae2565b935083602082028501611cf385611af3565b8060005b85811015611d2f5784840389528151611d108582611cab565b9450611d1b83611cbf565b925060208a01995050600181019050611cf7565b50829750879550505050505092915050565b60006020820190508181036000830152611d5b8184611ccc565b905092915050565b6000604051905090565b600080fd5b600080fd5b611d8081611b03565b8114611d8b57600080fd5b50565b600081359050611d9d81611d77565b92915050565b600060208284031215611db957611db8611d6d565b5b6000611dc784828501611d8e565b91505092915050565b600082825260208201905092915050565b6000611dec82611b1c565b611df68185611dd0565b9350611e06818560208601611b38565b611e0f81611b62565b840191505092915050565b60006020820190508181036000830152611e348184611de1565b905092915050565b611e4581611bcc565b8114611e5057600080fd5b50565b600081359050611e6281611e3c565b92915050565b600080fd5b600080fd5b7f4e487b7100000000000000000000000000000000000000000000000000000000600052604160045260246000fd5b611eaa82611b62565b810181811067ffffffffffffffff82111715611ec957611ec8611e72565b5b80604052505050565b6000611edc611d63565b9050611ee88282611ea1565b919050565b600067ffffffffffffffff821115611f0857611f07611e72565b5b611f1182611b62565b9050602081019050919050565b82818337600083830152505050565b6000611f40611f3b84611eed565b611ed2565b905082815260208101848484011115611f5c57611f5b611e6d565b5b611f67848285611f1e565b509392505050565b600082601f830112611f8457611f83611e68565b5b8135611f94848260208601611f2d565b91505092915050565b600080600080600080600060e0888a031215611fbc57611fbb611d6d565b5b6000611fca8a828b01611e53565b975050602088013567ffffffffffffffff811115611feb57611fea611d72565b5b611ff78a828b01611f6f565b965050604088013567ffffffffffffffff81111561201857612017611d72565b5b6120248a828b01611f6f565b95505060606120358a828b01611d8e565b94505060806120468a828b01611d8e565b93505060a06120578a828b01611e53565b92505060c088013567ffffffffffffffff81111561207857612077611d72565b5b6120848a828b01611f6f565b91505092959891949750929550565b6000602082840312156120a9576120a8611d6d565b5b60006120b784828501611e53565b91505092915050565b600080604083850312156120d7576120d6611d6d565b5b60006120e585828601611e53565b92505060206120f685828601611d8e565b9150509250929050565b61210981611b03565b82525050565b60006020820190506121246000830184612100565b92915050565b61213381611bcc565b82525050565b60006101008201905061214f600083018b612100565b8181036020830152612161818a611de1565b905081810360408301526121758189611de1565b90506121846060830188612100565b6121916080830187612100565b61219e60a083018661212a565b6121ab60c083018561212a565b81810360e08301526121bd8184611de1565b90509998505050505050505050565b7f4e487b7100000000000000000000000000000000000000000000000000000000600052602260045260246000fd5b6000600282049050600182168061221357607f821691505b602082108103612226576122256121cc565b5b50919050565b7f4e487b7100000000000000000000000000000000000000000000000000000000600052603260045260246000fd5b7f436c756220616464726573732063616e6e6f74206265207a65726f0000000000600082015250565b6000612291601b83611dd0565b915061229c8261225b565b602082019050919050565b600060208201905081810360008301526122c081612284565b9050919050565b7f4576656e74206e616d652063616e6e6f7420626520656d707479000000000000600082015250565b60006122fd601a83611dd0565b9150612308826122c7565b602082019050919050565b6000602082019050818103600083015261232c816122f0565b9050919050565b7f4576656e742064617465206d75737420626520696e2074686520667574757265600082015250565b6000612369602083611dd0565b915061237482612333565b602082019050919050565b600060208201905081810360008301526123988161235c565b9050919050565b7f4e465420696d616765205552492063616e6e6f7420626520656d707479000000600082015250565b60006123d5601d83611dd0565b91506123e08261239f565b602082019050919050565b60006020820190508181036000830152612404816123c8565b9050919050565b60008190508160005260206000209050919050565b60006020601f8301049050919050565b600082821b905092915050565b60006008830261246d7fffffffffffffffffffffffffffffffffffffffffffffffffffffffffffffffff82612430565b6124778683612430565b95508019841693508086168417925050509392505050565b6000819050919050565b60006124b46124af6124aa84611b03565b61248f565b611b03565b9050919050565b6000819050919050565b6124ce83612499565b6124e26124da826124bb565b84845461243d565b825550505050565b600090565b6124f76124ea565b6125028184846124c5565b505050565b5b818110156125265761251b6000826124ef565b600181019050612508565b5050565b601f82111561256b5761253c8161240b565b61254584612420565b81016020851015612554578190505b61256861256085612420565b830182612507565b50505b505050565b600082821c905092915050565b600061258e60001984600802612570565b1980831691505092915050565b60006125a7838361257d565b9150826002028217905092915050565b6125c082611b1c565b67ffffffffffffffff8111156125d9576125d8611e72565b5b6125e382546121fb565b6125ee82828561252a565b600060209050601f831160018114612621576000841561260f578287015190505b612619858261259b565b865550612681565b601f19841661262f8661240b565b60005b8281101561265757848901518255600182019150602085019450602081019050612632565b868310156126745784890151612670601f89168261257d565b8355505b6001600288020188555050505b505050505050565b7f4e487b7100000000000000000000000000000000000000000000000000000000600052601160045260246000fd5b60006126c382611b03565b91507fffffffffffffffffffffffffffffffffffffffffffffffffffffffffffffffff82036126f5576126f4612689565b5b600182019050919050565b7f496e76616c6964207469636b6574204944000000000000000000000000000000600082015250565b6000612736601183611dd0565b915061274182612700565b602082019050919050565b6000602082019050818103600083015261276581612729565b9050919050565b7f496e73756666696369656e74207061796d656e74000000000000000000000000600082015250565b60006127a2601483611dd0565b91506127ad8261276c565b602082019050919050565b600060208201905081810360008301526127d181612795565b9050919050565b7f43616e6e6f7420627579207469636b657420666f722070617374206576656e74600082015250565b600061280e602083611dd0565b9150612819826127d8565b602082019050919050565b6000602082019050818103600083015261283d81612801565b9050919050565b60008154612851816121fb565b61285b8186611dd0565b94506001821660008114612876576001811461288c576128bf565b60ff1983168652811515602002860193506128bf565b6128958561240b565b60005b838110156128b757815481890152600182019150602081019050612898565b808801955050505b50505092915050565b60006040820190506128dd600083018561212a565b81810360208301526128ef8184612844565b90509392505050565b7f5469636b6574206e6f7420666f756e6400000000000000000000000000000000600082015250565b600061292e601083611dd0565b9150612939826128f8565b602082019050919050565b6000602082019050818103600083015261295d81612921565b9050919050565b600061296f82611b03565b915061297a83611b03565b925082820390508181111561299257612991612689565b5b92915050565b60006129a382611b03565b91506129ae83611b03565b92508282019050808211156129c6576129c5612689565b5b92915050565b6000815490506129db816121fb565b9050919050565b8181036129f0575050612ac8565b6129f9826129cc565b67ffffffffffffffff811115612a1257612a11611e72565b5b612a1c82546121fb565b612a2782828561252a565b6000601f831160018114612a565760008415612a44578287015490505b612a4e858261259b565b865550612ac1565b601f198416612a648761240b565b9650612a6f8661240b565b60005b82811015612a9757848901548255600182019150600185019450602081019050612a72565b86831015612ab45784890154612ab0601f89168261257d565b8355505b6001600288020188555050505b5050505050505b565b7f4e487b7100000000000000000000000000000000000000000000000000000000600052603160045260246000fdfea26469706673582212209b5c3a2ace21f2fa478a0545b1eede0d8eb22aa7422bd34e27762bd8f81778cd64736f6c634300081c00335468697320697320616e20696e697469616c206576656e7420666f722074657374696e6720707572706f7365732e68747470733a2f2f6578616d706c652e636f6d2f6d696c6573746f6e65322e6a736f6e68747470733a2f2f6578616d706c652e636f6d2f6d696c6573746f6e65312e6a736f6e68747470733a2f2f6578616d706c652e636f6d2f6d696c6573746f6e65342e6a736f6e68747470733a2f2f6578616d706c652e636f6d2f6d696c6573746f6e65332e6a736f6e",
  "linkReferences": {},
  "deployedLinkReferences": {}
}