{
  "_format": "hh-sol-artifact-1",
  "contractName": "Ticketing",
  "sourceName": "contracts/Ticketing.sol",
  "abi": [
    {
      "inputs": [],
      "stateMutability": "nonpayable",
      "type": "constructor"
    },
    {
      "inputs": [
        {
          "internalType": "address",
          "name": "sender",
          "type": "address"
        },
        {
          "internalType": "uint256",
          "name": "tokenId",
          "type": "uint256"
        },
        {
          "internalType": "address",
          "name": "owner",
          "type": "address"
        }
      ],
      "name": "ERC721IncorrectOwner",
      "type": "error"
    },
    {
      "inputs": [
        {
          "internalType": "address",
          "name": "operator",
          "type": "address"
        },
        {
          "internalType": "uint256",
          "name": "tokenId",
          "type": "uint256"
        }
      ],
      "name": "ERC721InsufficientApproval",
      "type": "error"
    },
    {
      "inputs": [
        {
          "internalType": "address",
          "name": "approver",
          "type": "address"
        }
      ],
      "name": "ERC721InvalidApprover",
      "type": "error"
    },
    {
      "inputs": [
        {
          "internalType": "address",
          "name": "operator",
          "type": "address"
        }
      ],
      "name": "ERC721InvalidOperator",
      "type": "error"
    },
    {
      "inputs": [
        {
          "internalType": "address",
          "name": "owner",
          "type": "address"
        }
      ],
      "name": "ERC721InvalidOwner",
      "type": "error"
    },
    {
      "inputs": [
        {
          "internalType": "address",
          "name": "receiver",
          "type": "address"
        }
      ],
      "name": "ERC721InvalidReceiver",
      "type": "error"
    },
    {
      "inputs": [
        {
          "internalType": "address",
          "name": "sender",
          "type": "address"
        }
      ],
      "name": "ERC721InvalidSender",
      "type": "error"
    },
    {
      "inputs": [
        {
          "internalType": "uint256",
          "name": "tokenId",
          "type": "uint256"
        }
      ],
      "name": "ERC721NonexistentToken",
      "type": "error"
    },
    {
      "anonymous": false,
      "inputs": [
        {
          "indexed": true,
          "internalType": "address",
          "name": "owner",
          "type": "address"
        },
        {
          "indexed": true,
          "internalType": "address",
          "name": "approved",
          "type": "address"
        },
        {
          "indexed": true,
          "internalType": "uint256",
          "name": "tokenId",
          "type": "uint256"
        }
      ],
      "name": "Approval",
      "type": "event"
    },
    {
      "anonymous": false,
      "inputs": [
        {
          "indexed": true,
          "internalType": "address",
          "name": "owner",
          "type": "address"
        },
        {
          "indexed": true,
          "internalType": "address",
          "name": "operator",
          "type": "address"
        },
        {
          "indexed": false,
          "internalType": "bool",
          "name": "approved",
          "type": "bool"
        }
      ],
      "name": "ApprovalForAll",
      "type": "event"
    },
    {
      "anonymous": false,
      "inputs": [
        {
          "indexed": false,
          "internalType": "uint256",
          "name": "_fromTokenId",
          "type": "uint256"
        },
        {
          "indexed": false,
          "internalType": "uint256",
          "name": "_toTokenId",
          "type": "uint256"
        }
      ],
      "name": "BatchMetadataUpdate",
      "type": "event"
    },
    {
      "anonymous": false,
      "inputs": [
        {
          "indexed": false,
          "internalType": "uint256",
          "name": "_tokenId",
          "type": "uint256"
        }
      ],
      "name": "MetadataUpdate",
      "type": "event"
    },
    {
      "anonymous": false,
      "inputs": [
        {
          "indexed": true,
          "internalType": "address",
          "name": "from",
          "type": "address"
        },
        {
          "indexed": true,
          "internalType": "address",
          "name": "to",
          "type": "address"
        },
        {
          "indexed": true,
          "internalType": "uint256",
          "name": "tokenId",
          "type": "uint256"
        }
      ],
      "name": "Transfer",
      "type": "event"
    },
    {
      "inputs": [
        {
          "internalType": "address",
          "name": "club",
          "type": "address"
        },
        {
          "internalType": "string",
          "name": "eventName",
          "type": "string"
        },
        {
          "internalType": "string",
          "name": "eventDescription",
          "type": "string"
        },
        {
          "internalType": "uint256",
          "name": "eventDate",
          "type": "uint256"
        },
        {
          "internalType": "uint256",
          "name": "price",
          "type": "uint256"
        },
        {
          "internalType": "address",
          "name": "nftContract",
          "type": "address"
        },
        {
          "internalType": "string",
          "name": "nftURI",
          "type": "string"
        }
      ],
      "name": "addTicketForSale",
      "outputs": [],
      "stateMutability": "nonpayable",
      "type": "function"
    },
    {
      "inputs": [
        {
          "internalType": "uint256",
          "name": "",
          "type": "uint256"
        }
      ],
      "name": "allTickets",
      "outputs": [
        {
          "internalType": "uint256",
          "name": "id",
          "type": "uint256"
        },
        {
          "internalType": "string",
          "name": "eventName",
          "type": "string"
        },
        {
          "internalType": "string",
          "name": "eventDescription",
          "type": "string"
        },
        {
          "internalType": "uint256",
          "name": "eventDate",
          "type": "uint256"
        },
        {
          "internalType": "uint256",
          "name": "price",
          "type": "uint256"
        },
        {
          "internalType": "address",
          "name": "owner",
          "type": "address"
        },
        {
          "internalType": "address",
          "name": "club",
          "type": "address"
        },
        {
          "internalType": "string",
          "name": "nftURI",
          "type": "string"
        }
      ],
      "stateMutability": "view",
      "type": "function"
    },
    {
      "inputs": [
        {
          "internalType": "address",
          "name": "to",
          "type": "address"
        },
        {
          "internalType": "uint256",
          "name": "tokenId",
          "type": "uint256"
        }
      ],
      "name": "approve",
      "outputs": [],
      "stateMutability": "nonpayable",
      "type": "function"
    },
    {
      "inputs": [
        {
          "internalType": "address",
          "name": "",
          "type": "address"
        }
      ],
      "name": "attendedEvents",
      "outputs": [
        {
          "internalType": "uint256",
          "name": "",
          "type": "uint256"
        }
      ],
      "stateMutability": "view",
      "type": "function"
    },
    {
      "inputs": [
        {
          "internalType": "address",
          "name": "owner",
          "type": "address"
        }
      ],
      "name": "balanceOf",
      "outputs": [
        {
          "internalType": "uint256",
          "name": "",
          "type": "uint256"
        }
      ],
      "stateMutability": "view",
      "type": "function"
    },
    {
      "inputs": [
        {
          "internalType": "uint256",
          "name": "tokenId",
          "type": "uint256"
        }
      ],
      "name": "burnNft",
      "outputs": [],
      "stateMutability": "nonpayable",
      "type": "function"
    },
    {
      "inputs": [
        {
          "internalType": "address",
          "name": "club",
          "type": "address"
        },
        {
          "internalType": "uint256",
          "name": "ticketId",
          "type": "uint256"
        }
      ],
      "name": "buyTicket",
      "outputs": [],
      "stateMutability": "payable",
      "type": "function"
    },
    {
      "inputs": [],
      "name": "getAllTickets",
      "outputs": [
        {
          "components": [
            {
              "internalType": "uint256",
              "name": "id",
              "type": "uint256"
            },
            {
              "internalType": "string",
              "name": "eventName",
              "type": "string"
            },
            {
              "internalType": "string",
              "name": "eventDescription",
              "type": "string"
            },
            {
              "internalType": "uint256",
              "name": "eventDate",
              "type": "uint256"
            },
            {
              "internalType": "uint256",
              "name": "price",
              "type": "uint256"
            },
            {
              "internalType": "address",
              "name": "owner",
              "type": "address"
            },
            {
              "internalType": "address",
              "name": "club",
              "type": "address"
            },
            {
              "internalType": "string",
              "name": "nftURI",
              "type": "string"
            }
          ],
          "internalType": "struct Ticketing.Ticket[]",
          "name": "",
          "type": "tuple[]"
        }
      ],
      "stateMutability": "view",
      "type": "function"
    },
    {
      "inputs": [
        {
          "internalType": "uint256",
          "name": "tokenId",
          "type": "uint256"
        }
      ],
      "name": "getApproved",
      "outputs": [
        {
          "internalType": "address",
          "name": "",
          "type": "address"
        }
      ],
      "stateMutability": "view",
      "type": "function"
    },
    {
      "inputs": [
        {
          "internalType": "address",
          "name": "club",
          "type": "address"
        }
      ],
      "name": "getTicketsForClub",
      "outputs": [
        {
          "components": [
            {
              "internalType": "uint256",
              "name": "id",
              "type": "uint256"
            },
            {
              "internalType": "string",
              "name": "eventName",
              "type": "string"
            },
            {
              "internalType": "string",
              "name": "eventDescription",
              "type": "string"
            },
            {
              "internalType": "uint256",
              "name": "eventDate",
              "type": "uint256"
            },
            {
              "internalType": "uint256",
              "name": "price",
              "type": "uint256"
            },
            {
              "internalType": "address",
              "name": "owner",
              "type": "address"
            },
            {
              "internalType": "address",
              "name": "club",
              "type": "address"
            },
            {
              "internalType": "string",
              "name": "nftURI",
              "type": "string"
            }
          ],
          "internalType": "struct Ticketing.Ticket[]",
          "name": "",
          "type": "tuple[]"
        }
      ],
      "stateMutability": "view",
      "type": "function"
    },
    {
      "inputs": [
        {
          "internalType": "address",
          "name": "owner",
          "type": "address"
        },
        {
          "internalType": "address",
          "name": "operator",
          "type": "address"
        }
      ],
      "name": "isApprovedForAll",
      "outputs": [
        {
          "internalType": "bool",
          "name": "",
          "type": "bool"
        }
      ],
      "stateMutability": "view",
      "type": "function"
    },
    {
      "inputs": [
        {
          "internalType": "uint256",
          "name": "",
          "type": "uint256"
        }
      ],
      "name": "milestoneNftURIs",
      "outputs": [
        {
          "internalType": "string",
          "name": "",
          "type": "string"
        }
      ],
      "stateMutability": "view",
      "type": "function"
    },
    {
      "inputs": [],
      "name": "name",
      "outputs": [
        {
          "internalType": "string",
          "name": "",
          "type": "string"
        }
      ],
      "stateMutability": "view",
      "type": "function"
    },
    {
      "inputs": [
        {
          "internalType": "uint256",
          "name": "tokenId",
          "type": "uint256"
        }
      ],
      "name": "ownerOf",
      "outputs": [
        {
          "internalType": "address",
          "name": "",
          "type": "address"
        }
      ],
      "stateMutability": "view",
      "type": "function"
    },
    {
      "inputs": [],
      "name": "realMadridWalletAddress",
      "outputs": [
        {
          "internalType": "address",
          "name": "",
          "type": "address"
        }
      ],
      "stateMutability": "view",
      "type": "function"
    },
    {
      "inputs": [
        {
          "internalType": "address",
          "name": "from",
          "type": "address"
        },
        {
          "internalType": "address",
          "name": "to",
          "type": "address"
        },
        {
          "internalType": "uint256",
          "name": "tokenId",
          "type": "uint256"
        }
      ],
      "name": "safeTransferFrom",
      "outputs": [],
      "stateMutability": "nonpayable",
      "type": "function"
    },
    {
      "inputs": [
        {
          "internalType": "address",
          "name": "from",
          "type": "address"
        },
        {
          "internalType": "address",
          "name": "to",
          "type": "address"
        },
        {
          "internalType": "uint256",
          "name": "tokenId",
          "type": "uint256"
        },
        {
          "internalType": "bytes",
          "name": "data",
          "type": "bytes"
        }
      ],
      "name": "safeTransferFrom",
      "outputs": [],
      "stateMutability": "nonpayable",
      "type": "function"
    },
    {
      "inputs": [
        {
          "internalType": "address",
          "name": "operator",
          "type": "address"
        },
        {
          "internalType": "bool",
          "name": "approved",
          "type": "bool"
        }
      ],
      "name": "setApprovalForAll",
      "outputs": [],
      "stateMutability": "nonpayable",
      "type": "function"
    },
    {
      "inputs": [
        {
          "internalType": "bytes4",
          "name": "interfaceId",
          "type": "bytes4"
        }
      ],
      "name": "supportsInterface",
      "outputs": [
        {
          "internalType": "bool",
          "name": "",
          "type": "bool"
        }
      ],
      "stateMutability": "view",
      "type": "function"
    },
    {
      "inputs": [],
      "name": "symbol",
      "outputs": [
        {
          "internalType": "string",
          "name": "",
          "type": "string"
        }
      ],
      "stateMutability": "view",
      "type": "function"
    },
    {
      "inputs": [
        {
          "internalType": "address",
          "name": "",
          "type": "address"
        },
        {
          "internalType": "uint256",
          "name": "",
          "type": "uint256"
        }
      ],
      "name": "ticketsInSale",
      "outputs": [
        {
          "internalType": "uint256",
          "name": "id",
          "type": "uint256"
        },
        {
          "internalType": "string",
          "name": "eventName",
          "type": "string"
        },
        {
          "internalType": "string",
          "name": "eventDescription",
          "type": "string"
        },
        {
          "internalType": "uint256",
          "name": "eventDate",
          "type": "uint256"
        },
        {
          "internalType": "uint256",
          "name": "price",
          "type": "uint256"
        },
        {
          "internalType": "address",
          "name": "owner",
          "type": "address"
        },
        {
          "internalType": "address",
          "name": "club",
          "type": "address"
        },
        {
          "internalType": "string",
          "name": "nftURI",
          "type": "string"
        }
      ],
      "stateMutability": "view",
      "type": "function"
    },
    {
      "inputs": [
        {
          "internalType": "uint256",
          "name": "tokenId",
          "type": "uint256"
        }
      ],
      "name": "tokenURI",
      "outputs": [
        {
          "internalType": "string",
          "name": "",
          "type": "string"
        }
      ],
      "stateMutability": "view",
      "type": "function"
    },
    {
      "inputs": [
        {
          "internalType": "address",
          "name": "from",
          "type": "address"
        },
        {
          "internalType": "address",
          "name": "to",
          "type": "address"
        },
        {
          "internalType": "uint256",
          "name": "tokenId",
          "type": "uint256"
        }
      ],
      "name": "transferFrom",
      "outputs": [],
      "stateMutability": "nonpayable",
      "type": "function"
    }
  ],
  "bytecode": "0x60806040527399c77ccef2121091f1033982bf940ea8587234b8600a60006101000a81548173ffffffffffffffffffffffffffffffffffffffff021916908373ffffffffffffffffffffffffffffffffffffffff16021790555034801561006557600080fd5b506040518060400160405280600b81526020017f4576656e745469636b65740000000000000000000000000000000000000000008152506040518060400160405280600381526020017f45544b000000000000000000000000000000000000000000000000000000000081525081600090816100e191906107e0565b5080600190816100f191906107e0565b5050506000600881905550600060098190555060405180606001604052806023815260200161521e602391396007600060018152602001908152602001600020908161013d91906107e0565b506040518060600160405280602381526020016151fb6023913960076000600a8152602001908152602001600020908161017791906107e0565b506040518060600160405280602381526020016152a660239139600760006032815260200190815260200160002090816101b191906107e0565b5060405180606001604052806023815260200161524160239139600760006064815260200190815260200160002090816101eb91906107e0565b506000604051806101000160405280600081526020016040518060400160405280600d81526020017f496e697469616c204576656e740000000000000000000000000000000000000081525081526020016040518060600160405280602e81526020016151cd602e91398152602001620151804261026991906108e1565b815260200164e8d4a510008152602001600073ffffffffffffffffffffffffffffffffffffffff168152602001600a60009054906101000a900473ffffffffffffffffffffffffffffffffffffffff1673ffffffffffffffffffffffffffffffffffffffff168152602001604051806080016040528060428152602001615264604291398152509050600b6000600a60009054906101000a900473ffffffffffffffffffffffffffffffffffffffff1673ffffffffffffffffffffffffffffffffffffffff1673ffffffffffffffffffffffffffffffffffffffff16815260200190815260200160002081908060018154018082558091505060019003906000526020600020906008020160009091909190915060008201518160000155602082015181600101908161039c91906107e0565b5060408201518160020190816103b291906107e0565b50606082015181600301556080820151816004015560a08201518160050160006101000a81548173ffffffffffffffffffffffffffffffffffffffff021916908373ffffffffffffffffffffffffffffffffffffffff16021790555060c08201518160060160006101000a81548173ffffffffffffffffffffffffffffffffffffffff021916908373ffffffffffffffffffffffffffffffffffffffff16021790555060e082015181600701908161046a91906107e0565b50505080600d60008081526020019081526020016000206000820151816000015560208201518160010190816104a091906107e0565b5060408201518160020190816104b691906107e0565b50606082015181600301556080820151816004015560a08201518160050160006101000a81548173ffffffffffffffffffffffffffffffffffffffff021916908373ffffffffffffffffffffffffffffffffffffffff16021790555060c08201518160060160006101000a81548173ffffffffffffffffffffffffffffffffffffffff021916908373ffffffffffffffffffffffffffffffffffffffff16021790555060e082015181600701908161056e91906107e0565b509050506008600081548092919061058590610915565b91905055505061095d565b600081519050919050565b7f4e487b7100000000000000000000000000000000000000000000000000000000600052604160045260246000fd5b7f4e487b7100000000000000000000000000000000000000000000000000000000600052602260045260246000fd5b6000600282049050600182168061061157607f821691505b602082108103610624576106236105ca565b5b50919050565b60008190508160005260206000209050919050565b60006020601f8301049050919050565b600082821b905092915050565b60006008830261068c7fffffffffffffffffffffffffffffffffffffffffffffffffffffffffffffffff8261064f565b610696868361064f565b95508019841693508086168417925050509392505050565b6000819050919050565b6000819050919050565b60006106dd6106d86106d3846106ae565b6106b8565b6106ae565b9050919050565b6000819050919050565b6106f7836106c2565b61070b610703826106e4565b84845461065c565b825550505050565b600090565b610720610713565b61072b8184846106ee565b505050565b5b8181101561074f57610744600082610718565b600181019050610731565b5050565b601f821115610794576107658161062a565b61076e8461063f565b8101602085101561077d578190505b6107916107898561063f565b830182610730565b50505b505050565b600082821c905092915050565b60006107b760001984600802610799565b1980831691505092915050565b60006107d083836107a6565b9150826002028217905092915050565b6107e982610590565b67ffffffffffffffff8111156108025761080161059b565b5b61080c82546105f9565b610817828285610753565b600060209050601f83116001811461084a5760008415610838578287015190505b61084285826107c4565b8655506108aa565b601f1984166108588661062a565b60005b828110156108805784890151825560018201915060208501945060208101905061085b565b8683101561089d5784890151610899601f8916826107a6565b8355505b6001600288020188555050505b505050505050565b7f4e487b7100000000000000000000000000000000000000000000000000000000600052601160045260246000fd5b60006108ec826106ae565b91506108f7836106ae565b925082820190508082111561090f5761090e6108b2565b5b92915050565b6000610920826106ae565b91507fffffffffffffffffffffffffffffffffffffffffffffffffffffffffffffffff8203610952576109516108b2565b5b600182019050919050565b6148618061096c6000396000f3fe6080604052600436106101405760003560e01c80635d277436116100b6578063a22cb4651161006f578063a22cb46514610485578063b88d4fde146104ae578063c87b56dd146104d7578063cba0f28714610514578063d0a753af14610558578063e985e9c51461059c57610140565b80635d2774361461034a5780636352211e1461038757806366a5ef2f146103c457806370a08231146103e057806382d3200d1461041d57806395d89b411461045a57610140565b8063095ea7b311610108578063095ea7b3146102525780630a5724151461027b5780630d04d6d7146102a457806323b872dd146102cf5780633d5efefe146102f857806342842e0e1461032157610140565b806301ffc9a71461014557806303e96fe31461018257806306fdde03146101ad57806307263c12146101d8578063081812fc14610215575b600080fd5b34801561015157600080fd5b5061016c6004803603810190610167919061345e565b6105d9565b60405161017991906134a6565b60405180910390f35b34801561018e57600080fd5b5061019761063a565b6040516101a4919061372b565b60405180910390f35b3480156101b957600080fd5b506101c2610975565b6040516101cf9190613797565b60405180910390f35b3480156101e457600080fd5b506101ff60048036038101906101fa91906137e5565b610a07565b60405161020c9190613797565b60405180910390f35b34801561022157600080fd5b5061023c600480360381019061023791906137e5565b610aa7565b6040516102499190613821565b60405180910390f35b34801561025e57600080fd5b5061027960048036038101906102749190613868565b610ac3565b005b34801561028757600080fd5b506102a2600480360381019061029d91906139dd565b610ad9565b005b3480156102b057600080fd5b506102b9610f35565b6040516102c69190613821565b60405180910390f35b3480156102db57600080fd5b506102f660048036038101906102f19190613ad3565b610f5b565b005b34801561030457600080fd5b5061031f600480360381019061031a91906137e5565b61105d565b005b34801561032d57600080fd5b5061034860048036038101906103439190613ad3565b611069565b005b34801561035657600080fd5b50610371600480360381019061036c9190613b26565b611089565b60405161037e919061372b565b60405180910390f35b34801561039357600080fd5b506103ae60048036038101906103a991906137e5565b6113a8565b6040516103bb9190613821565b60405180910390f35b6103de60048036038101906103d99190613868565b6113ba565b005b3480156103ec57600080fd5b5061040760048036038101906104029190613b26565b61176f565b6040516104149190613b62565b60405180910390f35b34801561042957600080fd5b50610444600480360381019061043f9190613b26565b611829565b6040516104519190613b62565b60405180910390f35b34801561046657600080fd5b5061046f611841565b60405161047c9190613797565b60405180910390f35b34801561049157600080fd5b506104ac60048036038101906104a79190613ba9565b6118d3565b005b3480156104ba57600080fd5b506104d560048036038101906104d09190613c8a565b6118e9565b005b3480156104e357600080fd5b506104fe60048036038101906104f991906137e5565b61190e565b60405161050b9190613797565b60405180910390f35b34801561052057600080fd5b5061053b60048036038101906105369190613868565b611a21565b60405161054f989796959493929190613d0d565b60405180910390f35b34801561056457600080fd5b5061057f600480360381019061057a91906137e5565b611c5e565b604051610593989796959493929190613d0d565b60405180910390f35b3480156105a857600080fd5b506105c360048036038101906105be9190613da0565b611e7e565b6040516105d091906134a6565b60405180910390f35b6000634906490660e01b7bffffffffffffffffffffffffffffffffffffffffffffffffffffffff1916827bffffffffffffffffffffffffffffffffffffffffffffffffffffffff19161480610633575061063282611f12565b5b9050919050565b6060600060085467ffffffffffffffff81111561065a576106596138b2565b5b60405190808252806020026020018201604052801561069357816020015b610680613324565b8152602001906001900390816106785790505b50905060005b60085481101561096d57600d600082815260200190815260200160002060405180610100016040529081600082015481526020016001820180546106dc90613e0f565b80601f016020809104026020016040519081016040528092919081815260200182805461070890613e0f565b80156107555780601f1061072a57610100808354040283529160200191610755565b820191906000526020600020905b81548152906001019060200180831161073857829003601f168201915b5050505050815260200160028201805461076e90613e0f565b80601f016020809104026020016040519081016040528092919081815260200182805461079a90613e0f565b80156107e75780601f106107bc576101008083540402835291602001916107e7565b820191906000526020600020905b8154815290600101906020018083116107ca57829003601f168201915b5050505050815260200160038201548152602001600482015481526020016005820160009054906101000a900473ffffffffffffffffffffffffffffffffffffffff1673ffffffffffffffffffffffffffffffffffffffff1673ffffffffffffffffffffffffffffffffffffffff1681526020016006820160009054906101000a900473ffffffffffffffffffffffffffffffffffffffff1673ffffffffffffffffffffffffffffffffffffffff1673ffffffffffffffffffffffffffffffffffffffff1681526020016007820180546108c090613e0f565b80601f01602080910402602001604051908101604052809291908181526020018280546108ec90613e0f565b80156109395780601f1061090e57610100808354040283529160200191610939565b820191906000526020600020905b81548152906001019060200180831161091c57829003601f168201915b50505050508152505082828151811061095557610954613e40565b5b60200260200101819052508080600101915050610699565b508091505090565b60606000805461098490613e0f565b80601f01602080910402602001604051908101604052809291908181526020018280546109b090613e0f565b80156109fd5780601f106109d2576101008083540402835291602001916109fd565b820191906000526020600020905b8154815290600101906020018083116109e057829003601f168201915b5050505050905090565b60076020528060005260406000206000915090508054610a2690613e0f565b80601f0160208091040260200160405190810160405280929190818152602001828054610a5290613e0f565b8015610a9f5780601f10610a7457610100808354040283529160200191610a9f565b820191906000526020600020905b815481529060010190602001808311610a8257829003601f168201915b505050505081565b6000610ab282611ff4565b50610abc8261207c565b9050919050565b610ad58282610ad06120b9565b6120c1565b5050565b600073ffffffffffffffffffffffffffffffffffffffff168773ffffffffffffffffffffffffffffffffffffffff1603610b48576040517f08c379a0000000000000000000000000000000000000000000000000000000008152600401610b3f90613ebb565b60405180910390fd5b6000865111610b8c576040517f08c379a0000000000000000000000000000000000000000000000000000000008152600401610b8390613f27565b60405180910390fd5b428411610bce576040517f08c379a0000000000000000000000000000000000000000000000000000000008152600401610bc590613f93565b60405180910390fd5b600073ffffffffffffffffffffffffffffffffffffffff168273ffffffffffffffffffffffffffffffffffffffff1614610c47576000815111610c46576040517f08c379a0000000000000000000000000000000000000000000000000000000008152600401610c3d90613fff565b60405180910390fd5b5b600060405180610100016040528060085481526020018881526020018781526020018681526020018581526020013373ffffffffffffffffffffffffffffffffffffffff1681526020018973ffffffffffffffffffffffffffffffffffffffff168152602001838152509050600b60008973ffffffffffffffffffffffffffffffffffffffff1673ffffffffffffffffffffffffffffffffffffffff168152602001908152602001600020819080600181540180825580915050600190039060005260206000209060080201600090919091909150600082015181600001556020820151816001019081610d3b91906141cb565b506040820151816002019081610d5191906141cb565b50606082015181600301556080820151816004015560a08201518160050160006101000a81548173ffffffffffffffffffffffffffffffffffffffff021916908373ffffffffffffffffffffffffffffffffffffffff16021790555060c08201518160060160006101000a81548173ffffffffffffffffffffffffffffffffffffffff021916908373ffffffffffffffffffffffffffffffffffffffff16021790555060e0820151816007019081610e0991906141cb565b50505080600d60006008548152602001908152602001600020600082015181600001556020820151816001019081610e4191906141cb565b506040820151816002019081610e5791906141cb565b50606082015181600301556080820151816004015560a08201518160050160006101000a81548173ffffffffffffffffffffffffffffffffffffffff021916908373ffffffffffffffffffffffffffffffffffffffff16021790555060c08201518160060160006101000a81548173ffffffffffffffffffffffffffffffffffffffff021916908373ffffffffffffffffffffffffffffffffffffffff16021790555060e0820151816007019081610f0f91906141cb565b5090505060086000815480929190610f26906142cc565b91905055505050505050505050565b600a60009054906101000a900473ffffffffffffffffffffffffffffffffffffffff1681565b600073ffffffffffffffffffffffffffffffffffffffff168273ffffffffffffffffffffffffffffffffffffffff1603610fcd5760006040517f64a0ae92000000000000000000000000000000000000000000000000000000008152600401610fc49190613821565b60405180910390fd5b6000610fe18383610fdc6120b9565b6120d3565b90508373ffffffffffffffffffffffffffffffffffffffff168173ffffffffffffffffffffffffffffffffffffffff1614611057578382826040517f64283d7b00000000000000000000000000000000000000000000000000000000815260040161104e93929190614314565b60405180910390fd5b50505050565b611066816122ed565b50565b611084838383604051806020016040528060008152506118e9565b505050565b6060600b60008373ffffffffffffffffffffffffffffffffffffffff1673ffffffffffffffffffffffffffffffffffffffff168152602001908152602001600020805480602002602001604051908101604052809291908181526020016000905b8282101561139d5783829060005260206000209060080201604051806101000160405290816000820154815260200160018201805461112890613e0f565b80601f016020809104026020016040519081016040528092919081815260200182805461115490613e0f565b80156111a15780601f10611176576101008083540402835291602001916111a1565b820191906000526020600020905b81548152906001019060200180831161118457829003601f168201915b505050505081526020016002820180546111ba90613e0f565b80601f01602080910402602001604051908101604052809291908181526020018280546111e690613e0f565b80156112335780601f1061120857610100808354040283529160200191611233565b820191906000526020600020905b81548152906001019060200180831161121657829003601f168201915b5050505050815260200160038201548152602001600482015481526020016005820160009054906101000a900473ffffffffffffffffffffffffffffffffffffffff1673ffffffffffffffffffffffffffffffffffffffff1673ffffffffffffffffffffffffffffffffffffffff1681526020016006820160009054906101000a900473ffffffffffffffffffffffffffffffffffffffff1673ffffffffffffffffffffffffffffffffffffffff1673ffffffffffffffffffffffffffffffffffffffff16815260200160078201805461130c90613e0f565b80601f016020809104026020016040519081016040528092919081815260200182805461133890613e0f565b80156113855780601f1061135a57610100808354040283529160200191611385565b820191906000526020600020905b81548152906001019060200180831161136857829003601f168201915b505050505081525050815260200190600101906110ea565b505050509050919050565b60006113b382611ff4565b9050919050565b60085481106113fe576040517f08c379a00000000000000000000000000000000000000000000000000000000081526004016113f590614397565b60405180910390fd5b6000600d60008381526020019081526020016000209050806004015434101561145c576040517f08c379a000000000000000000000000000000000000000000000000000000000815260040161145390614403565b60405180910390fd5b428160030154116114a2576040517f08c379a00000000000000000000000000000000000000000000000000000000081526004016114999061446f565b60405180910390fd5b338160050160006101000a81548173ffffffffffffffffffffffffffffffffffffffff021916908373ffffffffffffffffffffffffffffffffffffffff160217905550600c60003373ffffffffffffffffffffffffffffffffffffffff1673ffffffffffffffffffffffffffffffffffffffff1681526020019081526020016000206000815480929190611535906142cc565b9190505550600081600701805461154b90613e0f565b905011156115ea576115e93382600701805461156690613e0f565b80601f016020809104026020016040519081016040528092919081815260200182805461159290613e0f565b80156115df5780601f106115b4576101008083540402835291602001916115df565b820191906000526020600020905b8154815290600101906020018083116115c257829003601f168201915b5050505050612373565b5b8273ffffffffffffffffffffffffffffffffffffffff166108fc349081150290604051600060405180830381858888f19350505050158015611630573d6000803e3d6000fd5b5061163b83836123a7565b600060076000600c60003373ffffffffffffffffffffffffffffffffffffffff1673ffffffffffffffffffffffffffffffffffffffff168152602001908152602001600020548152602001908152602001600020805461169a90613e0f565b9050111561176a57611769600a60009054906101000a900473ffffffffffffffffffffffffffffffffffffffff166007600085815260200190815260200160002080546116e690613e0f565b80601f016020809104026020016040519081016040528092919081815260200182805461171290613e0f565b801561175f5780601f106117345761010080835404028352916020019161175f565b820191906000526020600020905b81548152906001019060200180831161174257829003601f168201915b5050505050612373565b5b505050565b60008073ffffffffffffffffffffffffffffffffffffffff168273ffffffffffffffffffffffffffffffffffffffff16036117e25760006040517f89c62b640000000000000000000000000000000000000000000000000000000081526004016117d99190613821565b60405180910390fd5b600360008373ffffffffffffffffffffffffffffffffffffffff1673ffffffffffffffffffffffffffffffffffffffff168152602001908152602001600020549050919050565b600c6020528060005260406000206000915090505481565b60606001805461185090613e0f565b80601f016020809104026020016040519081016040528092919081815260200182805461187c90613e0f565b80156118c95780601f1061189e576101008083540402835291602001916118c9565b820191906000526020600020905b8154815290600101906020018083116118ac57829003601f168201915b5050505050905090565b6118e56118de6120b9565b83836127db565b5050565b6118f4848484610f5b565b6119086118ff6120b9565b8585858561294a565b50505050565b606061191982611ff4565b50600060066000848152602001908152602001600020805461193a90613e0f565b80601f016020809104026020016040519081016040528092919081815260200182805461196690613e0f565b80156119b35780601f10611988576101008083540402835291602001916119b3565b820191906000526020600020905b81548152906001019060200180831161199657829003601f168201915b5050505050905060006119c4612afb565b905060008151036119d9578192505050611a1c565b600082511115611a0e5780826040516020016119f69291906144cb565b60405160208183030381529060405292505050611a1c565b611a1784612b12565b925050505b919050565b600b6020528160005260406000208181548110611a3d57600080fd5b906000526020600020906008020160009150915050806000015490806001018054611a6790613e0f565b80601f0160208091040260200160405190810160405280929190818152602001828054611a9390613e0f565b8015611ae05780601f10611ab557610100808354040283529160200191611ae0565b820191906000526020600020905b815481529060010190602001808311611ac357829003601f168201915b505050505090806002018054611af590613e0f565b80601f0160208091040260200160405190810160405280929190818152602001828054611b2190613e0f565b8015611b6e5780601f10611b4357610100808354040283529160200191611b6e565b820191906000526020600020905b815481529060010190602001808311611b5157829003601f168201915b5050505050908060030154908060040154908060050160009054906101000a900473ffffffffffffffffffffffffffffffffffffffff16908060060160009054906101000a900473ffffffffffffffffffffffffffffffffffffffff1690806007018054611bdb90613e0f565b80601f0160208091040260200160405190810160405280929190818152602001828054611c0790613e0f565b8015611c545780601f10611c2957610100808354040283529160200191611c54565b820191906000526020600020905b815481529060010190602001808311611c3757829003601f168201915b5050505050905088565b600d602052806000526040600020600091509050806000015490806001018054611c8790613e0f565b80601f0160208091040260200160405190810160405280929190818152602001828054611cb390613e0f565b8015611d005780601f10611cd557610100808354040283529160200191611d00565b820191906000526020600020905b815481529060010190602001808311611ce357829003601f168201915b505050505090806002018054611d1590613e0f565b80601f0160208091040260200160405190810160405280929190818152602001828054611d4190613e0f565b8015611d8e5780601f10611d6357610100808354040283529160200191611d8e565b820191906000526020600020905b815481529060010190602001808311611d7157829003601f168201915b5050505050908060030154908060040154908060050160009054906101000a900473ffffffffffffffffffffffffffffffffffffffff16908060060160009054906101000a900473ffffffffffffffffffffffffffffffffffffffff1690806007018054611dfb90613e0f565b80601f0160208091040260200160405190810160405280929190818152602001828054611e2790613e0f565b8015611e745780601f10611e4957610100808354040283529160200191611e74565b820191906000526020600020905b815481529060010190602001808311611e5757829003601f168201915b5050505050905088565b6000600560008473ffffffffffffffffffffffffffffffffffffffff1673ffffffffffffffffffffffffffffffffffffffff16815260200190815260200160002060008373ffffffffffffffffffffffffffffffffffffffff1673ffffffffffffffffffffffffffffffffffffffff16815260200190815260200160002060009054906101000a900460ff16905092915050565b60007f80ac58cd000000000000000000000000000000000000000000000000000000007bffffffffffffffffffffffffffffffffffffffffffffffffffffffff1916827bffffffffffffffffffffffffffffffffffffffffffffffffffffffff19161480611fdd57507f5b5e139f000000000000000000000000000000000000000000000000000000007bffffffffffffffffffffffffffffffffffffffffffffffffffffffff1916827bffffffffffffffffffffffffffffffffffffffffffffffffffffffff1916145b80611fed5750611fec82612b7b565b5b9050919050565b60008061200083612be5565b9050600073ffffffffffffffffffffffffffffffffffffffff168173ffffffffffffffffffffffffffffffffffffffff160361207357826040517f7e27328900000000000000000000000000000000000000000000000000000000815260040161206a9190613b62565b60405180910390fd5b80915050919050565b60006004600083815260200190815260200160002060009054906101000a900473ffffffffffffffffffffffffffffffffffffffff169050919050565b600033905090565b6120ce8383836001612c22565b505050565b6000806120df84612be5565b9050600073ffffffffffffffffffffffffffffffffffffffff168373ffffffffffffffffffffffffffffffffffffffff161461212157612120818486612de7565b5b600073ffffffffffffffffffffffffffffffffffffffff168173ffffffffffffffffffffffffffffffffffffffff16146121b257612163600085600080612c22565b6001600360008373ffffffffffffffffffffffffffffffffffffffff1673ffffffffffffffffffffffffffffffffffffffff168152602001908152602001600020600082825403925050819055505b600073ffffffffffffffffffffffffffffffffffffffff168573ffffffffffffffffffffffffffffffffffffffff1614612235576001600360008773ffffffffffffffffffffffffffffffffffffffff1673ffffffffffffffffffffffffffffffffffffffff168152602001908152602001600020600082825401925050819055505b846002600086815260200190815260200160002060006101000a81548173ffffffffffffffffffffffffffffffffffffffff021916908373ffffffffffffffffffffffffffffffffffffffff160217905550838573ffffffffffffffffffffffffffffffffffffffff168273ffffffffffffffffffffffffffffffffffffffff167fddf252ad1be2c89b69c2b068fc378daa952ba7f163c4a11628f55a4df523b3ef60405160405180910390a4809150509392505050565b60006122fc60008360006120d3565b9050600073ffffffffffffffffffffffffffffffffffffffff168173ffffffffffffffffffffffffffffffffffffffff160361236f57816040517f7e2732890000000000000000000000000000000000000000000000000000000081526004016123669190613b62565b60405180910390fd5b5050565b61237f82600954612eab565b61238b60095482612ec9565b6009600081548092919061239e906142cc565b91905055505050565b6000600b60008473ffffffffffffffffffffffffffffffffffffffff1673ffffffffffffffffffffffffffffffffffffffff168152602001908152602001600020905060007fffffffffffffffffffffffffffffffffffffffffffffffffffffffffffffffff905060005b828054905081101561245e578383828154811061243257612431613e40565b5b906000526020600020906008020160000154036124515780915061245e565b8080600101915050612412565b507fffffffffffffffffffffffffffffffffffffffffffffffffffffffffffffffff81036124c1576040517f08c379a00000000000000000000000000000000000000000000000000000000081526004016124b89061453b565b60405180910390fd5b60008190505b600183805490506124d8919061455b565b81101561266857826001826124ed919061458f565b815481106124fe576124fd613e40565b5b906000526020600020906008020183828154811061251f5761251e613e40565b5b9060005260206000209060080201600082015481600001556001820181600101908161254b91906145d9565b506002820181600201908161256091906145d9565b5060038201548160030155600482015481600401556005820160009054906101000a900473ffffffffffffffffffffffffffffffffffffffff168160050160006101000a81548173ffffffffffffffffffffffffffffffffffffffff021916908373ffffffffffffffffffffffffffffffffffffffff1602179055506006820160009054906101000a900473ffffffffffffffffffffffffffffffffffffffff168160060160006101000a81548173ffffffffffffffffffffffffffffffffffffffff021916908373ffffffffffffffffffffffffffffffffffffffff1602179055506007820181600701908161265791906145d9565b5090505080806001019150506124c7565b508180548061267a576126796146c1565b5b60019003818190600052602060002090600802016000808201600090556001820160006126a79190613395565b6002820160006126b79190613395565b600382016000905560048201600090556005820160006101000a81549073ffffffffffffffffffffffffffffffffffffffff02191690556006820160006101000a81549073ffffffffffffffffffffffffffffffffffffffff02191690556007820160006127259190613395565b50509055600d60008481526020019081526020016000206000808201600090556001820160006127559190613395565b6002820160006127659190613395565b600382016000905560048201600090556005820160006101000a81549073ffffffffffffffffffffffffffffffffffffffff02191690556006820160006101000a81549073ffffffffffffffffffffffffffffffffffffffff02191690556007820160006127d39190613395565b505050505050565b600073ffffffffffffffffffffffffffffffffffffffff168273ffffffffffffffffffffffffffffffffffffffff160361284c57816040517f5b08ba180000000000000000000000000000000000000000000000000000000081526004016128439190613821565b60405180910390fd5b80600560008573ffffffffffffffffffffffffffffffffffffffff1673ffffffffffffffffffffffffffffffffffffffff16815260200190815260200160002060008473ffffffffffffffffffffffffffffffffffffffff1673ffffffffffffffffffffffffffffffffffffffff16815260200190815260200160002060006101000a81548160ff0219169083151502179055508173ffffffffffffffffffffffffffffffffffffffff168373ffffffffffffffffffffffffffffffffffffffff167f17307eab39ab6107e8899845ad3d59bd9653f200f220920489ca2b5937696c318360405161293d91906134a6565b60405180910390a3505050565b60008373ffffffffffffffffffffffffffffffffffffffff163b1115612af4578273ffffffffffffffffffffffffffffffffffffffff1663150b7a02868685856040518563ffffffff1660e01b81526004016129a99493929190614745565b6020604051808303816000875af19250505080156129e557506040513d601f19601f820116820180604052508101906129e291906147a6565b60015b612a69573d8060008114612a15576040519150601f19603f3d011682016040523d82523d6000602084013e612a1a565b606091505b506000815103612a6157836040517f64a0ae92000000000000000000000000000000000000000000000000000000008152600401612a589190613821565b60405180910390fd5b805181602001fd5b63150b7a0260e01b7bffffffffffffffffffffffffffffffffffffffffffffffffffffffff1916817bffffffffffffffffffffffffffffffffffffffffffffffffffffffff191614612af257836040517f64a0ae92000000000000000000000000000000000000000000000000000000008152600401612ae99190613821565b60405180910390fd5b505b5050505050565b606060405180602001604052806000815250905090565b6060612b1d82611ff4565b506000612b28612afb565b90506000815111612b485760405180602001604052806000815250612b73565b80612b5284612f25565b604051602001612b639291906144cb565b6040516020818303038152906040525b915050919050565b60007f01ffc9a7000000000000000000000000000000000000000000000000000000007bffffffffffffffffffffffffffffffffffffffffffffffffffffffff1916827bffffffffffffffffffffffffffffffffffffffffffffffffffffffff1916149050919050565b60006002600083815260200190815260200160002060009054906101000a900473ffffffffffffffffffffffffffffffffffffffff169050919050565b8080612c5b5750600073ffffffffffffffffffffffffffffffffffffffff168273ffffffffffffffffffffffffffffffffffffffff1614155b15612d8f576000612c6b84611ff4565b9050600073ffffffffffffffffffffffffffffffffffffffff168373ffffffffffffffffffffffffffffffffffffffff1614158015612cd657508273ffffffffffffffffffffffffffffffffffffffff168173ffffffffffffffffffffffffffffffffffffffff1614155b8015612ce95750612ce78184611e7e565b155b15612d2b57826040517fa9fbf51f000000000000000000000000000000000000000000000000000000008152600401612d229190613821565b60405180910390fd5b8115612d8d57838573ffffffffffffffffffffffffffffffffffffffff168273ffffffffffffffffffffffffffffffffffffffff167f8c5be1e5ebec7d5bd14f71427d1e84f3dd0314c0f7b2291e5b200ac8c7c3b92560405160405180910390a45b505b836004600085815260200190815260200160002060006101000a81548173ffffffffffffffffffffffffffffffffffffffff021916908373ffffffffffffffffffffffffffffffffffffffff16021790555050505050565b612df2838383612ff3565b612ea657600073ffffffffffffffffffffffffffffffffffffffff168373ffffffffffffffffffffffffffffffffffffffff1603612e6757806040517f7e273289000000000000000000000000000000000000000000000000000000008152600401612e5e9190613b62565b60405180910390fd5b81816040517f177e802f000000000000000000000000000000000000000000000000000000008152600401612e9d9291906147d3565b60405180910390fd5b505050565b612ec58282604051806020016040528060008152506130b4565b5050565b80600660008481526020019081526020016000209081612ee991906141cb565b507ff8e1a15aba9398e019f0b49df1a4fde98ee17ae345cb5f6b5e2c27f5033e8ce782604051612f199190613b62565b60405180910390a15050565b606060006001612f34846130d8565b01905060008167ffffffffffffffff811115612f5357612f526138b2565b5b6040519080825280601f01601f191660200182016040528015612f855781602001600182028036833780820191505090505b509050600082602001820190505b600115612fe8578080600190039150507f3031323334353637383961626364656600000000000000000000000000000000600a86061a8153600a8581612fdc57612fdb6147fc565b5b04945060008503612f93575b819350505050919050565b60008073ffffffffffffffffffffffffffffffffffffffff168373ffffffffffffffffffffffffffffffffffffffff16141580156130ab57508273ffffffffffffffffffffffffffffffffffffffff168473ffffffffffffffffffffffffffffffffffffffff16148061306c575061306b8484611e7e565b5b806130aa57508273ffffffffffffffffffffffffffffffffffffffff166130928361207c565b73ffffffffffffffffffffffffffffffffffffffff16145b5b90509392505050565b6130be838361322b565b6130d36130c96120b9565b600085858561294a565b505050565b600080600090507a184f03e93ff9f4daa797ed6e38ed64bf6a1f0100000000000000008310613136577a184f03e93ff9f4daa797ed6e38ed64bf6a1f010000000000000000838161312c5761312b6147fc565b5b0492506040810190505b6d04ee2d6d415b85acef81000000008310613173576d04ee2d6d415b85acef81000000008381613169576131686147fc565b5b0492506020810190505b662386f26fc1000083106131a257662386f26fc100008381613198576131976147fc565b5b0492506010810190505b6305f5e10083106131cb576305f5e10083816131c1576131c06147fc565b5b0492506008810190505b61271083106131f05761271083816131e6576131e56147fc565b5b0492506004810190505b606483106132135760648381613209576132086147fc565b5b0492506002810190505b600a8310613222576001810190505b80915050919050565b600073ffffffffffffffffffffffffffffffffffffffff168273ffffffffffffffffffffffffffffffffffffffff160361329d5760006040517f64a0ae920000000000000000000000000000000000000000000000000000000081526004016132949190613821565b60405180910390fd5b60006132ab838360006120d3565b9050600073ffffffffffffffffffffffffffffffffffffffff168173ffffffffffffffffffffffffffffffffffffffff161461331f5760006040517f73c6ac6e0000000000000000000000000000000000000000000000000000000081526004016133169190613821565b60405180910390fd5b505050565b6040518061010001604052806000815260200160608152602001606081526020016000815260200160008152602001600073ffffffffffffffffffffffffffffffffffffffff168152602001600073ffffffffffffffffffffffffffffffffffffffff168152602001606081525090565b5080546133a190613e0f565b6000825580601f106133b357506133d2565b601f0160209004906000526020600020908101906133d191906133d5565b5b50565b5b808211156133ee5760008160009055506001016133d6565b5090565b6000604051905090565b600080fd5b600080fd5b60007fffffffff0000000000000000000000000000000000000000000000000000000082169050919050565b61343b81613406565b811461344657600080fd5b50565b60008135905061345881613432565b92915050565b600060208284031215613474576134736133fc565b5b600061348284828501613449565b91505092915050565b60008115159050919050565b6134a08161348b565b82525050565b60006020820190506134bb6000830184613497565b92915050565b600081519050919050565b600082825260208201905092915050565b6000819050602082019050919050565b6000819050919050565b613500816134ed565b82525050565b600081519050919050565b600082825260208201905092915050565b60005b83811015613540578082015181840152602081019050613525565b60008484015250505050565b6000601f19601f8301169050919050565b600061356882613506565b6135728185613511565b9350613582818560208601613522565b61358b8161354c565b840191505092915050565b600073ffffffffffffffffffffffffffffffffffffffff82169050919050565b60006135c182613596565b9050919050565b6135d1816135b6565b82525050565b6000610100830160008301516135f060008601826134f7565b5060208301518482036020860152613608828261355d565b91505060408301518482036040860152613622828261355d565b915050606083015161363760608601826134f7565b50608083015161364a60808601826134f7565b5060a083015161365d60a08601826135c8565b5060c083015161367060c08601826135c8565b5060e083015184820360e0860152613688828261355d565b9150508091505092915050565b60006136a183836135d7565b905092915050565b6000602082019050919050565b60006136c1826134c1565b6136cb81856134cc565b9350836020820285016136dd856134dd565b8060005b8581101561371957848403895281516136fa8582613695565b9450613705836136a9565b925060208a019950506001810190506136e1565b50829750879550505050505092915050565b6000602082019050818103600083015261374581846136b6565b905092915050565b600082825260208201905092915050565b600061376982613506565b613773818561374d565b9350613783818560208601613522565b61378c8161354c565b840191505092915050565b600060208201905081810360008301526137b1818461375e565b905092915050565b6137c2816134ed565b81146137cd57600080fd5b50565b6000813590506137df816137b9565b92915050565b6000602082840312156137fb576137fa6133fc565b5b6000613809848285016137d0565b91505092915050565b61381b816135b6565b82525050565b60006020820190506138366000830184613812565b92915050565b613845816135b6565b811461385057600080fd5b50565b6000813590506138628161383c565b92915050565b6000806040838503121561387f5761387e6133fc565b5b600061388d85828601613853565b925050602061389e858286016137d0565b9150509250929050565b600080fd5b600080fd5b7f4e487b7100000000000000000000000000000000000000000000000000000000600052604160045260246000fd5b6138ea8261354c565b810181811067ffffffffffffffff82111715613909576139086138b2565b5b80604052505050565b600061391c6133f2565b905061392882826138e1565b919050565b600067ffffffffffffffff821115613948576139476138b2565b5b6139518261354c565b9050602081019050919050565b82818337600083830152505050565b600061398061397b8461392d565b613912565b90508281526020810184848401111561399c5761399b6138ad565b5b6139a784828561395e565b509392505050565b600082601f8301126139c4576139c36138a8565b5b81356139d484826020860161396d565b91505092915050565b600080600080600080600060e0888a0312156139fc576139fb6133fc565b5b6000613a0a8a828b01613853565b975050602088013567ffffffffffffffff811115613a2b57613a2a613401565b5b613a378a828b016139af565b965050604088013567ffffffffffffffff811115613a5857613a57613401565b5b613a648a828b016139af565b9550506060613a758a828b016137d0565b9450506080613a868a828b016137d0565b93505060a0613a978a828b01613853565b92505060c088013567ffffffffffffffff811115613ab857613ab7613401565b5b613ac48a828b016139af565b91505092959891949750929550565b600080600060608486031215613aec57613aeb6133fc565b5b6000613afa86828701613853565b9350506020613b0b86828701613853565b9250506040613b1c868287016137d0565b9150509250925092565b600060208284031215613b3c57613b3b6133fc565b5b6000613b4a84828501613853565b91505092915050565b613b5c816134ed565b82525050565b6000602082019050613b776000830184613b53565b92915050565b613b868161348b565b8114613b9157600080fd5b50565b600081359050613ba381613b7d565b92915050565b60008060408385031215613bc057613bbf6133fc565b5b6000613bce85828601613853565b9250506020613bdf85828601613b94565b9150509250929050565b600067ffffffffffffffff821115613c0457613c036138b2565b5b613c0d8261354c565b9050602081019050919050565b6000613c2d613c2884613be9565b613912565b905082815260208101848484011115613c4957613c486138ad565b5b613c5484828561395e565b509392505050565b600082601f830112613c7157613c706138a8565b5b8135613c81848260208601613c1a565b91505092915050565b60008060008060808587031215613ca457613ca36133fc565b5b6000613cb287828801613853565b9450506020613cc387828801613853565b9350506040613cd4878288016137d0565b925050606085013567ffffffffffffffff811115613cf557613cf4613401565b5b613d0187828801613c5c565b91505092959194509250565b600061010082019050613d23600083018b613b53565b8181036020830152613d35818a61375e565b90508181036040830152613d49818961375e565b9050613d586060830188613b53565b613d656080830187613b53565b613d7260a0830186613812565b613d7f60c0830185613812565b81810360e0830152613d91818461375e565b90509998505050505050505050565b60008060408385031215613db757613db66133fc565b5b6000613dc585828601613853565b9250506020613dd685828601613853565b9150509250929050565b7f4e487b7100000000000000000000000000000000000000000000000000000000600052602260045260246000fd5b60006002820490506001821680613e2757607f821691505b602082108103613e3a57613e39613de0565b5b50919050565b7f4e487b7100000000000000000000000000000000000000000000000000000000600052603260045260246000fd5b7f436c756220616464726573732063616e6e6f74206265207a65726f0000000000600082015250565b6000613ea5601b8361374d565b9150613eb082613e6f565b602082019050919050565b60006020820190508181036000830152613ed481613e98565b9050919050565b7f4576656e74206e616d652063616e6e6f7420626520656d707479000000000000600082015250565b6000613f11601a8361374d565b9150613f1c82613edb565b602082019050919050565b60006020820190508181036000830152613f4081613f04565b9050919050565b7f4576656e742064617465206d75737420626520696e2074686520667574757265600082015250565b6000613f7d60208361374d565b9150613f8882613f47565b602082019050919050565b60006020820190508181036000830152613fac81613f70565b9050919050565b7f4e465420696d616765205552492063616e6e6f7420626520656d707479000000600082015250565b6000613fe9601d8361374d565b9150613ff482613fb3565b602082019050919050565b6000602082019050818103600083015261401881613fdc565b9050919050565b60008190508160005260206000209050919050565b60006020601f8301049050919050565b600082821b905092915050565b6000600883026140817fffffffffffffffffffffffffffffffffffffffffffffffffffffffffffffffff82614044565b61408b8683614044565b95508019841693508086168417925050509392505050565b6000819050919050565b60006140c86140c36140be846134ed565b6140a3565b6134ed565b9050919050565b6000819050919050565b6140e2836140ad565b6140f66140ee826140cf565b848454614051565b825550505050565b600090565b61410b6140fe565b6141168184846140d9565b505050565b5b8181101561413a5761412f600082614103565b60018101905061411c565b5050565b601f82111561417f576141508161401f565b61415984614034565b81016020851015614168578190505b61417c61417485614034565b83018261411b565b50505b505050565b600082821c905092915050565b60006141a260001984600802614184565b1980831691505092915050565b60006141bb8383614191565b9150826002028217905092915050565b6141d482613506565b67ffffffffffffffff8111156141ed576141ec6138b2565b5b6141f78254613e0f565b61420282828561413e565b600060209050601f8311600181146142355760008415614223578287015190505b61422d85826141af565b865550614295565b601f1984166142438661401f565b60005b8281101561426b57848901518255600182019150602085019450602081019050614246565b868310156142885784890151614284601f891682614191565b8355505b6001600288020188555050505b505050505050565b7f4e487b7100000000000000000000000000000000000000000000000000000000600052601160045260246000fd5b60006142d7826134ed565b91507fffffffffffffffffffffffffffffffffffffffffffffffffffffffffffffffff82036143095761430861429d565b5b600182019050919050565b60006060820190506143296000830186613812565b6143366020830185613b53565b6143436040830184613812565b949350505050565b7f496e76616c6964207469636b6574204944000000000000000000000000000000600082015250565b600061438160118361374d565b915061438c8261434b565b602082019050919050565b600060208201905081810360008301526143b081614374565b9050919050565b7f496e73756666696369656e74207061796d656e74000000000000000000000000600082015250565b60006143ed60148361374d565b91506143f8826143b7565b602082019050919050565b6000602082019050818103600083015261441c816143e0565b9050919050565b7f43616e6e6f7420627579207469636b657420666f722070617374206576656e74600082015250565b600061445960208361374d565b915061446482614423565b602082019050919050565b600060208201905081810360008301526144888161444c565b9050919050565b600081905092915050565b60006144a582613506565b6144af818561448f565b93506144bf818560208601613522565b80840191505092915050565b60006144d7828561449a565b91506144e3828461449a565b91508190509392505050565b7f5469636b6574206e6f7420666f756e6400000000000000000000000000000000600082015250565b600061452560108361374d565b9150614530826144ef565b602082019050919050565b6000602082019050818103600083015261455481614518565b9050919050565b6000614566826134ed565b9150614571836134ed565b92508282039050818111156145895761458861429d565b5b92915050565b600061459a826134ed565b91506145a5836134ed565b92508282019050808211156145bd576145bc61429d565b5b92915050565b6000815490506145d281613e0f565b9050919050565b8181036145e75750506146bf565b6145f0826145c3565b67ffffffffffffffff811115614609576146086138b2565b5b6146138254613e0f565b61461e82828561413e565b6000601f83116001811461464d576000841561463b578287015490505b61464585826141af565b8655506146b8565b601f19841661465b8761401f565b96506146668661401f565b60005b8281101561468e57848901548255600182019150600185019450602081019050614669565b868310156146ab57848901546146a7601f891682614191565b8355505b6001600288020188555050505b5050505050505b565b7f4e487b7100000000000000000000000000000000000000000000000000000000600052603160045260246000fd5b600081519050919050565b600082825260208201905092915050565b6000614717826146f0565b61472181856146fb565b9350614731818560208601613522565b61473a8161354c565b840191505092915050565b600060808201905061475a6000830187613812565b6147676020830186613812565b6147746040830185613b53565b8181036060830152614786818461470c565b905095945050505050565b6000815190506147a081613432565b92915050565b6000602082840312156147bc576147bb6133fc565b5b60006147ca84828501614791565b91505092915050565b60006040820190506147e86000830185613812565b6147f56020830184613b53565b9392505050565b7f4e487b7100000000000000000000000000000000000000000000000000000000600052601260045260246000fdfea2646970667358221220595799e7377107607b49bfa2d69c92de10f9cc3f096e2f1a594839eac5b86de864736f6c634300081c00335468697320697320616e20696e697469616c206576656e7420666f722074657374696e6720707572706f7365732e68747470733a2f2f6578616d706c652e636f6d2f6d696c6573746f6e65322e6a736f6e68747470733a2f2f6578616d706c652e636f6d2f6d696c6573746f6e65312e6a736f6e68747470733a2f2f6578616d706c652e636f6d2f6d696c6573746f6e65342e6a736f6e697066733a2f2f6261666b72656962346632326e616b64723261776b337363776136646b753233786f6b78647a637a6f66347478633669697a7868776e346b78327968747470733a2f2f6578616d706c652e636f6d2f6d696c6573746f6e65332e6a736f6e",
  "linkReferences": {},
  "deployedLinkReferences": {}
}