{
  "_format": "hh-sol-artifact-1",
  "contractName": "Ticketing",
  "sourceName": "contracts/Ticketing.sol",
  "abi": [
    {
      "inputs": [],
      "stateMutability": "nonpayable",
      "type": "constructor"
    },
    {
      "inputs": [
        {
          "internalType": "address",
          "name": "sender",
          "type": "address"
        },
        {
          "internalType": "uint256",
          "name": "tokenId",
          "type": "uint256"
        },
        {
          "internalType": "address",
          "name": "owner",
          "type": "address"
        }
      ],
      "name": "ERC721IncorrectOwner",
      "type": "error"
    },
    {
      "inputs": [
        {
          "internalType": "address",
          "name": "operator",
          "type": "address"
        },
        {
          "internalType": "uint256",
          "name": "tokenId",
          "type": "uint256"
        }
      ],
      "name": "ERC721InsufficientApproval",
      "type": "error"
    },
    {
      "inputs": [
        {
          "internalType": "address",
          "name": "approver",
          "type": "address"
        }
      ],
      "name": "ERC721InvalidApprover",
      "type": "error"
    },
    {
      "inputs": [
        {
          "internalType": "address",
          "name": "operator",
          "type": "address"
        }
      ],
      "name": "ERC721InvalidOperator",
      "type": "error"
    },
    {
      "inputs": [
        {
          "internalType": "address",
          "name": "owner",
          "type": "address"
        }
      ],
      "name": "ERC721InvalidOwner",
      "type": "error"
    },
    {
      "inputs": [
        {
          "internalType": "address",
          "name": "receiver",
          "type": "address"
        }
      ],
      "name": "ERC721InvalidReceiver",
      "type": "error"
    },
    {
      "inputs": [
        {
          "internalType": "address",
          "name": "sender",
          "type": "address"
        }
      ],
      "name": "ERC721InvalidSender",
      "type": "error"
    },
    {
      "inputs": [
        {
          "internalType": "uint256",
          "name": "tokenId",
          "type": "uint256"
        }
      ],
      "name": "ERC721NonexistentToken",
      "type": "error"
    },
    {
      "anonymous": false,
      "inputs": [
        {
          "indexed": true,
          "internalType": "address",
          "name": "owner",
          "type": "address"
        },
        {
          "indexed": true,
          "internalType": "address",
          "name": "approved",
          "type": "address"
        },
        {
          "indexed": true,
          "internalType": "uint256",
          "name": "tokenId",
          "type": "uint256"
        }
      ],
      "name": "Approval",
      "type": "event"
    },
    {
      "anonymous": false,
      "inputs": [
        {
          "indexed": true,
          "internalType": "address",
          "name": "owner",
          "type": "address"
        },
        {
          "indexed": true,
          "internalType": "address",
          "name": "operator",
          "type": "address"
        },
        {
          "indexed": false,
          "internalType": "bool",
          "name": "approved",
          "type": "bool"
        }
      ],
      "name": "ApprovalForAll",
      "type": "event"
    },
    {
      "anonymous": false,
      "inputs": [
        {
          "indexed": false,
          "internalType": "uint256",
          "name": "_fromTokenId",
          "type": "uint256"
        },
        {
          "indexed": false,
          "internalType": "uint256",
          "name": "_toTokenId",
          "type": "uint256"
        }
      ],
      "name": "BatchMetadataUpdate",
      "type": "event"
    },
    {
      "anonymous": false,
      "inputs": [
        {
          "indexed": false,
          "internalType": "uint256",
          "name": "_tokenId",
          "type": "uint256"
        }
      ],
      "name": "MetadataUpdate",
      "type": "event"
    },
    {
      "anonymous": false,
      "inputs": [
        {
          "indexed": true,
          "internalType": "address",
          "name": "from",
          "type": "address"
        },
        {
          "indexed": true,
          "internalType": "address",
          "name": "to",
          "type": "address"
        },
        {
          "indexed": true,
          "internalType": "uint256",
          "name": "tokenId",
          "type": "uint256"
        }
      ],
      "name": "Transfer",
      "type": "event"
    },
    {
      "inputs": [
        {
          "internalType": "address",
          "name": "club",
          "type": "address"
        },
        {
          "internalType": "string",
          "name": "eventName",
          "type": "string"
        },
        {
          "internalType": "string",
          "name": "eventDescription",
          "type": "string"
        },
        {
          "internalType": "uint256",
          "name": "eventDate",
          "type": "uint256"
        },
        {
          "internalType": "uint256",
          "name": "price",
          "type": "uint256"
        },
        {
          "internalType": "address",
          "name": "nftContract",
          "type": "address"
        },
        {
          "internalType": "string",
          "name": "nftURI",
          "type": "string"
        }
      ],
      "name": "addTicketForSale",
      "outputs": [],
      "stateMutability": "nonpayable",
      "type": "function"
    },
    {
      "inputs": [
        {
          "internalType": "uint256",
          "name": "",
          "type": "uint256"
        }
      ],
      "name": "allTickets",
      "outputs": [
        {
          "internalType": "uint256",
          "name": "id",
          "type": "uint256"
        },
        {
          "internalType": "string",
          "name": "eventName",
          "type": "string"
        },
        {
          "internalType": "string",
          "name": "eventDescription",
          "type": "string"
        },
        {
          "internalType": "uint256",
          "name": "eventDate",
          "type": "uint256"
        },
        {
          "internalType": "uint256",
          "name": "price",
          "type": "uint256"
        },
        {
          "internalType": "address",
          "name": "owner",
          "type": "address"
        },
        {
          "internalType": "address",
          "name": "club",
          "type": "address"
        },
        {
          "internalType": "string",
          "name": "nftURI",
          "type": "string"
        }
      ],
      "stateMutability": "view",
      "type": "function"
    },
    {
      "inputs": [
        {
          "internalType": "address",
          "name": "to",
          "type": "address"
        },
        {
          "internalType": "uint256",
          "name": "tokenId",
          "type": "uint256"
        }
      ],
      "name": "approve",
      "outputs": [],
      "stateMutability": "nonpayable",
      "type": "function"
    },
    {
      "inputs": [
        {
          "internalType": "address",
          "name": "",
          "type": "address"
        }
      ],
      "name": "attendedEvents",
      "outputs": [
        {
          "internalType": "uint256",
          "name": "",
          "type": "uint256"
        }
      ],
      "stateMutability": "view",
      "type": "function"
    },
    {
      "inputs": [
        {
          "internalType": "address",
          "name": "owner",
          "type": "address"
        }
      ],
      "name": "balanceOf",
      "outputs": [
        {
          "internalType": "uint256",
          "name": "",
          "type": "uint256"
        }
      ],
      "stateMutability": "view",
      "type": "function"
    },
    {
      "inputs": [
        {
          "internalType": "uint256",
          "name": "tokenId",
          "type": "uint256"
        }
      ],
      "name": "burnNft",
      "outputs": [],
      "stateMutability": "nonpayable",
      "type": "function"
    },
    {
      "inputs": [
        {
          "internalType": "address",
          "name": "club",
          "type": "address"
        },
        {
          "internalType": "uint256",
          "name": "ticketId",
          "type": "uint256"
        }
      ],
      "name": "buyTicket",
      "outputs": [],
      "stateMutability": "payable",
      "type": "function"
    },
    {
      "inputs": [],
      "name": "getAllTickets",
      "outputs": [
        {
          "components": [
            {
              "internalType": "uint256",
              "name": "id",
              "type": "uint256"
            },
            {
              "internalType": "string",
              "name": "eventName",
              "type": "string"
            },
            {
              "internalType": "string",
              "name": "eventDescription",
              "type": "string"
            },
            {
              "internalType": "uint256",
              "name": "eventDate",
              "type": "uint256"
            },
            {
              "internalType": "uint256",
              "name": "price",
              "type": "uint256"
            },
            {
              "internalType": "address",
              "name": "owner",
              "type": "address"
            },
            {
              "internalType": "address",
              "name": "club",
              "type": "address"
            },
            {
              "internalType": "string",
              "name": "nftURI",
              "type": "string"
            }
          ],
          "internalType": "struct Ticketing.Ticket[]",
          "name": "",
          "type": "tuple[]"
        }
      ],
      "stateMutability": "view",
      "type": "function"
    },
    {
      "inputs": [
        {
          "internalType": "uint256",
          "name": "tokenId",
          "type": "uint256"
        }
      ],
      "name": "getApproved",
      "outputs": [
        {
          "internalType": "address",
          "name": "",
          "type": "address"
        }
      ],
      "stateMutability": "view",
      "type": "function"
    },
    {
      "inputs": [
        {
          "internalType": "address",
          "name": "club",
          "type": "address"
        }
      ],
      "name": "getTicketsForClub",
      "outputs": [
        {
          "components": [
            {
              "internalType": "uint256",
              "name": "id",
              "type": "uint256"
            },
            {
              "internalType": "string",
              "name": "eventName",
              "type": "string"
            },
            {
              "internalType": "string",
              "name": "eventDescription",
              "type": "string"
            },
            {
              "internalType": "uint256",
              "name": "eventDate",
              "type": "uint256"
            },
            {
              "internalType": "uint256",
              "name": "price",
              "type": "uint256"
            },
            {
              "internalType": "address",
              "name": "owner",
              "type": "address"
            },
            {
              "internalType": "address",
              "name": "club",
              "type": "address"
            },
            {
              "internalType": "string",
              "name": "nftURI",
              "type": "string"
            }
          ],
          "internalType": "struct Ticketing.Ticket[]",
          "name": "",
          "type": "tuple[]"
        }
      ],
      "stateMutability": "view",
      "type": "function"
    },
    {
      "inputs": [
        {
          "internalType": "address",
          "name": "owner",
          "type": "address"
        },
        {
          "internalType": "address",
          "name": "operator",
          "type": "address"
        }
      ],
      "name": "isApprovedForAll",
      "outputs": [
        {
          "internalType": "bool",
          "name": "",
          "type": "bool"
        }
      ],
      "stateMutability": "view",
      "type": "function"
    },
    {
      "inputs": [
        {
          "internalType": "uint256",
          "name": "",
          "type": "uint256"
        }
      ],
      "name": "milestoneNftURIs",
      "outputs": [
        {
          "internalType": "string",
          "name": "",
          "type": "string"
        }
      ],
      "stateMutability": "view",
      "type": "function"
    },
    {
      "inputs": [],
      "name": "name",
      "outputs": [
        {
          "internalType": "string",
          "name": "",
          "type": "string"
        }
      ],
      "stateMutability": "view",
      "type": "function"
    },
    {
      "inputs": [
        {
          "internalType": "uint256",
          "name": "tokenId",
          "type": "uint256"
        }
      ],
      "name": "ownerOf",
      "outputs": [
        {
          "internalType": "address",
          "name": "",
          "type": "address"
        }
      ],
      "stateMutability": "view",
      "type": "function"
    },
    {
      "inputs": [],
      "name": "realMadridWalletAddress",
      "outputs": [
        {
          "internalType": "address",
          "name": "",
          "type": "address"
        }
      ],
      "stateMutability": "view",
      "type": "function"
    },
    {
      "inputs": [
        {
          "internalType": "address",
          "name": "from",
          "type": "address"
        },
        {
          "internalType": "address",
          "name": "to",
          "type": "address"
        },
        {
          "internalType": "uint256",
          "name": "tokenId",
          "type": "uint256"
        }
      ],
      "name": "safeTransferFrom",
      "outputs": [],
      "stateMutability": "nonpayable",
      "type": "function"
    },
    {
      "inputs": [
        {
          "internalType": "address",
          "name": "from",
          "type": "address"
        },
        {
          "internalType": "address",
          "name": "to",
          "type": "address"
        },
        {
          "internalType": "uint256",
          "name": "tokenId",
          "type": "uint256"
        },
        {
          "internalType": "bytes",
          "name": "data",
          "type": "bytes"
        }
      ],
      "name": "safeTransferFrom",
      "outputs": [],
      "stateMutability": "nonpayable",
      "type": "function"
    },
    {
      "inputs": [
        {
          "internalType": "address",
          "name": "operator",
          "type": "address"
        },
        {
          "internalType": "bool",
          "name": "approved",
          "type": "bool"
        }
      ],
      "name": "setApprovalForAll",
      "outputs": [],
      "stateMutability": "nonpayable",
      "type": "function"
    },
    {
      "inputs": [
        {
          "internalType": "bytes4",
          "name": "interfaceId",
          "type": "bytes4"
        }
      ],
      "name": "supportsInterface",
      "outputs": [
        {
          "internalType": "bool",
          "name": "",
          "type": "bool"
        }
      ],
      "stateMutability": "view",
      "type": "function"
    },
    {
      "inputs": [],
      "name": "symbol",
      "outputs": [
        {
          "internalType": "string",
          "name": "",
          "type": "string"
        }
      ],
      "stateMutability": "view",
      "type": "function"
    },
    {
      "inputs": [
        {
          "internalType": "address",
          "name": "",
          "type": "address"
        },
        {
          "internalType": "uint256",
          "name": "",
          "type": "uint256"
        }
      ],
      "name": "ticketsInSale",
      "outputs": [
        {
          "internalType": "uint256",
          "name": "id",
          "type": "uint256"
        },
        {
          "internalType": "string",
          "name": "eventName",
          "type": "string"
        },
        {
          "internalType": "string",
          "name": "eventDescription",
          "type": "string"
        },
        {
          "internalType": "uint256",
          "name": "eventDate",
          "type": "uint256"
        },
        {
          "internalType": "uint256",
          "name": "price",
          "type": "uint256"
        },
        {
          "internalType": "address",
          "name": "owner",
          "type": "address"
        },
        {
          "internalType": "address",
          "name": "club",
          "type": "address"
        },
        {
          "internalType": "string",
          "name": "nftURI",
          "type": "string"
        }
      ],
      "stateMutability": "view",
      "type": "function"
    },
    {
      "inputs": [
        {
          "internalType": "uint256",
          "name": "tokenId",
          "type": "uint256"
        }
      ],
      "name": "tokenURI",
      "outputs": [
        {
          "internalType": "string",
          "name": "",
          "type": "string"
        }
      ],
      "stateMutability": "view",
      "type": "function"
    },
    {
      "inputs": [
        {
          "internalType": "address",
          "name": "from",
          "type": "address"
        },
        {
          "internalType": "address",
          "name": "to",
          "type": "address"
        },
        {
          "internalType": "uint256",
          "name": "tokenId",
          "type": "uint256"
        }
      ],
      "name": "transferFrom",
      "outputs": [],
      "stateMutability": "nonpayable",
      "type": "function"
    }
  ],
  "bytecode": "0x608060405273fabb0ac9d68b0b445fb7357272ff202c5651694a600a60006101000a81548173ffffffffffffffffffffffffffffffffffffffff021916908373ffffffffffffffffffffffffffffffffffffffff16021790555034801561006557600080fd5b506040518060400160405280600b81526020017f4576656e745469636b65740000000000000000000000000000000000000000008152506040518060400160405280600381526020017f45544b000000000000000000000000000000000000000000000000000000000081525081600090816100e191906107d8565b5080600190816100f191906107d8565b5050506000600881905550600060098190555060405180606001604052806023815260200161526a602391396007600060018152602001908152602001600020908161013d91906107d8565b506040518060600160405280602381526020016152476023913960076000600a8152602001908152602001600020908161017791906107d8565b506040518060600160405280602381526020016152b060239139600760006032815260200190815260200160002090816101b191906107d8565b5060405180606001604052806023815260200161528d60239139600760006064815260200190815260200160002090816101eb91906107d8565b506000604051806101000160405280600081526020016040518060400160405280600d81526020017f496e697469616c204576656e740000000000000000000000000000000000000081525081526020016040518060600160405280602e8152602001615219602e91398152602001620151804261026991906108d9565b8152602001655af3107a40008152602001600073ffffffffffffffffffffffffffffffffffffffff168152602001600a60009054906101000a900473ffffffffffffffffffffffffffffffffffffffff1673ffffffffffffffffffffffffffffffffffffffff168152602001604051806020016040528060008152508152509050600b6000600a60009054906101000a900473ffffffffffffffffffffffffffffffffffffffff1673ffffffffffffffffffffffffffffffffffffffff1673ffffffffffffffffffffffffffffffffffffffff16815260200190815260200160002081908060018154018082558091505060019003906000526020600020906008020160009091909190915060008201518160000155602082015181600101908161039491906107d8565b5060408201518160020190816103aa91906107d8565b50606082015181600301556080820151816004015560a08201518160050160006101000a81548173ffffffffffffffffffffffffffffffffffffffff021916908373ffffffffffffffffffffffffffffffffffffffff16021790555060c08201518160060160006101000a81548173ffffffffffffffffffffffffffffffffffffffff021916908373ffffffffffffffffffffffffffffffffffffffff16021790555060e082015181600701908161046291906107d8565b50505080600d600080815260200190815260200160002060008201518160000155602082015181600101908161049891906107d8565b5060408201518160020190816104ae91906107d8565b50606082015181600301556080820151816004015560a08201518160050160006101000a81548173ffffffffffffffffffffffffffffffffffffffff021916908373ffffffffffffffffffffffffffffffffffffffff16021790555060c08201518160060160006101000a81548173ffffffffffffffffffffffffffffffffffffffff021916908373ffffffffffffffffffffffffffffffffffffffff16021790555060e082015181600701908161056691906107d8565b509050506008600081548092919061057d9061090d565b919050555050610955565b600081519050919050565b7f4e487b7100000000000000000000000000000000000000000000000000000000600052604160045260246000fd5b7f4e487b7100000000000000000000000000000000000000000000000000000000600052602260045260246000fd5b6000600282049050600182168061060957607f821691505b60208210810361061c5761061b6105c2565b5b50919050565b60008190508160005260206000209050919050565b60006020601f8301049050919050565b600082821b905092915050565b6000600883026106847fffffffffffffffffffffffffffffffffffffffffffffffffffffffffffffffff82610647565b61068e8683610647565b95508019841693508086168417925050509392505050565b6000819050919050565b6000819050919050565b60006106d56106d06106cb846106a6565b6106b0565b6106a6565b9050919050565b6000819050919050565b6106ef836106ba565b6107036106fb826106dc565b848454610654565b825550505050565b600090565b61071861070b565b6107238184846106e6565b505050565b5b818110156107475761073c600082610710565b600181019050610729565b5050565b601f82111561078c5761075d81610622565b61076684610637565b81016020851015610775578190505b61078961078185610637565b830182610728565b50505b505050565b600082821c905092915050565b60006107af60001984600802610791565b1980831691505092915050565b60006107c8838361079e565b9150826002028217905092915050565b6107e182610588565b67ffffffffffffffff8111156107fa576107f9610593565b5b61080482546105f1565b61080f82828561074b565b600060209050601f8311600181146108425760008415610830578287015190505b61083a85826107bc565b8655506108a2565b601f19841661085086610622565b60005b8281101561087857848901518255600182019150602085019450602081019050610853565b868310156108955784890151610891601f89168261079e565b8355505b6001600288020188555050505b505050505050565b7f4e487b7100000000000000000000000000000000000000000000000000000000600052601160045260246000fd5b60006108e4826106a6565b91506108ef836106a6565b9250828201905080821115610907576109066108aa565b5b92915050565b6000610918826106a6565b91507fffffffffffffffffffffffffffffffffffffffffffffffffffffffffffffffff820361094a576109496108aa565b5b600182019050919050565b6148b5806109646000396000f3fe6080604052600436106101405760003560e01c80635d277436116100b6578063a22cb4651161006f578063a22cb46514610485578063b88d4fde146104ae578063c87b56dd146104d7578063cba0f28714610514578063d0a753af14610558578063e985e9c51461059c57610140565b80635d2774361461034a5780636352211e1461038757806366a5ef2f146103c457806370a08231146103e057806382d3200d1461041d57806395d89b411461045a57610140565b8063095ea7b311610108578063095ea7b3146102525780630a5724151461027b5780630d04d6d7146102a457806323b872dd146102cf5780633d5efefe146102f857806342842e0e1461032157610140565b806301ffc9a71461014557806303e96fe31461018257806306fdde03146101ad57806307263c12146101d8578063081812fc14610215575b600080fd5b34801561015157600080fd5b5061016c600480360381019061016791906134b2565b6105d9565b60405161017991906134fa565b60405180910390f35b34801561018e57600080fd5b5061019761063a565b6040516101a4919061377f565b60405180910390f35b3480156101b957600080fd5b506101c2610975565b6040516101cf91906137eb565b60405180910390f35b3480156101e457600080fd5b506101ff60048036038101906101fa9190613839565b610a07565b60405161020c91906137eb565b60405180910390f35b34801561022157600080fd5b5061023c60048036038101906102379190613839565b610aa7565b6040516102499190613875565b60405180910390f35b34801561025e57600080fd5b50610279600480360381019061027491906138bc565b610ac3565b005b34801561028757600080fd5b506102a2600480360381019061029d9190613a31565b610ad9565b005b3480156102b057600080fd5b506102b9610f35565b6040516102c69190613875565b60405180910390f35b3480156102db57600080fd5b506102f660048036038101906102f19190613b27565b610f5b565b005b34801561030457600080fd5b5061031f600480360381019061031a9190613839565b61105d565b005b34801561032d57600080fd5b5061034860048036038101906103439190613b27565b611069565b005b34801561035657600080fd5b50610371600480360381019061036c9190613b7a565b611089565b60405161037e919061377f565b60405180910390f35b34801561039357600080fd5b506103ae60048036038101906103a99190613839565b6113a8565b6040516103bb9190613875565b60405180910390f35b6103de60048036038101906103d991906138bc565b6113ba565b005b3480156103ec57600080fd5b5061040760048036038101906104029190613b7a565b6117c3565b6040516104149190613bb6565b60405180910390f35b34801561042957600080fd5b50610444600480360381019061043f9190613b7a565b61187d565b6040516104519190613bb6565b60405180910390f35b34801561046657600080fd5b5061046f611895565b60405161047c91906137eb565b60405180910390f35b34801561049157600080fd5b506104ac60048036038101906104a79190613bfd565b611927565b005b3480156104ba57600080fd5b506104d560048036038101906104d09190613cde565b61193d565b005b3480156104e357600080fd5b506104fe60048036038101906104f99190613839565b611962565b60405161050b91906137eb565b60405180910390f35b34801561052057600080fd5b5061053b600480360381019061053691906138bc565b611a75565b60405161054f989796959493929190613d61565b60405180910390f35b34801561056457600080fd5b5061057f600480360381019061057a9190613839565b611cb2565b604051610593989796959493929190613d61565b60405180910390f35b3480156105a857600080fd5b506105c360048036038101906105be9190613df4565b611ed2565b6040516105d091906134fa565b60405180910390f35b6000634906490660e01b7bffffffffffffffffffffffffffffffffffffffffffffffffffffffff1916827bffffffffffffffffffffffffffffffffffffffffffffffffffffffff19161480610633575061063282611f66565b5b9050919050565b6060600060085467ffffffffffffffff81111561065a57610659613906565b5b60405190808252806020026020018201604052801561069357816020015b610680613378565b8152602001906001900390816106785790505b50905060005b60085481101561096d57600d600082815260200190815260200160002060405180610100016040529081600082015481526020016001820180546106dc90613e63565b80601f016020809104026020016040519081016040528092919081815260200182805461070890613e63565b80156107555780601f1061072a57610100808354040283529160200191610755565b820191906000526020600020905b81548152906001019060200180831161073857829003601f168201915b5050505050815260200160028201805461076e90613e63565b80601f016020809104026020016040519081016040528092919081815260200182805461079a90613e63565b80156107e75780601f106107bc576101008083540402835291602001916107e7565b820191906000526020600020905b8154815290600101906020018083116107ca57829003601f168201915b5050505050815260200160038201548152602001600482015481526020016005820160009054906101000a900473ffffffffffffffffffffffffffffffffffffffff1673ffffffffffffffffffffffffffffffffffffffff1673ffffffffffffffffffffffffffffffffffffffff1681526020016006820160009054906101000a900473ffffffffffffffffffffffffffffffffffffffff1673ffffffffffffffffffffffffffffffffffffffff1673ffffffffffffffffffffffffffffffffffffffff1681526020016007820180546108c090613e63565b80601f01602080910402602001604051908101604052809291908181526020018280546108ec90613e63565b80156109395780601f1061090e57610100808354040283529160200191610939565b820191906000526020600020905b81548152906001019060200180831161091c57829003601f168201915b50505050508152505082828151811061095557610954613e94565b5b60200260200101819052508080600101915050610699565b508091505090565b60606000805461098490613e63565b80601f01602080910402602001604051908101604052809291908181526020018280546109b090613e63565b80156109fd5780601f106109d2576101008083540402835291602001916109fd565b820191906000526020600020905b8154815290600101906020018083116109e057829003601f168201915b5050505050905090565b60076020528060005260406000206000915090508054610a2690613e63565b80601f0160208091040260200160405190810160405280929190818152602001828054610a5290613e63565b8015610a9f5780601f10610a7457610100808354040283529160200191610a9f565b820191906000526020600020905b815481529060010190602001808311610a8257829003601f168201915b505050505081565b6000610ab282612048565b50610abc826120d0565b9050919050565b610ad58282610ad061210d565b612115565b5050565b600073ffffffffffffffffffffffffffffffffffffffff168773ffffffffffffffffffffffffffffffffffffffff1603610b48576040517f08c379a0000000000000000000000000000000000000000000000000000000008152600401610b3f90613f0f565b60405180910390fd5b6000865111610b8c576040517f08c379a0000000000000000000000000000000000000000000000000000000008152600401610b8390613f7b565b60405180910390fd5b428411610bce576040517f08c379a0000000000000000000000000000000000000000000000000000000008152600401610bc590613fe7565b60405180910390fd5b600073ffffffffffffffffffffffffffffffffffffffff168273ffffffffffffffffffffffffffffffffffffffff1614610c47576000815111610c46576040517f08c379a0000000000000000000000000000000000000000000000000000000008152600401610c3d90614053565b60405180910390fd5b5b600060405180610100016040528060085481526020018881526020018781526020018681526020018581526020013373ffffffffffffffffffffffffffffffffffffffff1681526020018973ffffffffffffffffffffffffffffffffffffffff168152602001838152509050600b60008973ffffffffffffffffffffffffffffffffffffffff1673ffffffffffffffffffffffffffffffffffffffff168152602001908152602001600020819080600181540180825580915050600190039060005260206000209060080201600090919091909150600082015181600001556020820151816001019081610d3b919061421f565b506040820151816002019081610d51919061421f565b50606082015181600301556080820151816004015560a08201518160050160006101000a81548173ffffffffffffffffffffffffffffffffffffffff021916908373ffffffffffffffffffffffffffffffffffffffff16021790555060c08201518160060160006101000a81548173ffffffffffffffffffffffffffffffffffffffff021916908373ffffffffffffffffffffffffffffffffffffffff16021790555060e0820151816007019081610e09919061421f565b50505080600d60006008548152602001908152602001600020600082015181600001556020820151816001019081610e41919061421f565b506040820151816002019081610e57919061421f565b50606082015181600301556080820151816004015560a08201518160050160006101000a81548173ffffffffffffffffffffffffffffffffffffffff021916908373ffffffffffffffffffffffffffffffffffffffff16021790555060c08201518160060160006101000a81548173ffffffffffffffffffffffffffffffffffffffff021916908373ffffffffffffffffffffffffffffffffffffffff16021790555060e0820151816007019081610f0f919061421f565b5090505060086000815480929190610f2690614320565b91905055505050505050505050565b600a60009054906101000a900473ffffffffffffffffffffffffffffffffffffffff1681565b600073ffffffffffffffffffffffffffffffffffffffff168273ffffffffffffffffffffffffffffffffffffffff1603610fcd5760006040517f64a0ae92000000000000000000000000000000000000000000000000000000008152600401610fc49190613875565b60405180910390fd5b6000610fe18383610fdc61210d565b612127565b90508373ffffffffffffffffffffffffffffffffffffffff168173ffffffffffffffffffffffffffffffffffffffff1614611057578382826040517f64283d7b00000000000000000000000000000000000000000000000000000000815260040161104e93929190614368565b60405180910390fd5b50505050565b61106681612341565b50565b6110848383836040518060200160405280600081525061193d565b505050565b6060600b60008373ffffffffffffffffffffffffffffffffffffffff1673ffffffffffffffffffffffffffffffffffffffff168152602001908152602001600020805480602002602001604051908101604052809291908181526020016000905b8282101561139d5783829060005260206000209060080201604051806101000160405290816000820154815260200160018201805461112890613e63565b80601f016020809104026020016040519081016040528092919081815260200182805461115490613e63565b80156111a15780601f10611176576101008083540402835291602001916111a1565b820191906000526020600020905b81548152906001019060200180831161118457829003601f168201915b505050505081526020016002820180546111ba90613e63565b80601f01602080910402602001604051908101604052809291908181526020018280546111e690613e63565b80156112335780601f1061120857610100808354040283529160200191611233565b820191906000526020600020905b81548152906001019060200180831161121657829003601f168201915b5050505050815260200160038201548152602001600482015481526020016005820160009054906101000a900473ffffffffffffffffffffffffffffffffffffffff1673ffffffffffffffffffffffffffffffffffffffff1673ffffffffffffffffffffffffffffffffffffffff1681526020016006820160009054906101000a900473ffffffffffffffffffffffffffffffffffffffff1673ffffffffffffffffffffffffffffffffffffffff1673ffffffffffffffffffffffffffffffffffffffff16815260200160078201805461130c90613e63565b80601f016020809104026020016040519081016040528092919081815260200182805461133890613e63565b80156113855780601f1061135a57610100808354040283529160200191611385565b820191906000526020600020905b81548152906001019060200180831161136857829003601f168201915b505050505081525050815260200190600101906110ea565b505050509050919050565b60006113b382612048565b9050919050565b6000600b60008473ffffffffffffffffffffffffffffffffffffffff1673ffffffffffffffffffffffffffffffffffffffff168152602001908152602001600020905080805490508210611443576040517f08c379a000000000000000000000000000000000000000000000000000000000815260040161143a906143eb565b60405180910390fd5b600081838154811061145857611457613e94565b5b9060005260206000209060080201905080600401543410156114af576040517f08c379a00000000000000000000000000000000000000000000000000000000081526004016114a690614457565b60405180910390fd5b428160030154116114f5576040517f08c379a00000000000000000000000000000000000000000000000000000000081526004016114ec906144c3565b60405180910390fd5b338160050160006101000a81548173ffffffffffffffffffffffffffffffffffffffff021916908373ffffffffffffffffffffffffffffffffffffffff160217905550600c60003373ffffffffffffffffffffffffffffffffffffffff1673ffffffffffffffffffffffffffffffffffffffff168152602001908152602001600020600081548092919061158890614320565b9190505550600081600701805461159e90613e63565b9050111561163d5761163c338260070180546115b990613e63565b80601f01602080910402602001604051908101604052809291908181526020018280546115e590613e63565b80156116325780601f1061160757610100808354040283529160200191611632565b820191906000526020600020905b81548152906001019060200180831161161557829003601f168201915b50505050506123c7565b5b8373ffffffffffffffffffffffffffffffffffffffff166108fc349081150290604051600060405180830381858888f19350505050158015611683573d6000803e3d6000fd5b5061168e84846123fb565b600060076000600c60003373ffffffffffffffffffffffffffffffffffffffff1673ffffffffffffffffffffffffffffffffffffffff16815260200190815260200160002054815260200190815260200160002080546116ed90613e63565b905011156117bd576117bc600a60009054906101000a900473ffffffffffffffffffffffffffffffffffffffff1660076000868152602001908152602001600020805461173990613e63565b80601f016020809104026020016040519081016040528092919081815260200182805461176590613e63565b80156117b25780601f10611787576101008083540402835291602001916117b2565b820191906000526020600020905b81548152906001019060200180831161179557829003601f168201915b50505050506123c7565b5b50505050565b60008073ffffffffffffffffffffffffffffffffffffffff168273ffffffffffffffffffffffffffffffffffffffff16036118365760006040517f89c62b6400000000000000000000000000000000000000000000000000000000815260040161182d9190613875565b60405180910390fd5b600360008373ffffffffffffffffffffffffffffffffffffffff1673ffffffffffffffffffffffffffffffffffffffff168152602001908152602001600020549050919050565b600c6020528060005260406000206000915090505481565b6060600180546118a490613e63565b80601f01602080910402602001604051908101604052809291908181526020018280546118d090613e63565b801561191d5780601f106118f25761010080835404028352916020019161191d565b820191906000526020600020905b81548152906001019060200180831161190057829003601f168201915b5050505050905090565b61193961193261210d565b838361282f565b5050565b611948848484610f5b565b61195c61195361210d565b8585858561299e565b50505050565b606061196d82612048565b50600060066000848152602001908152602001600020805461198e90613e63565b80601f01602080910402602001604051908101604052809291908181526020018280546119ba90613e63565b8015611a075780601f106119dc57610100808354040283529160200191611a07565b820191906000526020600020905b8154815290600101906020018083116119ea57829003601f168201915b505050505090506000611a18612b4f565b90506000815103611a2d578192505050611a70565b600082511115611a62578082604051602001611a4a92919061451f565b60405160208183030381529060405292505050611a70565b611a6b84612b66565b925050505b919050565b600b6020528160005260406000208181548110611a9157600080fd5b906000526020600020906008020160009150915050806000015490806001018054611abb90613e63565b80601f0160208091040260200160405190810160405280929190818152602001828054611ae790613e63565b8015611b345780601f10611b0957610100808354040283529160200191611b34565b820191906000526020600020905b815481529060010190602001808311611b1757829003601f168201915b505050505090806002018054611b4990613e63565b80601f0160208091040260200160405190810160405280929190818152602001828054611b7590613e63565b8015611bc25780601f10611b9757610100808354040283529160200191611bc2565b820191906000526020600020905b815481529060010190602001808311611ba557829003601f168201915b5050505050908060030154908060040154908060050160009054906101000a900473ffffffffffffffffffffffffffffffffffffffff16908060060160009054906101000a900473ffffffffffffffffffffffffffffffffffffffff1690806007018054611c2f90613e63565b80601f0160208091040260200160405190810160405280929190818152602001828054611c5b90613e63565b8015611ca85780601f10611c7d57610100808354040283529160200191611ca8565b820191906000526020600020905b815481529060010190602001808311611c8b57829003601f168201915b5050505050905088565b600d602052806000526040600020600091509050806000015490806001018054611cdb90613e63565b80601f0160208091040260200160405190810160405280929190818152602001828054611d0790613e63565b8015611d545780601f10611d2957610100808354040283529160200191611d54565b820191906000526020600020905b815481529060010190602001808311611d3757829003601f168201915b505050505090806002018054611d6990613e63565b80601f0160208091040260200160405190810160405280929190818152602001828054611d9590613e63565b8015611de25780601f10611db757610100808354040283529160200191611de2565b820191906000526020600020905b815481529060010190602001808311611dc557829003601f168201915b5050505050908060030154908060040154908060050160009054906101000a900473ffffffffffffffffffffffffffffffffffffffff16908060060160009054906101000a900473ffffffffffffffffffffffffffffffffffffffff1690806007018054611e4f90613e63565b80601f0160208091040260200160405190810160405280929190818152602001828054611e7b90613e63565b8015611ec85780601f10611e9d57610100808354040283529160200191611ec8565b820191906000526020600020905b815481529060010190602001808311611eab57829003601f168201915b5050505050905088565b6000600560008473ffffffffffffffffffffffffffffffffffffffff1673ffffffffffffffffffffffffffffffffffffffff16815260200190815260200160002060008373ffffffffffffffffffffffffffffffffffffffff1673ffffffffffffffffffffffffffffffffffffffff16815260200190815260200160002060009054906101000a900460ff16905092915050565b60007f80ac58cd000000000000000000000000000000000000000000000000000000007bffffffffffffffffffffffffffffffffffffffffffffffffffffffff1916827bffffffffffffffffffffffffffffffffffffffffffffffffffffffff1916148061203157507f5b5e139f000000000000000000000000000000000000000000000000000000007bffffffffffffffffffffffffffffffffffffffffffffffffffffffff1916827bffffffffffffffffffffffffffffffffffffffffffffffffffffffff1916145b80612041575061204082612bcf565b5b9050919050565b60008061205483612c39565b9050600073ffffffffffffffffffffffffffffffffffffffff168173ffffffffffffffffffffffffffffffffffffffff16036120c757826040517f7e2732890000000000000000000000000000000000000000000000000000000081526004016120be9190613bb6565b60405180910390fd5b80915050919050565b60006004600083815260200190815260200160002060009054906101000a900473ffffffffffffffffffffffffffffffffffffffff169050919050565b600033905090565b6121228383836001612c76565b505050565b60008061213384612c39565b9050600073ffffffffffffffffffffffffffffffffffffffff168373ffffffffffffffffffffffffffffffffffffffff161461217557612174818486612e3b565b5b600073ffffffffffffffffffffffffffffffffffffffff168173ffffffffffffffffffffffffffffffffffffffff1614612206576121b7600085600080612c76565b6001600360008373ffffffffffffffffffffffffffffffffffffffff1673ffffffffffffffffffffffffffffffffffffffff168152602001908152602001600020600082825403925050819055505b600073ffffffffffffffffffffffffffffffffffffffff168573ffffffffffffffffffffffffffffffffffffffff1614612289576001600360008773ffffffffffffffffffffffffffffffffffffffff1673ffffffffffffffffffffffffffffffffffffffff168152602001908152602001600020600082825401925050819055505b846002600086815260200190815260200160002060006101000a81548173ffffffffffffffffffffffffffffffffffffffff021916908373ffffffffffffffffffffffffffffffffffffffff160217905550838573ffffffffffffffffffffffffffffffffffffffff168273ffffffffffffffffffffffffffffffffffffffff167fddf252ad1be2c89b69c2b068fc378daa952ba7f163c4a11628f55a4df523b3ef60405160405180910390a4809150509392505050565b60006123506000836000612127565b9050600073ffffffffffffffffffffffffffffffffffffffff168173ffffffffffffffffffffffffffffffffffffffff16036123c357816040517f7e2732890000000000000000000000000000000000000000000000000000000081526004016123ba9190613bb6565b60405180910390fd5b5050565b6123d382600954612eff565b6123df60095482612f1d565b600960008154809291906123f290614320565b91905055505050565b6000600b60008473ffffffffffffffffffffffffffffffffffffffff1673ffffffffffffffffffffffffffffffffffffffff168152602001908152602001600020905060007fffffffffffffffffffffffffffffffffffffffffffffffffffffffffffffffff905060005b82805490508110156124b2578383828154811061248657612485613e94565b5b906000526020600020906008020160000154036124a5578091506124b2565b8080600101915050612466565b507fffffffffffffffffffffffffffffffffffffffffffffffffffffffffffffffff8103612515576040517f08c379a000000000000000000000000000000000000000000000000000000000815260040161250c9061458f565b60405180910390fd5b60008190505b6001838054905061252c91906145af565b8110156126bc578260018261254191906145e3565b8154811061255257612551613e94565b5b906000526020600020906008020183828154811061257357612572613e94565b5b9060005260206000209060080201600082015481600001556001820181600101908161259f919061462d565b50600282018160020190816125b4919061462d565b5060038201548160030155600482015481600401556005820160009054906101000a900473ffffffffffffffffffffffffffffffffffffffff168160050160006101000a81548173ffffffffffffffffffffffffffffffffffffffff021916908373ffffffffffffffffffffffffffffffffffffffff1602179055506006820160009054906101000a900473ffffffffffffffffffffffffffffffffffffffff168160060160006101000a81548173ffffffffffffffffffffffffffffffffffffffff021916908373ffffffffffffffffffffffffffffffffffffffff160217905550600782018160070190816126ab919061462d565b50905050808060010191505061251b565b50818054806126ce576126cd614715565b5b60019003818190600052602060002090600802016000808201600090556001820160006126fb91906133e9565b60028201600061270b91906133e9565b600382016000905560048201600090556005820160006101000a81549073ffffffffffffffffffffffffffffffffffffffff02191690556006820160006101000a81549073ffffffffffffffffffffffffffffffffffffffff021916905560078201600061277991906133e9565b50509055600d60008481526020019081526020016000206000808201600090556001820160006127a991906133e9565b6002820160006127b991906133e9565b600382016000905560048201600090556005820160006101000a81549073ffffffffffffffffffffffffffffffffffffffff02191690556006820160006101000a81549073ffffffffffffffffffffffffffffffffffffffff021916905560078201600061282791906133e9565b505050505050565b600073ffffffffffffffffffffffffffffffffffffffff168273ffffffffffffffffffffffffffffffffffffffff16036128a057816040517f5b08ba180000000000000000000000000000000000000000000000000000000081526004016128979190613875565b60405180910390fd5b80600560008573ffffffffffffffffffffffffffffffffffffffff1673ffffffffffffffffffffffffffffffffffffffff16815260200190815260200160002060008473ffffffffffffffffffffffffffffffffffffffff1673ffffffffffffffffffffffffffffffffffffffff16815260200190815260200160002060006101000a81548160ff0219169083151502179055508173ffffffffffffffffffffffffffffffffffffffff168373ffffffffffffffffffffffffffffffffffffffff167f17307eab39ab6107e8899845ad3d59bd9653f200f220920489ca2b5937696c318360405161299191906134fa565b60405180910390a3505050565b60008373ffffffffffffffffffffffffffffffffffffffff163b1115612b48578273ffffffffffffffffffffffffffffffffffffffff1663150b7a02868685856040518563ffffffff1660e01b81526004016129fd9493929190614799565b6020604051808303816000875af1925050508015612a3957506040513d601f19601f82011682018060405250810190612a3691906147fa565b60015b612abd573d8060008114612a69576040519150601f19603f3d011682016040523d82523d6000602084013e612a6e565b606091505b506000815103612ab557836040517f64a0ae92000000000000000000000000000000000000000000000000000000008152600401612aac9190613875565b60405180910390fd5b805181602001fd5b63150b7a0260e01b7bffffffffffffffffffffffffffffffffffffffffffffffffffffffff1916817bffffffffffffffffffffffffffffffffffffffffffffffffffffffff191614612b4657836040517f64a0ae92000000000000000000000000000000000000000000000000000000008152600401612b3d9190613875565b60405180910390fd5b505b5050505050565b606060405180602001604052806000815250905090565b6060612b7182612048565b506000612b7c612b4f565b90506000815111612b9c5760405180602001604052806000815250612bc7565b80612ba684612f79565b604051602001612bb792919061451f565b6040516020818303038152906040525b915050919050565b60007f01ffc9a7000000000000000000000000000000000000000000000000000000007bffffffffffffffffffffffffffffffffffffffffffffffffffffffff1916827bffffffffffffffffffffffffffffffffffffffffffffffffffffffff1916149050919050565b60006002600083815260200190815260200160002060009054906101000a900473ffffffffffffffffffffffffffffffffffffffff169050919050565b8080612caf5750600073ffffffffffffffffffffffffffffffffffffffff168273ffffffffffffffffffffffffffffffffffffffff1614155b15612de3576000612cbf84612048565b9050600073ffffffffffffffffffffffffffffffffffffffff168373ffffffffffffffffffffffffffffffffffffffff1614158015612d2a57508273ffffffffffffffffffffffffffffffffffffffff168173ffffffffffffffffffffffffffffffffffffffff1614155b8015612d3d5750612d3b8184611ed2565b155b15612d7f57826040517fa9fbf51f000000000000000000000000000000000000000000000000000000008152600401612d769190613875565b60405180910390fd5b8115612de157838573ffffffffffffffffffffffffffffffffffffffff168273ffffffffffffffffffffffffffffffffffffffff167f8c5be1e5ebec7d5bd14f71427d1e84f3dd0314c0f7b2291e5b200ac8c7c3b92560405160405180910390a45b505b836004600085815260200190815260200160002060006101000a81548173ffffffffffffffffffffffffffffffffffffffff021916908373ffffffffffffffffffffffffffffffffffffffff16021790555050505050565b612e46838383613047565b612efa57600073ffffffffffffffffffffffffffffffffffffffff168373ffffffffffffffffffffffffffffffffffffffff1603612ebb57806040517f7e273289000000000000000000000000000000000000000000000000000000008152600401612eb29190613bb6565b60405180910390fd5b81816040517f177e802f000000000000000000000000000000000000000000000000000000008152600401612ef1929190614827565b60405180910390fd5b505050565b612f19828260405180602001604052806000815250613108565b5050565b80600660008481526020019081526020016000209081612f3d919061421f565b507ff8e1a15aba9398e019f0b49df1a4fde98ee17ae345cb5f6b5e2c27f5033e8ce782604051612f6d9190613bb6565b60405180910390a15050565b606060006001612f888461312c565b01905060008167ffffffffffffffff811115612fa757612fa6613906565b5b6040519080825280601f01601f191660200182016040528015612fd95781602001600182028036833780820191505090505b509050600082602001820190505b60011561303c578080600190039150507f3031323334353637383961626364656600000000000000000000000000000000600a86061a8153600a85816130305761302f614850565b5b04945060008503612fe7575b819350505050919050565b60008073ffffffffffffffffffffffffffffffffffffffff168373ffffffffffffffffffffffffffffffffffffffff16141580156130ff57508273ffffffffffffffffffffffffffffffffffffffff168473ffffffffffffffffffffffffffffffffffffffff1614806130c057506130bf8484611ed2565b5b806130fe57508273ffffffffffffffffffffffffffffffffffffffff166130e6836120d0565b73ffffffffffffffffffffffffffffffffffffffff16145b5b90509392505050565b613112838361327f565b61312761311d61210d565b600085858561299e565b505050565b600080600090507a184f03e93ff9f4daa797ed6e38ed64bf6a1f010000000000000000831061318a577a184f03e93ff9f4daa797ed6e38ed64bf6a1f01000000000000000083816131805761317f614850565b5b0492506040810190505b6d04ee2d6d415b85acef810000000083106131c7576d04ee2d6d415b85acef810000000083816131bd576131bc614850565b5b0492506020810190505b662386f26fc1000083106131f657662386f26fc1000083816131ec576131eb614850565b5b0492506010810190505b6305f5e100831061321f576305f5e100838161321557613214614850565b5b0492506008810190505b612710831061324457612710838161323a57613239614850565b5b0492506004810190505b60648310613267576064838161325d5761325c614850565b5b0492506002810190505b600a8310613276576001810190505b80915050919050565b600073ffffffffffffffffffffffffffffffffffffffff168273ffffffffffffffffffffffffffffffffffffffff16036132f15760006040517f64a0ae920000000000000000000000000000000000000000000000000000000081526004016132e89190613875565b60405180910390fd5b60006132ff83836000612127565b9050600073ffffffffffffffffffffffffffffffffffffffff168173ffffffffffffffffffffffffffffffffffffffff16146133735760006040517f73c6ac6e00000000000000000000000000000000000000000000000000000000815260040161336a9190613875565b60405180910390fd5b505050565b6040518061010001604052806000815260200160608152602001606081526020016000815260200160008152602001600073ffffffffffffffffffffffffffffffffffffffff168152602001600073ffffffffffffffffffffffffffffffffffffffff168152602001606081525090565b5080546133f590613e63565b6000825580601f106134075750613426565b601f0160209004906000526020600020908101906134259190613429565b5b50565b5b8082111561344257600081600090555060010161342a565b5090565b6000604051905090565b600080fd5b600080fd5b60007fffffffff0000000000000000000000000000000000000000000000000000000082169050919050565b61348f8161345a565b811461349a57600080fd5b50565b6000813590506134ac81613486565b92915050565b6000602082840312156134c8576134c7613450565b5b60006134d68482850161349d565b91505092915050565b60008115159050919050565b6134f4816134df565b82525050565b600060208201905061350f60008301846134eb565b92915050565b600081519050919050565b600082825260208201905092915050565b6000819050602082019050919050565b6000819050919050565b61355481613541565b82525050565b600081519050919050565b600082825260208201905092915050565b60005b83811015613594578082015181840152602081019050613579565b60008484015250505050565b6000601f19601f8301169050919050565b60006135bc8261355a565b6135c68185613565565b93506135d6818560208601613576565b6135df816135a0565b840191505092915050565b600073ffffffffffffffffffffffffffffffffffffffff82169050919050565b6000613615826135ea565b9050919050565b6136258161360a565b82525050565b600061010083016000830151613644600086018261354b565b506020830151848203602086015261365c82826135b1565b9150506040830151848203604086015261367682826135b1565b915050606083015161368b606086018261354b565b50608083015161369e608086018261354b565b5060a08301516136b160a086018261361c565b5060c08301516136c460c086018261361c565b5060e083015184820360e08601526136dc82826135b1565b9150508091505092915050565b60006136f5838361362b565b905092915050565b6000602082019050919050565b600061371582613515565b61371f8185613520565b93508360208202850161373185613531565b8060005b8581101561376d578484038952815161374e85826136e9565b9450613759836136fd565b925060208a01995050600181019050613735565b50829750879550505050505092915050565b60006020820190508181036000830152613799818461370a565b905092915050565b600082825260208201905092915050565b60006137bd8261355a565b6137c781856137a1565b93506137d7818560208601613576565b6137e0816135a0565b840191505092915050565b6000602082019050818103600083015261380581846137b2565b905092915050565b61381681613541565b811461382157600080fd5b50565b6000813590506138338161380d565b92915050565b60006020828403121561384f5761384e613450565b5b600061385d84828501613824565b91505092915050565b61386f8161360a565b82525050565b600060208201905061388a6000830184613866565b92915050565b6138998161360a565b81146138a457600080fd5b50565b6000813590506138b681613890565b92915050565b600080604083850312156138d3576138d2613450565b5b60006138e1858286016138a7565b92505060206138f285828601613824565b9150509250929050565b600080fd5b600080fd5b7f4e487b7100000000000000000000000000000000000000000000000000000000600052604160045260246000fd5b61393e826135a0565b810181811067ffffffffffffffff8211171561395d5761395c613906565b5b80604052505050565b6000613970613446565b905061397c8282613935565b919050565b600067ffffffffffffffff82111561399c5761399b613906565b5b6139a5826135a0565b9050602081019050919050565b82818337600083830152505050565b60006139d46139cf84613981565b613966565b9050828152602081018484840111156139f0576139ef613901565b5b6139fb8482856139b2565b509392505050565b600082601f830112613a1857613a176138fc565b5b8135613a288482602086016139c1565b91505092915050565b600080600080600080600060e0888a031215613a5057613a4f613450565b5b6000613a5e8a828b016138a7565b975050602088013567ffffffffffffffff811115613a7f57613a7e613455565b5b613a8b8a828b01613a03565b965050604088013567ffffffffffffffff811115613aac57613aab613455565b5b613ab88a828b01613a03565b9550506060613ac98a828b01613824565b9450506080613ada8a828b01613824565b93505060a0613aeb8a828b016138a7565b92505060c088013567ffffffffffffffff811115613b0c57613b0b613455565b5b613b188a828b01613a03565b91505092959891949750929550565b600080600060608486031215613b4057613b3f613450565b5b6000613b4e868287016138a7565b9350506020613b5f868287016138a7565b9250506040613b7086828701613824565b9150509250925092565b600060208284031215613b9057613b8f613450565b5b6000613b9e848285016138a7565b91505092915050565b613bb081613541565b82525050565b6000602082019050613bcb6000830184613ba7565b92915050565b613bda816134df565b8114613be557600080fd5b50565b600081359050613bf781613bd1565b92915050565b60008060408385031215613c1457613c13613450565b5b6000613c22858286016138a7565b9250506020613c3385828601613be8565b9150509250929050565b600067ffffffffffffffff821115613c5857613c57613906565b5b613c61826135a0565b9050602081019050919050565b6000613c81613c7c84613c3d565b613966565b905082815260208101848484011115613c9d57613c9c613901565b5b613ca88482856139b2565b509392505050565b600082601f830112613cc557613cc46138fc565b5b8135613cd5848260208601613c6e565b91505092915050565b60008060008060808587031215613cf857613cf7613450565b5b6000613d06878288016138a7565b9450506020613d17878288016138a7565b9350506040613d2887828801613824565b925050606085013567ffffffffffffffff811115613d4957613d48613455565b5b613d5587828801613cb0565b91505092959194509250565b600061010082019050613d77600083018b613ba7565b8181036020830152613d89818a6137b2565b90508181036040830152613d9d81896137b2565b9050613dac6060830188613ba7565b613db96080830187613ba7565b613dc660a0830186613866565b613dd360c0830185613866565b81810360e0830152613de581846137b2565b90509998505050505050505050565b60008060408385031215613e0b57613e0a613450565b5b6000613e19858286016138a7565b9250506020613e2a858286016138a7565b9150509250929050565b7f4e487b7100000000000000000000000000000000000000000000000000000000600052602260045260246000fd5b60006002820490506001821680613e7b57607f821691505b602082108103613e8e57613e8d613e34565b5b50919050565b7f4e487b7100000000000000000000000000000000000000000000000000000000600052603260045260246000fd5b7f436c756220616464726573732063616e6e6f74206265207a65726f0000000000600082015250565b6000613ef9601b836137a1565b9150613f0482613ec3565b602082019050919050565b60006020820190508181036000830152613f2881613eec565b9050919050565b7f4576656e74206e616d652063616e6e6f7420626520656d707479000000000000600082015250565b6000613f65601a836137a1565b9150613f7082613f2f565b602082019050919050565b60006020820190508181036000830152613f9481613f58565b9050919050565b7f4576656e742064617465206d75737420626520696e2074686520667574757265600082015250565b6000613fd16020836137a1565b9150613fdc82613f9b565b602082019050919050565b6000602082019050818103600083015261400081613fc4565b9050919050565b7f4e465420696d616765205552492063616e6e6f7420626520656d707479000000600082015250565b600061403d601d836137a1565b915061404882614007565b602082019050919050565b6000602082019050818103600083015261406c81614030565b9050919050565b60008190508160005260206000209050919050565b60006020601f8301049050919050565b600082821b905092915050565b6000600883026140d57fffffffffffffffffffffffffffffffffffffffffffffffffffffffffffffffff82614098565b6140df8683614098565b95508019841693508086168417925050509392505050565b6000819050919050565b600061411c61411761411284613541565b6140f7565b613541565b9050919050565b6000819050919050565b61413683614101565b61414a61414282614123565b8484546140a5565b825550505050565b600090565b61415f614152565b61416a81848461412d565b505050565b5b8181101561418e57614183600082614157565b600181019050614170565b5050565b601f8211156141d3576141a481614073565b6141ad84614088565b810160208510156141bc578190505b6141d06141c885614088565b83018261416f565b50505b505050565b600082821c905092915050565b60006141f6600019846008026141d8565b1980831691505092915050565b600061420f83836141e5565b9150826002028217905092915050565b6142288261355a565b67ffffffffffffffff81111561424157614240613906565b5b61424b8254613e63565b614256828285614192565b600060209050601f8311600181146142895760008415614277578287015190505b6142818582614203565b8655506142e9565b601f19841661429786614073565b60005b828110156142bf5784890151825560018201915060208501945060208101905061429a565b868310156142dc57848901516142d8601f8916826141e5565b8355505b6001600288020188555050505b505050505050565b7f4e487b7100000000000000000000000000000000000000000000000000000000600052601160045260246000fd5b600061432b82613541565b91507fffffffffffffffffffffffffffffffffffffffffffffffffffffffffffffffff820361435d5761435c6142f1565b5b600182019050919050565b600060608201905061437d6000830186613866565b61438a6020830185613ba7565b6143976040830184613866565b949350505050565b7f496e76616c6964207469636b6574204944000000000000000000000000000000600082015250565b60006143d56011836137a1565b91506143e08261439f565b602082019050919050565b60006020820190508181036000830152614404816143c8565b9050919050565b7f496e73756666696369656e74207061796d656e74000000000000000000000000600082015250565b60006144416014836137a1565b915061444c8261440b565b602082019050919050565b6000602082019050818103600083015261447081614434565b9050919050565b7f43616e6e6f7420627579207469636b657420666f722070617374206576656e74600082015250565b60006144ad6020836137a1565b91506144b882614477565b602082019050919050565b600060208201905081810360008301526144dc816144a0565b9050919050565b600081905092915050565b60006144f98261355a565b61450381856144e3565b9350614513818560208601613576565b80840191505092915050565b600061452b82856144ee565b915061453782846144ee565b91508190509392505050565b7f5469636b6574206e6f7420666f756e6400000000000000000000000000000000600082015250565b60006145796010836137a1565b915061458482614543565b602082019050919050565b600060208201905081810360008301526145a88161456c565b9050919050565b60006145ba82613541565b91506145c583613541565b92508282039050818111156145dd576145dc6142f1565b5b92915050565b60006145ee82613541565b91506145f983613541565b9250828201905080821115614611576146106142f1565b5b92915050565b60008154905061462681613e63565b9050919050565b81810361463b575050614713565b61464482614617565b67ffffffffffffffff81111561465d5761465c613906565b5b6146678254613e63565b614672828285614192565b6000601f8311600181146146a1576000841561468f578287015490505b6146998582614203565b86555061470c565b601f1984166146af87614073565b96506146ba86614073565b60005b828110156146e2578489015482556001820191506001850194506020810190506146bd565b868310156146ff57848901546146fb601f8916826141e5565b8355505b6001600288020188555050505b5050505050505b565b7f4e487b7100000000000000000000000000000000000000000000000000000000600052603160045260246000fd5b600081519050919050565b600082825260208201905092915050565b600061476b82614744565b614775818561474f565b9350614785818560208601613576565b61478e816135a0565b840191505092915050565b60006080820190506147ae6000830187613866565b6147bb6020830186613866565b6147c86040830185613ba7565b81810360608301526147da8184614760565b905095945050505050565b6000815190506147f481613486565b92915050565b6000602082840312156148105761480f613450565b5b600061481e848285016147e5565b91505092915050565b600060408201905061483c6000830185613866565b6148496020830184613ba7565b9392505050565b7f4e487b7100000000000000000000000000000000000000000000000000000000600052601260045260246000fdfea2646970667358221220ab3e249b1eabcafd9f168b745f946dad0dc4b552a0c67a571826f75dd6429bff64736f6c634300081c00335468697320697320616e20696e697469616c206576656e7420666f722074657374696e6720707572706f7365732e68747470733a2f2f6578616d706c652e636f6d2f6d696c6573746f6e65322e6a736f6e68747470733a2f2f6578616d706c652e636f6d2f6d696c6573746f6e65312e6a736f6e68747470733a2f2f6578616d706c652e636f6d2f6d696c6573746f6e65342e6a736f6e68747470733a2f2f6578616d706c652e636f6d2f6d696c6573746f6e65332e6a736f6e",
  "linkReferences": {},
  "deployedLinkReferences": {}
}