{
  "_format": "hh-sol-artifact-1",
  "contractName": "Ticketing",
  "sourceName": "contracts/Ticketing.sol",
  "abi": [
    {
      "inputs": [],
      "stateMutability": "nonpayable",
      "type": "constructor"
    },
    {
      "inputs": [
        {
          "internalType": "address",
          "name": "club",
          "type": "address"
        },
        {
          "internalType": "string",
          "name": "eventName",
          "type": "string"
        },
        {
          "internalType": "string",
          "name": "eventDescription",
          "type": "string"
        },
        {
          "internalType": "uint256",
          "name": "eventDate",
          "type": "uint256"
        },
        {
          "internalType": "uint256",
          "name": "price",
          "type": "uint256"
        },
        {
          "internalType": "address",
          "name": "nftContract",
          "type": "address"
        },
        {
          "internalType": "string",
          "name": "nftURI",
          "type": "string"
        }
      ],
      "name": "addTicketForSale",
      "outputs": [],
      "stateMutability": "nonpayable",
      "type": "function"
    },
    {
      "inputs": [
        {
          "internalType": "uint256",
          "name": "",
          "type": "uint256"
        }
      ],
      "name": "allTickets",
      "outputs": [
        {
          "internalType": "uint256",
          "name": "id",
          "type": "uint256"
        },
        {
          "internalType": "string",
          "name": "eventName",
          "type": "string"
        },
        {
          "internalType": "string",
          "name": "eventDescription",
          "type": "string"
        },
        {
          "internalType": "uint256",
          "name": "eventDate",
          "type": "uint256"
        },
        {
          "internalType": "uint256",
          "name": "price",
          "type": "uint256"
        },
        {
          "internalType": "address",
          "name": "owner",
          "type": "address"
        },
        {
          "internalType": "address",
          "name": "club",
          "type": "address"
        },
        {
          "internalType": "string",
          "name": "nftURI",
          "type": "string"
        }
      ],
      "stateMutability": "view",
      "type": "function"
    },
    {
      "inputs": [
        {
          "internalType": "address",
          "name": "",
          "type": "address"
        }
      ],
      "name": "attendedEvents",
      "outputs": [
        {
          "internalType": "uint256",
          "name": "",
          "type": "uint256"
        }
      ],
      "stateMutability": "view",
      "type": "function"
    },
    {
      "inputs": [
        {
          "internalType": "address",
          "name": "club",
          "type": "address"
        },
        {
          "internalType": "uint256",
          "name": "ticketId",
          "type": "uint256"
        }
      ],
      "name": "buyTicket",
      "outputs": [],
      "stateMutability": "payable",
      "type": "function"
    },
    {
      "inputs": [],
      "name": "dummyClub",
      "outputs": [
        {
          "internalType": "address",
          "name": "",
          "type": "address"
        }
      ],
      "stateMutability": "view",
      "type": "function"
    },
    {
      "inputs": [],
      "name": "getAllTickets",
      "outputs": [
        {
          "components": [
            {
              "internalType": "uint256",
              "name": "id",
              "type": "uint256"
            },
            {
              "internalType": "string",
              "name": "eventName",
              "type": "string"
            },
            {
              "internalType": "string",
              "name": "eventDescription",
              "type": "string"
            },
            {
              "internalType": "uint256",
              "name": "eventDate",
              "type": "uint256"
            },
            {
              "internalType": "uint256",
              "name": "price",
              "type": "uint256"
            },
            {
              "internalType": "address",
              "name": "owner",
              "type": "address"
            },
            {
              "internalType": "address",
              "name": "club",
              "type": "address"
            },
            {
              "internalType": "string",
              "name": "nftURI",
              "type": "string"
            }
          ],
          "internalType": "struct Ticketing.Ticket[]",
          "name": "",
          "type": "tuple[]"
        }
      ],
      "stateMutability": "view",
      "type": "function"
    },
    {
      "inputs": [
        {
          "internalType": "address",
          "name": "club",
          "type": "address"
        }
      ],
      "name": "getTicketsForClub",
      "outputs": [
        {
          "components": [
            {
              "internalType": "uint256",
              "name": "id",
              "type": "uint256"
            },
            {
              "internalType": "string",
              "name": "eventName",
              "type": "string"
            },
            {
              "internalType": "string",
              "name": "eventDescription",
              "type": "string"
            },
            {
              "internalType": "uint256",
              "name": "eventDate",
              "type": "uint256"
            },
            {
              "internalType": "uint256",
              "name": "price",
              "type": "uint256"
            },
            {
              "internalType": "address",
              "name": "owner",
              "type": "address"
            },
            {
              "internalType": "address",
              "name": "club",
              "type": "address"
            },
            {
              "internalType": "string",
              "name": "nftURI",
              "type": "string"
            }
          ],
          "internalType": "struct Ticketing.Ticket[]",
          "name": "",
          "type": "tuple[]"
        }
      ],
      "stateMutability": "view",
      "type": "function"
    },
    {
      "inputs": [
        {
          "internalType": "uint256",
          "name": "",
          "type": "uint256"
        }
      ],
      "name": "milestoneNftURIs",
      "outputs": [
        {
          "internalType": "string",
          "name": "",
          "type": "string"
        }
      ],
      "stateMutability": "view",
      "type": "function"
    },
    {
      "inputs": [],
      "name": "realMadridWalletAddress",
      "outputs": [
        {
          "internalType": "address",
          "name": "",
          "type": "address"
        }
      ],
      "stateMutability": "view",
      "type": "function"
    },
    {
      "inputs": [
        {
          "internalType": "address",
          "name": "",
          "type": "address"
        },
        {
          "internalType": "uint256",
          "name": "",
          "type": "uint256"
        }
      ],
      "name": "ticketsInSale",
      "outputs": [
        {
          "internalType": "uint256",
          "name": "id",
          "type": "uint256"
        },
        {
          "internalType": "string",
          "name": "eventName",
          "type": "string"
        },
        {
          "internalType": "string",
          "name": "eventDescription",
          "type": "string"
        },
        {
          "internalType": "uint256",
          "name": "eventDate",
          "type": "uint256"
        },
        {
          "internalType": "uint256",
          "name": "price",
          "type": "uint256"
        },
        {
          "internalType": "address",
          "name": "owner",
          "type": "address"
        },
        {
          "internalType": "address",
          "name": "club",
          "type": "address"
        },
        {
          "internalType": "string",
          "name": "nftURI",
          "type": "string"
        }
      ],
      "stateMutability": "view",
      "type": "function"
    }
  ],
  "bytecode": "0x6080604052731234567890123456789012345678901234567890600360006101000a81548173ffffffffffffffffffffffffffffffffffffffff021916908373ffffffffffffffffffffffffffffffffffffffff16021790555073bda5747bfd65f08deb54cb465eb87d40e51b197e600460006101000a81548173ffffffffffffffffffffffffffffffffffffffff021916908373ffffffffffffffffffffffffffffffffffffffff1602179055503480156100ba57600080fd5b506000600281905550600360009054906101000a900473ffffffffffffffffffffffffffffffffffffffff166000806101000a81548173ffffffffffffffffffffffffffffffffffffffff021916908373ffffffffffffffffffffffffffffffffffffffff1602179055506040518060600160405280602381526020016135b7602391396001600060018152602001908152602001600020908161015e91906107d8565b506040518060600160405280602381526020016135946023913960016000600a8152602001908152602001600020908161019891906107d8565b506040518060600160405280602381526020016135fd60239139600160006032815260200190815260200160002090816101d291906107d8565b506040518060600160405280602381526020016135da602391396001600060648152602001908152602001600020908161020c91906107d8565b506000604051806101000160405280600081526020016040518060400160405280600d81526020017f496e697469616c204576656e740000000000000000000000000000000000000081525081526020016040518060600160405280602e8152602001613566602e91398152602001620151804261028a91906108d9565b8152602001655af3107a40008152602001600073ffffffffffffffffffffffffffffffffffffffff168152602001600073ffffffffffffffffffffffffffffffffffffffff16815260200160405180602001604052806000815250815250905060056000600460009054906101000a900473ffffffffffffffffffffffffffffffffffffffff1673ffffffffffffffffffffffffffffffffffffffff1673ffffffffffffffffffffffffffffffffffffffff16815260200190815260200160002081908060018154018082558091505060019003906000526020600020906008020160009091909190915060008201518160000155602082015181600101908161039491906107d8565b5060408201518160020190816103aa91906107d8565b50606082015181600301556080820151816004015560a08201518160050160006101000a81548173ffffffffffffffffffffffffffffffffffffffff021916908373ffffffffffffffffffffffffffffffffffffffff16021790555060c08201518160060160006101000a81548173ffffffffffffffffffffffffffffffffffffffff021916908373ffffffffffffffffffffffffffffffffffffffff16021790555060e082015181600701908161046291906107d8565b505050806007600080815260200190815260200160002060008201518160000155602082015181600101908161049891906107d8565b5060408201518160020190816104ae91906107d8565b50606082015181600301556080820151816004015560a08201518160050160006101000a81548173ffffffffffffffffffffffffffffffffffffffff021916908373ffffffffffffffffffffffffffffffffffffffff16021790555060c08201518160060160006101000a81548173ffffffffffffffffffffffffffffffffffffffff021916908373ffffffffffffffffffffffffffffffffffffffff16021790555060e082015181600701908161056691906107d8565b509050506002600081548092919061057d9061090d565b919050555050610955565b600081519050919050565b7f4e487b7100000000000000000000000000000000000000000000000000000000600052604160045260246000fd5b7f4e487b7100000000000000000000000000000000000000000000000000000000600052602260045260246000fd5b6000600282049050600182168061060957607f821691505b60208210810361061c5761061b6105c2565b5b50919050565b60008190508160005260206000209050919050565b60006020601f8301049050919050565b600082821b905092915050565b6000600883026106847fffffffffffffffffffffffffffffffffffffffffffffffffffffffffffffffff82610647565b61068e8683610647565b95508019841693508086168417925050509392505050565b6000819050919050565b6000819050919050565b60006106d56106d06106cb846106a6565b6106b0565b6106a6565b9050919050565b6000819050919050565b6106ef836106ba565b6107036106fb826106dc565b848454610654565b825550505050565b600090565b61071861070b565b6107238184846106e6565b505050565b5b818110156107475761073c600082610710565b600181019050610729565b5050565b601f82111561078c5761075d81610622565b61076684610637565b81016020851015610775578190505b61078961078185610637565b830182610728565b50505b505050565b600082821c905092915050565b60006107af60001984600802610791565b1980831691505092915050565b60006107c8838361079e565b9150826002028217905092915050565b6107e182610588565b67ffffffffffffffff8111156107fa576107f9610593565b5b61080482546105f1565b61080f82828561074b565b600060209050601f8311600181146108425760008415610830578287015190505b61083a85826107bc565b8655506108a2565b601f19841661085086610622565b60005b8281101561087857848901518255600182019150602085019450602081019050610853565b868310156108955784890151610891601f89168261079e565b8355505b6001600288020188555050505b505050505050565b7f4e487b7100000000000000000000000000000000000000000000000000000000600052601160045260246000fd5b60006108e4826106a6565b91506108ef836106a6565b9250828201905080821115610907576109066108aa565b5b92915050565b6000610918826106a6565b91507fffffffffffffffffffffffffffffffffffffffffffffffffffffffffffffffff820361094a576109496108aa565b5b600182019050919050565b612c02806109646000396000f3fe6080604052600436106100915760003560e01c806366a5ef2f1161005957806366a5ef2f1461018f57806382d3200d146101ab578063a15b636a146101e8578063cba0f28714610213578063d0a753af1461025757610091565b806303e96fe31461009657806307263c12146100c15780630a572415146100fe5780630d04d6d7146101275780635d27743614610152575b600080fd5b3480156100a257600080fd5b506100ab61029b565b6040516100b89190611df9565b60405180910390f35b3480156100cd57600080fd5b506100e860048036038101906100e39190611e5b565b6105d6565b6040516100f59190611ed2565b60405180910390f35b34801561010a57600080fd5b5061012560048036038101906101209190612055565b610676565b005b34801561013357600080fd5b5061013c610ad2565b604051610149919061215a565b60405180910390f35b34801561015e57600080fd5b5061017960048036038101906101749190612175565b610af8565b6040516101869190611df9565b60405180910390f35b6101a960048036038101906101a491906121a2565b610e17565b005b3480156101b757600080fd5b506101d260048036038101906101cd9190612175565b6111f2565b6040516101df91906121f1565b60405180910390f35b3480156101f457600080fd5b506101fd61120a565b60405161020a919061215a565b60405180910390f35b34801561021f57600080fd5b5061023a600480360381019061023591906121a2565b611230565b60405161024e98979695949392919061220c565b60405180910390f35b34801561026357600080fd5b5061027e60048036038101906102799190611e5b565b61146d565b60405161029298979695949392919061220c565b60405180910390f35b6060600060025467ffffffffffffffff8111156102bb576102ba611f2a565b5b6040519080825280602002602001820160405280156102f457816020015b6102e1611ac1565b8152602001906001900390816102d95790505b50905060005b6002548110156105ce5760076000828152602001908152602001600020604051806101000160405290816000820154815260200160018201805461033d906122ce565b80601f0160208091040260200160405190810160405280929190818152602001828054610369906122ce565b80156103b65780601f1061038b576101008083540402835291602001916103b6565b820191906000526020600020905b81548152906001019060200180831161039957829003601f168201915b505050505081526020016002820180546103cf906122ce565b80601f01602080910402602001604051908101604052809291908181526020018280546103fb906122ce565b80156104485780601f1061041d57610100808354040283529160200191610448565b820191906000526020600020905b81548152906001019060200180831161042b57829003601f168201915b5050505050815260200160038201548152602001600482015481526020016005820160009054906101000a900473ffffffffffffffffffffffffffffffffffffffff1673ffffffffffffffffffffffffffffffffffffffff1673ffffffffffffffffffffffffffffffffffffffff1681526020016006820160009054906101000a900473ffffffffffffffffffffffffffffffffffffffff1673ffffffffffffffffffffffffffffffffffffffff1673ffffffffffffffffffffffffffffffffffffffff168152602001600782018054610521906122ce565b80601f016020809104026020016040519081016040528092919081815260200182805461054d906122ce565b801561059a5780601f1061056f5761010080835404028352916020019161059a565b820191906000526020600020905b81548152906001019060200180831161057d57829003601f168201915b5050505050815250508282815181106105b6576105b56122ff565b5b602002602001018190525080806001019150506102fa565b508091505090565b600160205280600052604060002060009150905080546105f5906122ce565b80601f0160208091040260200160405190810160405280929190818152602001828054610621906122ce565b801561066e5780601f106106435761010080835404028352916020019161066e565b820191906000526020600020905b81548152906001019060200180831161065157829003601f168201915b505050505081565b600073ffffffffffffffffffffffffffffffffffffffff168773ffffffffffffffffffffffffffffffffffffffff16036106e5576040517f08c379a00000000000000000000000000000000000000000000000000000000081526004016106dc9061237a565b60405180910390fd5b6000865111610729576040517f08c379a0000000000000000000000000000000000000000000000000000000008152600401610720906123e6565b60405180910390fd5b42841161076b576040517f08c379a000000000000000000000000000000000000000000000000000000000815260040161076290612452565b60405180910390fd5b600073ffffffffffffffffffffffffffffffffffffffff168273ffffffffffffffffffffffffffffffffffffffff16146107e45760008151116107e3576040517f08c379a00000000000000000000000000000000000000000000000000000000081526004016107da906124be565b60405180910390fd5b5b600060405180610100016040528060025481526020018881526020018781526020018681526020018581526020013373ffffffffffffffffffffffffffffffffffffffff1681526020018973ffffffffffffffffffffffffffffffffffffffff168152602001838152509050600560008973ffffffffffffffffffffffffffffffffffffffff1673ffffffffffffffffffffffffffffffffffffffff1681526020019081526020016000208190806001815401808255809150506001900390600052602060002090600802016000909190919091506000820151816000015560208201518160010190816108d8919061268a565b5060408201518160020190816108ee919061268a565b50606082015181600301556080820151816004015560a08201518160050160006101000a81548173ffffffffffffffffffffffffffffffffffffffff021916908373ffffffffffffffffffffffffffffffffffffffff16021790555060c08201518160060160006101000a81548173ffffffffffffffffffffffffffffffffffffffff021916908373ffffffffffffffffffffffffffffffffffffffff16021790555060e08201518160070190816109a6919061268a565b505050806007600060025481526020019081526020016000206000820151816000015560208201518160010190816109de919061268a565b5060408201518160020190816109f4919061268a565b50606082015181600301556080820151816004015560a08201518160050160006101000a81548173ffffffffffffffffffffffffffffffffffffffff021916908373ffffffffffffffffffffffffffffffffffffffff16021790555060c08201518160060160006101000a81548173ffffffffffffffffffffffffffffffffffffffff021916908373ffffffffffffffffffffffffffffffffffffffff16021790555060e0820151816007019081610aac919061268a565b5090505060026000815480929190610ac39061278b565b91905055505050505050505050565b600460009054906101000a900473ffffffffffffffffffffffffffffffffffffffff1681565b6060600560008373ffffffffffffffffffffffffffffffffffffffff1673ffffffffffffffffffffffffffffffffffffffff168152602001908152602001600020805480602002602001604051908101604052809291908181526020016000905b82821015610e0c57838290600052602060002090600802016040518061010001604052908160008201548152602001600182018054610b97906122ce565b80601f0160208091040260200160405190810160405280929190818152602001828054610bc3906122ce565b8015610c105780601f10610be557610100808354040283529160200191610c10565b820191906000526020600020905b815481529060010190602001808311610bf357829003601f168201915b50505050508152602001600282018054610c29906122ce565b80601f0160208091040260200160405190810160405280929190818152602001828054610c55906122ce565b8015610ca25780601f10610c7757610100808354040283529160200191610ca2565b820191906000526020600020905b815481529060010190602001808311610c8557829003601f168201915b5050505050815260200160038201548152602001600482015481526020016005820160009054906101000a900473ffffffffffffffffffffffffffffffffffffffff1673ffffffffffffffffffffffffffffffffffffffff1673ffffffffffffffffffffffffffffffffffffffff1681526020016006820160009054906101000a900473ffffffffffffffffffffffffffffffffffffffff1673ffffffffffffffffffffffffffffffffffffffff1673ffffffffffffffffffffffffffffffffffffffff168152602001600782018054610d7b906122ce565b80601f0160208091040260200160405190810160405280929190818152602001828054610da7906122ce565b8015610df45780601f10610dc957610100808354040283529160200191610df4565b820191906000526020600020905b815481529060010190602001808311610dd757829003601f168201915b50505050508152505081526020019060010190610b59565b505050509050919050565b6000600560008473ffffffffffffffffffffffffffffffffffffffff1673ffffffffffffffffffffffffffffffffffffffff168152602001908152602001600020905080805490508210610ea0576040517f08c379a0000000000000000000000000000000000000000000000000000000008152600401610e979061281f565b60405180910390fd5b6000818381548110610eb557610eb46122ff565b5b906000526020600020906008020190508060040154341015610f0c576040517f08c379a0000000000000000000000000000000000000000000000000000000008152600401610f039061288b565b60405180910390fd5b42816003015411610f52576040517f08c379a0000000000000000000000000000000000000000000000000000000008152600401610f49906128f7565b60405180910390fd5b338160050160006101000a81548173ffffffffffffffffffffffffffffffffffffffff021916908373ffffffffffffffffffffffffffffffffffffffff160217905550600660003373ffffffffffffffffffffffffffffffffffffffff1673ffffffffffffffffffffffffffffffffffffffff1681526020019081526020016000206000815480929190610fe59061278b565b91905055506000816007018054610ffb906122ce565b905011156110945760008054906101000a900473ffffffffffffffffffffffffffffffffffffffff1673ffffffffffffffffffffffffffffffffffffffff1663eacabe1433836007016040518363ffffffff1660e01b815260040161106192919061299b565b600060405180830381600087803b15801561107b57600080fd5b505af115801561108f573d6000803e3d6000fd5b505050505b8373ffffffffffffffffffffffffffffffffffffffff166108fc349081150290604051600060405180830381858888f193505050501580156110da573d6000803e3d6000fd5b506110e5848461168d565b600060016000600660003373ffffffffffffffffffffffffffffffffffffffff1673ffffffffffffffffffffffffffffffffffffffff1681526020019081526020016000205481526020019081526020016000208054611144906122ce565b905011156111ec5760008054906101000a900473ffffffffffffffffffffffffffffffffffffffff1673ffffffffffffffffffffffffffffffffffffffff1663eacabe1433600160008781526020019081526020016000206040518363ffffffff1660e01b81526004016111b992919061299b565b600060405180830381600087803b1580156111d357600080fd5b505af11580156111e7573d6000803e3d6000fd5b505050505b50505050565b60066020528060005260406000206000915090505481565b600360009054906101000a900473ffffffffffffffffffffffffffffffffffffffff1681565b6005602052816000526040600020818154811061124c57600080fd5b906000526020600020906008020160009150915050806000015490806001018054611276906122ce565b80601f01602080910402602001604051908101604052809291908181526020018280546112a2906122ce565b80156112ef5780601f106112c4576101008083540402835291602001916112ef565b820191906000526020600020905b8154815290600101906020018083116112d257829003601f168201915b505050505090806002018054611304906122ce565b80601f0160208091040260200160405190810160405280929190818152602001828054611330906122ce565b801561137d5780601f106113525761010080835404028352916020019161137d565b820191906000526020600020905b81548152906001019060200180831161136057829003601f168201915b5050505050908060030154908060040154908060050160009054906101000a900473ffffffffffffffffffffffffffffffffffffffff16908060060160009054906101000a900473ffffffffffffffffffffffffffffffffffffffff16908060070180546113ea906122ce565b80601f0160208091040260200160405190810160405280929190818152602001828054611416906122ce565b80156114635780601f1061143857610100808354040283529160200191611463565b820191906000526020600020905b81548152906001019060200180831161144657829003601f168201915b5050505050905088565b6007602052806000526040600020600091509050806000015490806001018054611496906122ce565b80601f01602080910402602001604051908101604052809291908181526020018280546114c2906122ce565b801561150f5780601f106114e45761010080835404028352916020019161150f565b820191906000526020600020905b8154815290600101906020018083116114f257829003601f168201915b505050505090806002018054611524906122ce565b80601f0160208091040260200160405190810160405280929190818152602001828054611550906122ce565b801561159d5780601f106115725761010080835404028352916020019161159d565b820191906000526020600020905b81548152906001019060200180831161158057829003601f168201915b5050505050908060030154908060040154908060050160009054906101000a900473ffffffffffffffffffffffffffffffffffffffff16908060060160009054906101000a900473ffffffffffffffffffffffffffffffffffffffff169080600701805461160a906122ce565b80601f0160208091040260200160405190810160405280929190818152602001828054611636906122ce565b80156116835780601f1061165857610100808354040283529160200191611683565b820191906000526020600020905b81548152906001019060200180831161166657829003601f168201915b5050505050905088565b6000600560008473ffffffffffffffffffffffffffffffffffffffff1673ffffffffffffffffffffffffffffffffffffffff168152602001908152602001600020905060007fffffffffffffffffffffffffffffffffffffffffffffffffffffffffffffffff905060005b82805490508110156117445783838281548110611718576117176122ff565b5b9060005260206000209060080201600001540361173757809150611744565b80806001019150506116f8565b507fffffffffffffffffffffffffffffffffffffffffffffffffffffffffffffffff81036117a7576040517f08c379a000000000000000000000000000000000000000000000000000000000815260040161179e90612a17565b60405180910390fd5b60008190505b600183805490506117be9190612a37565b81101561194e57826001826117d39190612a6b565b815481106117e4576117e36122ff565b5b9060005260206000209060080201838281548110611805576118046122ff565b5b906000526020600020906008020160008201548160000155600182018160010190816118319190612ab5565b50600282018160020190816118469190612ab5565b5060038201548160030155600482015481600401556005820160009054906101000a900473ffffffffffffffffffffffffffffffffffffffff168160050160006101000a81548173ffffffffffffffffffffffffffffffffffffffff021916908373ffffffffffffffffffffffffffffffffffffffff1602179055506006820160009054906101000a900473ffffffffffffffffffffffffffffffffffffffff168160060160006101000a81548173ffffffffffffffffffffffffffffffffffffffff021916908373ffffffffffffffffffffffffffffffffffffffff1602179055506007820181600701908161193d9190612ab5565b5090505080806001019150506117ad565b50818054806119605761195f612b9d565b5b600190038181906000526020600020906008020160008082016000905560018201600061198d9190611b32565b60028201600061199d9190611b32565b600382016000905560048201600090556005820160006101000a81549073ffffffffffffffffffffffffffffffffffffffff02191690556006820160006101000a81549073ffffffffffffffffffffffffffffffffffffffff0219169055600782016000611a0b9190611b32565b5050905560076000848152602001908152602001600020600080820160009055600182016000611a3b9190611b32565b600282016000611a4b9190611b32565b600382016000905560048201600090556005820160006101000a81549073ffffffffffffffffffffffffffffffffffffffff02191690556006820160006101000a81549073ffffffffffffffffffffffffffffffffffffffff0219169055600782016000611ab99190611b32565b505050505050565b6040518061010001604052806000815260200160608152602001606081526020016000815260200160008152602001600073ffffffffffffffffffffffffffffffffffffffff168152602001600073ffffffffffffffffffffffffffffffffffffffff168152602001606081525090565b508054611b3e906122ce565b6000825580601f10611b505750611b6f565b601f016020900490600052602060002090810190611b6e9190611b72565b5b50565b5b80821115611b8b576000816000905550600101611b73565b5090565b600081519050919050565b600082825260208201905092915050565b6000819050602082019050919050565b6000819050919050565b611bce81611bbb565b82525050565b600081519050919050565b600082825260208201905092915050565b60005b83811015611c0e578082015181840152602081019050611bf3565b60008484015250505050565b6000601f19601f8301169050919050565b6000611c3682611bd4565b611c408185611bdf565b9350611c50818560208601611bf0565b611c5981611c1a565b840191505092915050565b600073ffffffffffffffffffffffffffffffffffffffff82169050919050565b6000611c8f82611c64565b9050919050565b611c9f81611c84565b82525050565b600061010083016000830151611cbe6000860182611bc5565b5060208301518482036020860152611cd68282611c2b565b91505060408301518482036040860152611cf08282611c2b565b9150506060830151611d056060860182611bc5565b506080830151611d186080860182611bc5565b5060a0830151611d2b60a0860182611c96565b5060c0830151611d3e60c0860182611c96565b5060e083015184820360e0860152611d568282611c2b565b9150508091505092915050565b6000611d6f8383611ca5565b905092915050565b6000602082019050919050565b6000611d8f82611b8f565b611d998185611b9a565b935083602082028501611dab85611bab565b8060005b85811015611de75784840389528151611dc88582611d63565b9450611dd383611d77565b925060208a01995050600181019050611daf565b50829750879550505050505092915050565b60006020820190508181036000830152611e138184611d84565b905092915050565b6000604051905090565b600080fd5b600080fd5b611e3881611bbb565b8114611e4357600080fd5b50565b600081359050611e5581611e2f565b92915050565b600060208284031215611e7157611e70611e25565b5b6000611e7f84828501611e46565b91505092915050565b600082825260208201905092915050565b6000611ea482611bd4565b611eae8185611e88565b9350611ebe818560208601611bf0565b611ec781611c1a565b840191505092915050565b60006020820190508181036000830152611eec8184611e99565b905092915050565b611efd81611c84565b8114611f0857600080fd5b50565b600081359050611f1a81611ef4565b92915050565b600080fd5b600080fd5b7f4e487b7100000000000000000000000000000000000000000000000000000000600052604160045260246000fd5b611f6282611c1a565b810181811067ffffffffffffffff82111715611f8157611f80611f2a565b5b80604052505050565b6000611f94611e1b565b9050611fa08282611f59565b919050565b600067ffffffffffffffff821115611fc057611fbf611f2a565b5b611fc982611c1a565b9050602081019050919050565b82818337600083830152505050565b6000611ff8611ff384611fa5565b611f8a565b90508281526020810184848401111561201457612013611f25565b5b61201f848285611fd6565b509392505050565b600082601f83011261203c5761203b611f20565b5b813561204c848260208601611fe5565b91505092915050565b600080600080600080600060e0888a03121561207457612073611e25565b5b60006120828a828b01611f0b565b975050602088013567ffffffffffffffff8111156120a3576120a2611e2a565b5b6120af8a828b01612027565b965050604088013567ffffffffffffffff8111156120d0576120cf611e2a565b5b6120dc8a828b01612027565b95505060606120ed8a828b01611e46565b94505060806120fe8a828b01611e46565b93505060a061210f8a828b01611f0b565b92505060c088013567ffffffffffffffff8111156121305761212f611e2a565b5b61213c8a828b01612027565b91505092959891949750929550565b61215481611c84565b82525050565b600060208201905061216f600083018461214b565b92915050565b60006020828403121561218b5761218a611e25565b5b600061219984828501611f0b565b91505092915050565b600080604083850312156121b9576121b8611e25565b5b60006121c785828601611f0b565b92505060206121d885828601611e46565b9150509250929050565b6121eb81611bbb565b82525050565b600060208201905061220660008301846121e2565b92915050565b600061010082019050612222600083018b6121e2565b8181036020830152612234818a611e99565b905081810360408301526122488189611e99565b905061225760608301886121e2565b61226460808301876121e2565b61227160a083018661214b565b61227e60c083018561214b565b81810360e08301526122908184611e99565b90509998505050505050505050565b7f4e487b7100000000000000000000000000000000000000000000000000000000600052602260045260246000fd5b600060028204905060018216806122e657607f821691505b6020821081036122f9576122f861229f565b5b50919050565b7f4e487b7100000000000000000000000000000000000000000000000000000000600052603260045260246000fd5b7f436c756220616464726573732063616e6e6f74206265207a65726f0000000000600082015250565b6000612364601b83611e88565b915061236f8261232e565b602082019050919050565b6000602082019050818103600083015261239381612357565b9050919050565b7f4576656e74206e616d652063616e6e6f7420626520656d707479000000000000600082015250565b60006123d0601a83611e88565b91506123db8261239a565b602082019050919050565b600060208201905081810360008301526123ff816123c3565b9050919050565b7f4576656e742064617465206d75737420626520696e2074686520667574757265600082015250565b600061243c602083611e88565b915061244782612406565b602082019050919050565b6000602082019050818103600083015261246b8161242f565b9050919050565b7f4e465420696d616765205552492063616e6e6f7420626520656d707479000000600082015250565b60006124a8601d83611e88565b91506124b382612472565b602082019050919050565b600060208201905081810360008301526124d78161249b565b9050919050565b60008190508160005260206000209050919050565b60006020601f8301049050919050565b600082821b905092915050565b6000600883026125407fffffffffffffffffffffffffffffffffffffffffffffffffffffffffffffffff82612503565b61254a8683612503565b95508019841693508086168417925050509392505050565b6000819050919050565b600061258761258261257d84611bbb565b612562565b611bbb565b9050919050565b6000819050919050565b6125a18361256c565b6125b56125ad8261258e565b848454612510565b825550505050565b600090565b6125ca6125bd565b6125d5818484612598565b505050565b5b818110156125f9576125ee6000826125c2565b6001810190506125db565b5050565b601f82111561263e5761260f816124de565b612618846124f3565b81016020851015612627578190505b61263b612633856124f3565b8301826125da565b50505b505050565b600082821c905092915050565b600061266160001984600802612643565b1980831691505092915050565b600061267a8383612650565b9150826002028217905092915050565b61269382611bd4565b67ffffffffffffffff8111156126ac576126ab611f2a565b5b6126b682546122ce565b6126c18282856125fd565b600060209050601f8311600181146126f457600084156126e2578287015190505b6126ec858261266e565b865550612754565b601f198416612702866124de565b60005b8281101561272a57848901518255600182019150602085019450602081019050612705565b868310156127475784890151612743601f891682612650565b8355505b6001600288020188555050505b505050505050565b7f4e487b7100000000000000000000000000000000000000000000000000000000600052601160045260246000fd5b600061279682611bbb565b91507fffffffffffffffffffffffffffffffffffffffffffffffffffffffffffffffff82036127c8576127c761275c565b5b600182019050919050565b7f496e76616c6964207469636b6574204944000000000000000000000000000000600082015250565b6000612809601183611e88565b9150612814826127d3565b602082019050919050565b60006020820190508181036000830152612838816127fc565b9050919050565b7f496e73756666696369656e74207061796d656e74000000000000000000000000600082015250565b6000612875601483611e88565b91506128808261283f565b602082019050919050565b600060208201905081810360008301526128a481612868565b9050919050565b7f43616e6e6f7420627579207469636b657420666f722070617374206576656e74600082015250565b60006128e1602083611e88565b91506128ec826128ab565b602082019050919050565b60006020820190508181036000830152612910816128d4565b9050919050565b60008154612924816122ce565b61292e8186611e88565b94506001821660008114612949576001811461295f57612992565b60ff198316865281151560200286019350612992565b612968856124de565b60005b8381101561298a5781548189015260018201915060208101905061296b565b808801955050505b50505092915050565b60006040820190506129b0600083018561214b565b81810360208301526129c28184612917565b90509392505050565b7f5469636b6574206e6f7420666f756e6400000000000000000000000000000000600082015250565b6000612a01601083611e88565b9150612a0c826129cb565b602082019050919050565b60006020820190508181036000830152612a30816129f4565b9050919050565b6000612a4282611bbb565b9150612a4d83611bbb565b9250828203905081811115612a6557612a6461275c565b5b92915050565b6000612a7682611bbb565b9150612a8183611bbb565b9250828201905080821115612a9957612a9861275c565b5b92915050565b600081549050612aae816122ce565b9050919050565b818103612ac3575050612b9b565b612acc82612a9f565b67ffffffffffffffff811115612ae557612ae4611f2a565b5b612aef82546122ce565b612afa8282856125fd565b6000601f831160018114612b295760008415612b17578287015490505b612b21858261266e565b865550612b94565b601f198416612b37876124de565b9650612b42866124de565b60005b82811015612b6a57848901548255600182019150600185019450602081019050612b45565b86831015612b875784890154612b83601f891682612650565b8355505b6001600288020188555050505b5050505050505b565b7f4e487b7100000000000000000000000000000000000000000000000000000000600052603160045260246000fdfea264697066735822122066ef6b354cd11272600f82d47f18326797361ca6c9060c2662df70deb43aeb4b64736f6c634300081c00335468697320697320616e20696e697469616c206576656e7420666f722074657374696e6720707572706f7365732e68747470733a2f2f6578616d706c652e636f6d2f6d696c6573746f6e65322e6a736f6e68747470733a2f2f6578616d706c652e636f6d2f6d696c6573746f6e65312e6a736f6e68747470733a2f2f6578616d706c652e636f6d2f6d696c6573746f6e65342e6a736f6e68747470733a2f2f6578616d706c652e636f6d2f6d696c6573746f6e65332e6a736f6e",
  "linkReferences": {},
  "deployedLinkReferences": {}
}